:020000040000fa
:080000000002040000000000f2
:020000040000fa
:0400080002030000ef
:020000040000fa
:04000c0002030000eb
:020000040000fa
:0400100002030000e7
:020000040000fa
:0400140002030000e3
:020000040000fa
:0400180002030000df
:020000040000fa
:04001c0002030000db
:020000040000fa
:0400200002030000d7
:020000040000fa
:0400240002030000d3
:020000040000fa
:0400280002030000cf
:020000040000fa
:04002c0002030000cb
:020000040000fa
:0400300002030000c7
:020000040000fa
:0400340002030000c3
:020000040000fa
:0400380002030000bf
:020000040000fa
:04003c0002030000bb
:020000040000fa
:0400400002030000b7
:020000040000fa
:0400440002030000b3
:020000040000fa
:0400480002030000af
:020000040000fa
:04004c0002030000ab
:020000040000fa
:0400500002030000a7
:020000040000fa
:0400540096130000ff
:020000040000fa
:04005800020300009f
:020000040000fa
:04005c00020300009b
:020000040000fa
:040060000203000097
:020000040000fa
:040064000203000093
:020000040000fa
:04006800020300008f
:020000040000fa
:04006c00020300008b
:020000040000fa
:040070000203000087
:020000040000fa
:040074000203000083
:020000040000fa
:04007800020300007f
:020000040000fa
:04007c00020300007b
:020000040000fa
:040080000203000077
:020000040000fa
:040084000203000073
:020000040000fa
:04008800020300006f
:020000040000fa
:04008c00020300006b
:020000040000fa
:040090000203000067
:020000040000fa
:040094000203000063
:020000040000fa
:04009800020300005f
:020000040000fa
:04009c00020300005b
:020000040000fa
:0400a0000203000057
:020000040000fa
:0400a4000203000053
:020000040000fa
:0400a800020300004f
:020000040000fa
:0400ac00020300004b
:020000040000fa
:0400b0000203000047
:020000040000fa
:0400b4000203000043
:020000040000fa
:0400b800020300003f
:020000040000fa
:0400bc00020300003b
:020000040000fa
:0400c0000203000037
:020000040000fa
:0400c4000203000033
:020000040000fa
:0400c800020300002f
:020000040000fa
:0400cc00020300002b
:020000040000fa
:0400d0000203000027
:020000040000fa
:0400d4000203000023
:020000040000fa
:0400d800020300001f
:020000040000fa
:0400dc00020300001b
:020000040000fa
:0400e0000203000017
:020000040000fa
:0400e4000203000013
:020000040000fa
:0400e800020300000f
:020000040000fa
:0400ec00020300000b
:020000040000fa
:0400f0000203000007
:020000040000fa
:0400f4000203000003
:020000040000fa
:0400f80002030000ff
:020000040000fa
:0400fc0002030000fb
:020000040000fa
:0401000002030000f6
:020000040000fa
:0401040002030000f2
:020000040000fa
:0401080002030000ee
:020000040000fa
:04010c0002030000ea
:020000040000fa
:0401100002030000e6
:020000040000fa
:0401140002030000e2
:020000040000fa
:0401180002030000de
:020000040000fa
:04011c0002030000da
:020000040000fa
:0401200002030000d6
:020000040000fa
:0401240002030000d2
:020000040000fa
:0401280002030000ce
:020000040000fa
:04012c0002030000ca
:020000040000fa
:0401300002030000c6
:020000040000fa
:0401340002030000c2
:020000040000fa
:0401380002030000be
:020000040000fa
:04013c0002030000ba
:020000040000fa
:0401400002030000b6
:020000040000fa
:0401440002030000b2
:020000040000fa
:0401480002030000ae
:020000040000fa
:04014c0002030000aa
:020000040000fa
:0401500002030000a6
:020000040000fa
:0401540002030000a2
:020000040000fa
:04015800020300009e
:020000040000fa
:04015c00020300009a
:020000040000fa
:040160000203000096
:020000040000fa
:040164000203000092
:020000040000fa
:04016800020300008e
:020000040000fa
:04016c00020300008a
:020000040000fa
:040170000203000086
:020000040000fa
:040174000203000082
:020000040000fa
:04017800020300007e
:020000040000fa
:04017c00020300007a
:020000040000fa
:040180000203000076
:020000040000fa
:040184000203000072
:020000040000fa
:04018800020300006e
:020000040000fa
:04018c00020300006a
:020000040000fa
:040190000203000066
:020000040000fa
:040194000203000062
:020000040000fa
:04019800020300005e
:020000040000fa
:04019c00020300005a
:020000040000fa
:0401a0000203000056
:020000040000fa
:0401a4000203000052
:020000040000fa
:0401a800020300004e
:020000040000fa
:0401ac00020300004a
:020000040000fa
:0401b0000203000046
:020000040000fa
:0401b4000203000042
:020000040000fa
:0401b800020300003e
:020000040000fa
:0401bc00020300003a
:020000040000fa
:0401c0000203000036
:020000040000fa
:0401c4000203000032
:020000040000fa
:0401c800020300002e
:020000040000fa
:0401cc00020300002a
:020000040000fa
:0401d0000203000026
:020000040000fa
:0401d4000203000022
:020000040000fa
:0401d800020300001e
:020000040000fa
:0401dc00020300001a
:020000040000fa
:0401e0000203000016
:020000040000fa
:0401e4000203000012
:020000040000fa
:0401e800020300000e
:020000040000fa
:0401ec00020300000a
:020000040000fa
:0401f0000203000006
:020000040000fa
:0401f4000203000002
:020000040000fa
:0401f80002030000fe
:020000040000fa
:0401fc0002030000fa
:020000040000fa
:0402000002030000f5
:020000040000fa
:0402040002030000f1
:020000040000fa
:0402080002030000ed
:020000040000fa
:04020c0002030000e9
:020000040000fa
:0402100002030000e5
:020000040000fa
:0402140002030000e1
:020000040000fa
:0402180002030000dd
:020000040000fa
:04021c0002030000d9
:020000040000fa
:0402200002030000d5
:020000040000fa
:0402240002030000d1
:020000040000fa
:0402280002030000cd
:020000040000fa
:04022c0002030000c9
:020000040000fa
:0402300002030000c5
:020000040000fa
:0402340002030000c1
:020000040000fa
:0402380002030000bd
:020000040000fa
:04023c0002030000b9
:020000040000fa
:0402400002030000b5
:020000040000fa
:0402440002030000b1
:020000040000fa
:0402480002030000ad
:020000040000fa
:04024c0002030000a9
:020000040000fa
:0402500002030000a5
:020000040000fa
:0402540002030000a1
:020000040000fa
:04025800020300009d
:020000040000fa
:04025c000203000099
:020000040000fa
:040260000203000095
:020000040000fa
:040264000203000091
:020000040000fa
:04026800020300008d
:020000040000fa
:04026c000203000089
:020000040000fa
:040270000203000085
:020000040000fa
:040274000203000081
:020000040000fa
:04027800020300007d
:020000040000fa
:04027c000203000079
:020000040000fa
:040280000203000075
:020000040000fa
:10040000af0921000eff21000e018800000000004e
:10041000000020000000e000020032000001200087
:100420002002880014000700d80007000000e00048
:1004300003003a00201221000100200002003700d2
:100440000000200001002000810f70000100320038
:100450000f000700000020000000e0000200320052
:100460000000020000000000d213020000000000a3
:100470000040da000000fe00600020000000e00004
:1004800002003200002020009001880000000600d9
:10049000a1028800800478000000eb001f003700f4
:1004a000e284440054a0b4009905ba00e2844400f8
:1004b00054a0b4009906ba00e284440054a0b400e9
:1004c0000006eb00476fde00fd07b200ae018800ba
:1004d000636ce10003003a000ad801000000eb0061
:1004e0000e003700606ce10008003a00004deb00a0
:1004f0000a05e800020039003420ec000af0a000f0
:100500008b05e900f9ff3e00040037006168e10057
:10051000010032000086eb000b00070019c7ba008b
:100520001905ba000e04e00003003a000a00e000da
:10053000dbff3a0000000600fe07b200ae028800b2
:100540008a047800f5ff37000cd0a300e20f4d00bd
:100550001c00390089027800354dba000a05e80010
:10056000020039003420ec000af0a0008b05e900fd
:100570000f003200254dba000a05e80002003900dc
:100580003420ec000af0a0008b05e90008003200de
:100590000c00e0000600320015cdba000a05e800a4
:1005a000020039003420ec000af0a0008b05e900bd
:1005b0008984e80054a0b4000b00e000e2ff3a0098
:1005c000000006009902ba00055d78008b05e9007d
:1005d000f7ff3200c82ade00055d78008b05e900d0
:1005e000f3ff32000c00e000f1ff320019ddba0029
:1005f000eeff3700000000000000000000000000d7
:10060000000000000040da000000fe000a00fa00ce
:1006100011002000b1bf9f00c0bf9f006a8057003b
:10062000c80207004fb897000080fa0000000600db
:100630000a00fa00e20f50001f003e00b084800064
:10064000e10f5000060032008023200045232000e7
:1006500023232000042320000000e00004003a00cf
:100660008022200045222000232220000422200096
:10067000060028009403630002003a00070878008f
:10068000140a730013a8a30001003a0013a0a000ed
:1006900002007800050037001388a300feff320037
:1006a0003102fb00840a78000000e9000000e0004d
:1006b000f9ff3a000800370033002000b3bf9f0065
:1006c000c0bf9f00d1bf9f00e2bf9f006a8057005c
:1006d0009e0207006fb99700020078000080fa00c0
:1006e000000006000a00fa0051002000b1bf9f0080
:1006f000c0bf9f006a805700960207005fb897004e
:100700000080fa0000000600889fbe008004780088
:10071000c08480000000e00004003a000e000700e2
:100720000084eb000000e00008003500c884800071
:100730000900e0000500320009004400060007003f
:100740000000e00001003d000084eb00080078009c
:100750004f04be0000000600800078000100e000a9
:1007600003003a0000002000c0848800000005005b
:100770000080eb0002002000828f500002003e004b
:10078000c18488000000eb000000060000000500a6
:10079000839f68000100e00002003d00600010003f
:1007a000e08018000300e00002003d00600111003d
:1007b000e0811900050007004f00e00002003b0047
:1007c00060001000e0801800000006006022b80001
:1007d000060220000000d0008180d2000482d200f6
:1007e0008582d2000000a0000202520083825a00db
:1007f000030031000202420083824a000000a1008f
:100800000603e900f3ff3a0000000600c1022100e0
:100810003f000700800078000080eb000100e0004e
:1008200004003500c1022100a000200012000700d2
:100830004f80de0000000600020037000204e000e6
:100840000b0032008101780000027800304178000e
:10085000b14f5100f9ff320010002000144278001f
:10086000934f5200030031000080eb0000000600af
:100870000000eb0000000600889fbe008a1f780081
:100880000004be00c900900069009000808f5000f5
:1008900005003900090078008e0007008080eb0019
:1008a0000000e0001600350008457800490090007f
:1008b00008587800c00498001900780000b8a30018
:1008c00004003a0000a8a30007003200ea4f5400d9
:1008d00005003a00090078001e0107008080eb0047
:1008e0000000e00006003a0000c02000190060008f
:1008f0000200320049009000e00498008a80fb006a
:10090000010078004f0578004f04be00000006008b
:10091000889fbe008a9fbe008c1f780080047800ec
:10092000010478002f003700c80090006800900094
:10093000808f50000400390008007800650007002f
:100940000000e0003a003500004020001800600080
:100950000a003200a10020000900780050000700c2
:10096000000678000c00e0000400320061851400ed
:100970000a054600cfd5de000400370009007800e4
:100980003e0007000005be000006eb004800900096
:100990006801900000015100cf91de008a0f5100e4
:1009a0008b8f5900020031000205be000006eb00eb
:1009b0000a01be008900780022000700480090006c
:1009c0000a004000400498000c00e00004003200df
:1009d00008007800df0007000000e00014003a0083
:1009e0008a8444001904e000cfff3a000080200010
:1009f000180060000600320008007800d5000700eb
:100a0000800078000080eb000100e00009003a005f
:100a100001c02000988060000000eb00050032005b
:100a200048009000600498000000eb0001003700cf
:100a30000080eb004f0678004f05be004f04be005b
:100a4000000006000202be008001eb000700370034
:100a5000611bb8000601400006834000164978007b
:100a600061025200e0825a008301e800e00f520068
:100a7000e08f5a00f6ff3a00000006008000780080
:100a80000000eb00008140000000e8001204e000dc
:100a9000fcff3a0001005100cf80de00000006009c
:100aa0006011b8006103b80006034100e0834b0009
:100ab00016427800814f520001003a00860178000a
:100ac0000201e8000404e000f6ff3a0003007800a9
:100ad00000000600889fbe008a1f7800000478008e
:100ae000c8009000680190000000eb00828f500069
:100af0003d00390018007800220029000201600042
:100b0000e20f510007003200012024000000e00045
:100b100001003d0001202000008c70000080eb00ef
:100b2000310037000200260002006000820f5000f2
:100b300009003a0038009000808f5000060039000c
:100b40000800780083000700800078000080eb0038
:100b50000100e00024003a001805780000c02000e1
:100b60000000650019003a00a8049000600220000f
:100b700008004000808f540014003a00002020003c
:100b8000010020002c010700200498000000e00074
:100b900005003a0029049800490498008904e800f7
:100ba00039049800080037000a60a0000a0c780099
:100bb000400498000120200080804000310498000b
:100bc000400c9800500c98000c0007002800900082
:100bd000500498003800900060049800000026003f
:100be000180c70000000eb004f0578004f04be00a9
:100bf000000006004069200091003700881f78003f
:100c0000480921001804e00003003a00f9ff07003a
:100c100020c0b300004c78004f04780000000600ac
:100c2000889fbe0000047800080078004900070093
:100c300080047800000420001800600002003200e8
:100c4000280090008b0007000000eb0020049800b3
:100c5000384090000004e000050035000000fb0073
:100c60006afe07000000e000010032008084eb0013
:100c7000181090000000e0000800320099fe070004
:100c80000000e000010032008084eb0018109000aa
:100c9000780007000000eb00101498000008200006
:100ca000180060000f003200a10721000000eb00d7
:100cb000d10f140005003a0000004000c1072100d8
:100cc000008040000008eb00030037000000e8004f
:100cd000e80f5000f6ff3a000800780065000700b2
:100ce0000e003700000c780000c0eb003044980084
:100cf0006002200008004000200498004004980092
:100d000050049800400c980060049800500c980023
:100d10007004980076004400000c980009007800e8
:100d20004f04be0000000600889fbe00c8082100d6
:100d3000f0045400480078000000e0000100320098
:100d4000b7ff0700890f5400faff3a004f04be00b6
:100d500000000600889fbe008a1f7800000478000b
:100d60000800e0000d003a00a807210070054400cb
:100d70008004eb00580078000000e000040032001e
:100d8000f4ff07000000e00001003d008084eb005c
:100d90008a0f5400f7ff3a002500370000002200b8
:100da000180060008004eb0021003200a8049000cd
:100db0000f00370009015100384090000000fb008f
:100dc000890078001afe07000000e00007003c00e0
:100dd000280090004004980060049800500c98008f
:100de0001890a0008084eb0011003700808444003c
:100df00048019000828f5400eeff390028009000d7
:100e0000400498009800780002c020000281600031
:100e100001003a003800900001e8a300020032000f
:100e20006004980001003700500c98008004eb002b
:100e3000090078004f0578004f04be00000006004e
:100e4000010020000100e0000900320001008000e4
:100e50000100e000060032008100e9000100880086
:100e600081804000020080008100410080087800fd
:100e7000000006000000e000320032004002be0028
:100e8000e50f5200e08f5a002e0036000408a30040
:100e90002c003a00918480000100e0000200320042
:100ea000810f5000040031002100980090848800d8
:100eb0001700370082007800210190000200e00056
:100ec00002003200800f5100faff39001103be000a
:100ed00086814000830f50001a003900808f510036
:100ee00004003a008418430085904b00010078000c
:100ef000070037000200e000030032000402400057
:100f0000840f51000f00390022009800a0009800c3
:100f1000a00090000100e0000a0032001001400033
:100f2000828f500007003a00020921000009eb00ff
:100f30001001be003118410021904900a10090002d
:100f40002100980000000600889fbe008a9fbe0016
:100f50000004be00818480000100e0000200320035
:100f6000010078000f0037009184800020092100e3
:100f700005003700b10f5400a18f5c002b00360034
:100f800064804000a10090000100e000f9ff3a00f9
:100f900012003700b20f5400a28f5c00230036000d
:100fa00064004100100178000200e000f9ff3a00ff
:100fb000110178009184800020092100050037008c
:100fc000b10f5400a18f5c0018003600648040000f
:100fd000a1009000828f5000f9ff3a006a848000df
:100fe0007b848000880f5500898f5d0001003100ef
:100ff0000805be000a00be00460007000000e00031
:1010000006003a00880f5500898f5d000600320007
:101010008b05d1000a85d300f2ff37000a98be0085
:1010200094ff0700cbff37000000eb004f05be0028
:101030004f04be0000000600889fbe000002be00f4
:1010400065004000e0804800000378000600a10031
:1010500081017800060178000204be008000eb00e8
:10106000840f5400858f5c0027003600e50f540084
:10107000e08f5c0002003e006800200009002000b4
:101080000800be00b0ff07008000eb000000e00099
:101090001d00320090007800a4ff2f00f5ff2f0004
:1010a00031014200a1814a00880f5100898f590007
:1010b00003003100a1029000050878000800370005
:1010c0000881400002087800a101900023019800e7
:1010d000100178003119140021911c008888be008d
:1010e000100178000000eb000200e0000400320074
:1010f000a20190000300e000010032006400410002
:1011000080848800e4804000010078004f04be0025
:10111000000006000001be008000eb000200e000bd
:10112000060034000200780077fd07008000780098
:10113000e18f400001003a008000eb0001007800e0
:101140000000060000c0da000000060000c0da005f
:0c1150000000060000c0da0000000600ed
:020000040000fa
:0c115c00696e0000692000000000000027
:020000040000fa
:101168000400fa00000f7800110798001e4078006c
:101178000080fb004700dd00804078001e409000a2
:101188000080fb004500dd00004078000046b2000a
:1011980080c040002e4090006f40600000c04000ba
:1011a8000080fa00000006000800fa00000278003b
:1011b800414798005247980063479800ce409000f6
:1011c800014f7800de40900011479800ee409000f3
:1011d800214798000e007800840078009048780035
:1011e8008100e8000000e800904878008100e800ed
:1011f8000000e800904878008100e8000000e8005e
:10120800040078000080fa00000006000400fa00dc
:101218002147980032479800ae409000014f78006f
:10122800be409000e7c06000114798001e48780053
:101238009e409000114098000080fa0000000600cf
:101248000c00fa00881f78000004780041479800d5
:101258005247980063479800744798006800470011
:10126800fe4190006e419000de409000ceff0700e6
:10127800680047008e007800904878008100e800f8
:101288000000e800904878008100e8000000e800cd
:10129800904878008100e8000000e800ce40900007
:1012a80031479800030009003e5c78004800b1000f
:1012b8004e00b100080078004f0478000080fa0062
:1012c800000006000800fa0010079800210798009f
:1012d800320798000040eb00004f7800134ea90039
:1012e8002e4090009d0407003e4090009b0407009c
:1012f8002e009000be00900099ff07009704070099
:101308007e40900095040700004f7800134ea80017
:101318001e4078000080fa00000006000000fa0075
:10132800114ea900134ea800110020000000eb0088
:10133800750407000080fa00000006001000fa009b
:10134800004f98000040eb00004f78000e489000d6
:101358000080fb004400de0000407800e7406000a9
:101368006a0047000141780001c1b300a7ff0700e8
:10137800ae489000114798003e49900022479800d7
:101388000e489000ef4060006c0047000142780072
:101398008041eb0012c0b3009e407800a8ff070010
:1013a800e30047006c01470003000900b2587800c9
:1013b8001e4090000080fb00ae4090008180fb0042
:1013c800c808dd00810070000000eb000100780013
:1013d800be4090008180fb004e4190000281fb00de
:1013e8004811dd00028170008000eb008200780067
:1013f8005e4190000281fb00ee4190008381fb007a
:10140800c819dd00830171000001eb0003017800b9
:10141800acff07000080fa00000006000e00fa008a
:1014280060479800714798006e4090000080fb006c
:101438004400de0000407800e74060006800470094
:101448000141780001c1b30070ff07008e48900089
:10145800014f78001e499000124798006e40900096
:10146800ef4060006a004700014278008041eb00cd
:101478000041eb00fe40900071ff0700e2004700ca
:101488006a01470003000900b25878001e0078007e
:101498009e0090002e0190008aff07000080fa004d
:1014a800000006001400fa00004f98005107980049
:1014b800424f98000e4890000080fb004400de0078
:1014c80000407800e74060006e0047000141780066
:1014d80001c1b3004dff0700ee4890001147980086
:1014e8007e499000224798000e4890006f416000a6
:1014f8005e0090009040780070004700024278003b
:1015080033c0b3000041eb004dff0700e300470084
:101518007001470003000900b2587800134ea90073
:101528001e4090000d0407002e4090000b04070099
:101538003e4090000080fb00ce4090008180fb0080
:10154800c808dd00810070000000eb000100780091
:10155800de4090008181fb008000eb00f20f20004c
:101568000281610003f02f00838060008100710018
:10157800fbfe0700f90307006e409000f703070021
:1015880010c0b300004f7800060037001e80fb0033
:10159800de0090000080400010407800ef03070054
:1015a8001e4fe8004e4890009e40780080cf5000c3
:1015b800f6ff3900134ea8000080fa00000006006c
:1015c8001400fa00881f7800004f9800510798000f
:1015d800424f98000e4890000080fb004400de0057
:1015e80000407800e74060006e0047000141780045
:1015f80001c1b30005ff0700ee48900011479800ad
:101608007e499000224798000e4890006f41600084
:101618005e00900090407800700047000242780019
:1016280033c0b30012c0b30005ff0700e300470052
:101638007001470003000900b2587800134ea90052
:101648001e409000c50307002e409000c30307000a
:101658003e4090000080fb00ce4090008180fb005f
:10166800c808dd00810070000000eb000100780070
:10167800de4090008181fb008000eb00f20f20002b
:101688000281610003f02f008380600081007100f7
:10169800b3fe0700b10307000040eb00004f7800dd
:1016a800070037001e80fb00de0090000084400029
:1016b8000040eb00a9030700004c78001e4fe8002b
:1016c8004e4890009e40780080cf5000f5ff3900ca
:1016d800134ea8004f0478000080fa0000000600ae
:1016e8001400fa00881f7800004f980051079800ee
:1016f800424f98000e4890000080fb004400de0036
:1017080000407800e74060006e0047000141780023
:1017180001c1b300bdfe0700ee48900011479800d4
:101728007e49900022479800134ea9001e40900061
:101738008a0307002e4090008803070002d0bf00ec
:101748000004e00001003a000270ef0002d0bf0080
:101758000004e00021003a000e4890006f4160004c
:101768005e009000904078007000470002427800c8
:1017780033c0b30012c0b300b1fe0700e300470056
:101788007001470003000900b25878003e409000fd
:101798000080fb00ce4090008180fb00c808dd007f
:1017a800810070000000eb0001007800de4090002e
:1017b8008181fb008000eb00f20f200002816100b4
:1017c80003f02f00838060008100710064fe070031
:1017d8006203070010c0b30002f0b7000040eb003e
:1017e800004f7800070037001e80fb00de009000e5
:1017f800008440000040eb0058030700004c7800cc
:101808001e4fe8004e4890009e40780080cf500060
:10181800f5ff3900134ea8004f0478000080fa0045
:10182800000006000600fa00881f780010079800dc
:1018380041479800134ea9000040eb00004f780084
:10184800070037001e80fb009e00900000844000c7
:101858000040eb0041030700004c78001e4fe800f1
:101868004e4090009e40780080cf5000f5ff390030
:10187800134ea8004f0478000080fa00000006000c
:101888000a00fa004047980051479800320798002c
:10189800034f98000040eb00004f7800230037000a
:1018a8003e00900090407800214798003e0090004c
:1018b8000000e800300798000040eb00104798004f
:1018c80016003700ae4090004e40900000c06800ff
:1018d8000004e00008003d004e4090000080fb003e
:1018e80000004000804078005e40900000c0680022
:1018f80040479800060037004e40900000404000e6
:10190800404798002e409000004040002047980033
:101918001e4090000040e800104798001e409000cc
:10192800e74f5000e7ff36001e4fe8000e489000d2
:101938009e40780080cf5000d9ff39004e4090007b
:1019480000c0ea000080fa00000006000600fa0065
:1019580010079800414798004e4090000080fb0017
:101968009e00900000804000104f7800ce4190000b
:101978001e01900011c3b3000040eb00c0ff070038
:10198800104798001e4090009e40780080cf50007d
:1019980002003a000040eb000100370010c0b3001d
:1019a8000080fa00000006000400fa0020479800b2
:1019b800314798000040eb0010479800ae40900077
:1019c80090c0b30095fe07003e4090000040e9003b
:1019d80080407800a0c0b30090fe0700134ea90015
:1019e800a0cfb300dd020700f0c9b300db02070097
:1019f800004f780009003700f0c9b300d70207008c
:101a0800004f78001e4090000040e8001047980002
:101a180080b5210001002000690307001e407800fe
:101a28000004e000040035009e40900030c6b3007a
:101a380080cf5000f0ff3600134ea8009e40900063
:101a480030c6b30080cf5000020036000040eb00e3
:101a58000100370010c0b3000080fa000000060043
:101a68000800fa00881f780020079800614798004e
:101a7800134ea9000040eb00004f78000700370024
:101a88001e80fb00ae009000008440000040eb0088
:101a9800b2020700004c78001e4fe8006e4090002c
:101aa8009e40780080cf5000f5ff3900b0cfb300da
:101ab800aa020700f0c9b300a8020700204798004f
:101ac80009003700f0c9b300a402070020479800b6
:101ad8001e4090000040e8001047980080b52100a3
:101ae80001002000360307002e4090000004e000ab
:101af80004003d009e40900030c6b30080cf5000e7
:101b0800f0ff3600134ea8009e40900030c6b30088
:101b180080cf5000020036000040eb000100370083
:101b280010c0b3004f0478000080fa0000000600df
:101b38000000fa000080fa00000006000000fa0029
:101b4800f6fd0700faff07000070ef000080fa00ba
:101b5800000006000800fa00004f780011479800be
:101b68002247980033479800444798005547980003
:101b780066479800774798001e80fb00e30f5000e7
:101b880052003200e30f500007003c00e10f500004
:101b980022003200e10f500036003c000000e00057
:101ba80008003200a1003700e50f50007300320032
:101bb800e50f50005b003500e60f5000850032004d
:101bc8009a0037009e4090002e40900080c0700020
:101bd8003e40900000c070008040780010c2b30002
:101be8000efe0700ce4090005e40900080c070005e
:101bf8006e40900080c070007e40900000c0700071
:101c08008040780000c2b30004fe07008ef89700f9
:101c180000c1b30001fe0700840037009e40900019
:101c28002e40900080c070003e40900000c07000c0
:101c38008040780030c2b300f8fd0700ce40900025
:101c48005e40900080c070006e40900080c07000c0
:101c58007e40900000c070008040780020c2b30031
:101c6800eefd07008ef8970000c1b300ebfd0700fa
:101c78006e0037009e4090002e40900080c070009b
:101c88003e40900000c070008040780050c2b30011
:101c9800e2fd0700ce4090005e40900080c07000da
:101ca8006e40900080c070007e40900000c07000c0
:101cb8008040780040c2b300d8fd07008ef8970036
:101cc80000c1b300d5fd0700580037009e409000c2
:101cd8002e40900080c070003e40900000c0700010
:101ce8008040780070c2b300ccfd0700ce40900061
:101cf8005e40900080c070006e40900080c0700010
:101d08007e40900000c070008040780060c2b30040
:101d1800c2fd07008ef8970000c1b300bffd0700a1
:101d2800420037009e4090002e40900080c0700016
:101d38003e40900000c070008040780090c2b30020
:101d4800b6fd0700ce4090005e40900080c0700055
:101d58006e40900080c070007e40900000c070000f
:101d68008040780080c2b300acfd07008ef8970071
:101d780000c1b300a9fd07002c0037009e40900069
:101d88002e40900080c070003e40900000c070005f
:101d980080407800b0c2b300a0fd0700ce4090009c
:101da8005e40900080c070006e40900080c070005f
:101db8007e40900000c0700080407800a0c2b30050
:101dc80096fd07008ef8970000c1b30093fd070049
:101dd800160037009e4090002e40900080c0700092
:101de8003e40900000c0700080407800d0c2b30030
:101df8008afd0700ce4090005e40900080c07000d1
:101e08006e40900080c070007e40900000c070005e
:101e180080407800c0c2b30080fd07008ef89700ac
:101e280000c1b3007dfd0700000000000080fa003b
:101e3800000006000200fa00a0c1b3003ffd070041
:101e4800004f7800b0c1b3003cfd07001047980070
:101e58001e4078000080fb00c700dd001e40900097
:101e68000080fb00008040000080fa0000000600af
:101e78000000fa0000d0bf000004e00005003200b6
:101e88008040eb00f0c0b30064fd07000070ef0075
:101e98000500370011c0b300f0c0b3005ffd0700b4
:101ea80010c0b30000f0b70000d82100c1422000e4
:101eb800430207000080fa00000006000400fa0050
:101ec8002047980031479800be4090002e4090006f
:101ed80052fd070000e62a00a10020003802070092
:101ee8002e40900015fd0700004f78003e409000fe
:101ef8009e40780080cf500002003a0010c0b30026
:101f0800010037000040eb000080fa0000000600e6
:101f18001400fa0013cea9000040eb0020479800f7
:101f280010c0b3003047980000c4b3004047980081
:101f380030c1b3005047980000c4b3006047980010
:101f480050c2b3007047980000c7b300004f980014
:101f580070c3b300104f980000c7b300204f98001b
:101f68008040eb0030c0b3002cfd07000e80e80075
:101f780092c0b30080007800f0c1b30049fd0700ab
:101f88006b00470092c0b30080007800f0c1b30036
:101f98008bfd07000040eb00104798000040eb0065
:101fa800004f78000c0037001e80fb000080e8001e
:101fb800ee4078001e80fb006b0040006e40780009
:101fc80080cf5000030032001e4090000040e8001f
:101fd800104798001e4fe8001e407800e84f500058
:101fe800f1ff36001e4090000004e00002003a00b5
:101ff80010c0b300010037000040eb000080fa0079
:10200800000006000200fa00000f780021e2a90093
:1020180021a2a9002182a90001118000f0cf2f0080
:10202800008060000011880020e2a90020c2a900f9
:1020380020a2a9002082a8002062a9000111800026
:1020480090ff2f0000806000001188002002a90086
:1020580023a2a90023e2a90023c2a8002342a900c1
:1020680011118000f0f32f0000806000101188002b
:1020780022a2a9001e0078008000eb000001be002b
:1020880000d82100c1422000bff907004c09dd003b
:102098004400de0000007100c488de000000780003
:1020a800401188002422ef002622ef0011c0b3005f
:1020b8000000eb001a0007000080fa00000006008c
:1020c8000200fa00000f78000080fa000000060005
:1020d8000400fa00000f7800110798001e0078002d
:1020e8000000e00003003a001e009000c5ff070052
:1020f800050037001e007800e10f500005003a0087
:102108001e009000eeff07001e007800cf000700b9
:1021180001003700000000000080fa0000000600ff
:102128000400fa00000f7800214798001e0078008c
:102138000000e00009003a002e4090000004e00092
:102148000300320021e2a8002342a8000b00370058
:1021580021e2a9002342a900080037002e40900080
:102168000004e0000300320031e2a8003342a80076
:102178000200370031e2a9003342a9000080fa00ca
:10218800000006000200fa00004f78001e80fb00e5
:1021980020118800000000001111800000102000ac
:1021a800008060000000e000fbff32000080fa00c1
:1021b800000006000200fa001011800064006000b0
:1021c8000000e0000400320030118000004f780069
:1021d8000040eb0011003700101180006200600021
:1021e8000000e0000b0032008040eb000000eb0034
:1021f800cbff0700c02b2000010020007001070062
:1022080011c0b3000000eb00c5ff07000040eb0061
:102218000200370030118000004078000080fa008a
:10222800000006000200fa00004f78001e40780007
:0c223800d4ff07000080fa000000060040
:020000040000fa
:1022440000100000020000008000000002100000e6
:10225400020000008000000004100000880000005c
:102264008200000001000000002a10002b102a0048
:10227400102a10002a102a00101a10000000000072
:10228400000000000000000000000000000000004a
:1022940000000000000000000002080001015200dc
:1022a40010531000521052001052100052104200ed
:1022b400100000000000000000000000000000000a
:1022c4000000000000000000000000000000020008
:1022d400080202007a107b00107a10007a107a004b
:1022e400107a10006a1000000000000000000000d6
:1022f40000000000000000000000000000000000da
:102304000000000004102c00105410000000000015
:102314000000000000000000000000009410000015
:1023240002000000800000008c1000000400000087
:102334008200000006000000000000009010000071
:10234400040000008000000096100000020000005d
:10235400820000000100000098100000020000004c
:082364008000000000000000f1
:020000040000fa
:10236c000200fa00000f78001e007800e10f500008
:10237c0002003a0010eea900040037001e0078009d
:10238c000000e00004003a0010eea800112ea80096
:10239c00110ea90001003700000000000080fa00b7
:1023ac00000006000200fa00000f78000080fa001e
:1023bc00000006000000fa0010aea80010cea90024
:1023cc002136800000f82f00808060005002200031
:1023dc0001007000203688002134800000fc2f00a2
:1023ec00008060000000a000203488000080fa000b
:1023fc00000006000000fa000080fa000000060051
:10240c000400fa00000f7800110798001e007800f5
:10241c000000e00003003a001e009000d0ff07000f
:10242c00070037001e007800e10f500003003a004f
:10243c001e009000dbff07000100370000000000c9
:10244c000080fa00000006000200fa00000f78007d
:10245c001e0078000000e00002003a00d5ff0700e3
:10246c00060037001e007800e10f500002003a0011
:10247c00e0ff070001003700000000000080fa00b8
:10248c00000006000200fa00000f780041e2a900eb
:10249c0041a2a90040c2a90042a2a8004342a9003f
:1024ac004382a9004362a9004322a9004302a90068
:1024bc0042e2a90042c2a8001112800030fe2f0097
:1024cc00008060008001b30010128800111280009f
:1024dc00c0ff2f00008060001012880045e2a900a8
:1024ec004402a9004822ef0041e2a8000080fa0053
:1024fc00000006000200fa00000f78000080fa00cd
:10250c00000006000400fa00000f78001107980084
:10251c009e0090001e007800b9ff07001e00780096
:10252c000000e00003003a001e009000d5ff0700f9
:10253c00070037001e007800e10f500003003a003e
:10254c001e009000ebff07000100370000000000a8
:10255c000080fa00000006000200fa00004f78002c
:10256c001e80fb004012880000000000001280005a
:10257c00610060000000e000fcff320040128000af
:10258c00004078000080fa00000006000000fa000d
:10259c0040a7a900113a8000f08f2f000080600046
:1025ac000080a000103a880042e7a90042c7a900a9
:1025bc004207a80000000000113a8000000027002c
:1025cc008080600000002100808f5000faff3a00ec
:1025dc004fe7a8004f87a900713a8000f00f2f0039
:1025ec0000806000703a88000080fa00000006004d
:1025fc000000fa0045e7a9004587a90045a7a900f6
:10260c0045c7a9004567a9004507a9004527a900aa
:10261c004547a90044c7a90044e7a9004407a900fd
:10262c004427a9004447a9004467a9004487a9008e
:10263c00313a800000e02f0080806000a004200070
:10264c0001007000303a88000080fa00000006009b
:10265c000000fa00002eef000e2eef00022eef000d
:10266c00102eef001e2eef00122eef000080fa004d
:10267c00000006000000fa00c028ef00c428ef009c
:10268c00c628ef00c1e8a9000080fa00000006008f
:10269c000200fa00004f78001e4078000004e000b1
:1026ac000700320011028000f0f12f000080600062
:1026bc00100288004460a900c3e8a8000500370098
:1026cc0011028000000e2000010070001002880032
:1026dc00c3e8a9000080fa00000006000200fa001e
:1026ec00004f78001e4078000004e0000900320022
:1026fc000168a90021428000f0ff28008080600062
:10270c000000250001007000204288002168a8000c
:10271c00010037002168a9000080fa0000000600c3
:10272c00809fbe000000fa00014080000080200065
:10273c00008060000000e000010032000168a90088
:10274c000080fa004f00be00004006000000fa00b6
:10275c000040eb00ceff0700a5ff07008bff070032
:10276c00bbff0700c3ff070010c0b300c8ff070082
:10277c00015822000000eb0054fe070011c0b3000a
:10278c000000eb0065fe0700ebfc070013eea90050
:10279c000080fa00000006000000fa00ebff0700c2
:1027ac00e08a280016f80700d8fd07000004e000b6
:0c27bc000100320013eea800ffff370000
:020000040000fa
:1027c800f03fb1000180b10006003500ee030900ba
:1027d80000000000403fb1000180b100fbff3d0058
:1027e8001000b000203fb000020035000080090052
:0827f8000000000000000600d3
:020000040000fa
:102800000400fa00000f7800110798009e00900065
:102810001e00780008f807000000e00002003a00ff
:1028200010c0b300010037000040eb000080fa0048
:04283000000006009e
:020000040000fa
:04afe000cfff00009f
:020000040000fa
:04afe400ffff00006b
:020000040000fa
:04afe8007fff0000e7
:020000040000fa
:04afec007bff0000e7
:020000040000fa
:04aff000f9ff000065
:020000040000fa
:04aff400ffff00005b
:00000001FF
