:020000040000fa
:080000000002040000000000f2
:020000040000fa
:0400080006030000eb
:020000040000fa
:04000c0006030000e7
:020000040000fa
:0400100006030000e3
:020000040000fa
:0400140006030000df
:020000040000fa
:0400180006030000db
:020000040000fa
:04001c0006030000d7
:020000040000fa
:0400200006030000d3
:020000040000fa
:0400240006030000cf
:020000040000fa
:0400280006030000cb
:020000040000fa
:04002c0006030000c7
:020000040000fa
:0400300006030000c3
:020000040000fa
:0400340006030000bf
:020000040000fa
:0400380006030000bb
:020000040000fa
:04003c0006030000b7
:020000040000fa
:0400400006030000b3
:020000040000fa
:0400440006030000af
:020000040000fa
:0400480006030000ab
:020000040000fa
:04004c0006030000a7
:020000040000fa
:0400500006030000a3
:020000040000fa
:04005400c8240000bc
:020000040000fa
:04005800060300009b
:020000040000fa
:04005c000603000097
:020000040000fa
:040060000603000093
:020000040000fa
:04006400060300008f
:020000040000fa
:04006800060300008b
:020000040000fa
:04006c000603000087
:020000040000fa
:040070000603000083
:020000040000fa
:04007400060300007f
:020000040000fa
:04007800de24000082
:020000040000fa
:04007c000603000077
:020000040000fa
:040080000603000073
:020000040000fa
:04008400060300006f
:020000040000fa
:04008800060300006b
:020000040000fa
:04008c000603000067
:020000040000fa
:040090000603000063
:020000040000fa
:04009400060300005f
:020000040000fa
:04009800060300005b
:020000040000fa
:04009c000603000057
:020000040000fa
:0400a0000603000053
:020000040000fa
:0400a400060300004f
:020000040000fa
:0400a800060300004b
:020000040000fa
:0400ac000603000047
:020000040000fa
:0400b0000603000043
:020000040000fa
:0400b400060300003f
:020000040000fa
:0400b800060300003b
:020000040000fa
:0400bc000603000037
:020000040000fa
:0400c0000603000033
:020000040000fa
:0400c400060300002f
:020000040000fa
:0400c800060300002b
:020000040000fa
:0400cc000603000027
:020000040000fa
:0400d0000603000023
:020000040000fa
:0400d400060300001f
:020000040000fa
:0400d800060300001b
:020000040000fa
:0400dc000603000017
:020000040000fa
:0400e0000603000013
:020000040000fa
:0400e400060300000f
:020000040000fa
:0400e800060300000b
:020000040000fa
:0400ec000603000007
:020000040000fa
:0400f0000603000003
:020000040000fa
:0400f40006030000ff
:020000040000fa
:0400f80006030000fb
:020000040000fa
:0400fc0006030000f7
:020000040000fa
:0401000006030000f2
:020000040000fa
:0401040006030000ee
:020000040000fa
:0401080006030000ea
:020000040000fa
:04010c0006030000e6
:020000040000fa
:0401100006030000e2
:020000040000fa
:0401140006030000de
:020000040000fa
:0401180006030000da
:020000040000fa
:04011c0006030000d6
:020000040000fa
:0401200006030000d2
:020000040000fa
:0401240006030000ce
:020000040000fa
:0401280006030000ca
:020000040000fa
:04012c0006030000c6
:020000040000fa
:0401300006030000c2
:020000040000fa
:0401340006030000be
:020000040000fa
:0401380006030000ba
:020000040000fa
:04013c0006030000b6
:020000040000fa
:0401400006030000b2
:020000040000fa
:0401440006030000ae
:020000040000fa
:0401480006030000aa
:020000040000fa
:04014c0006030000a6
:020000040000fa
:0401500006030000a2
:020000040000fa
:04015400060300009e
:020000040000fa
:04015800060300009a
:020000040000fa
:04015c000603000096
:020000040000fa
:040160000603000092
:020000040000fa
:04016400060300008e
:020000040000fa
:04016800060300008a
:020000040000fa
:04016c000603000086
:020000040000fa
:040170000603000082
:020000040000fa
:04017400060300007e
:020000040000fa
:04017800060300007a
:020000040000fa
:04017c000603000076
:020000040000fa
:040180000603000072
:020000040000fa
:04018400060300006e
:020000040000fa
:04018800060300006a
:020000040000fa
:04018c000603000066
:020000040000fa
:040190000603000062
:020000040000fa
:04019400060300005e
:020000040000fa
:04019800060300005a
:020000040000fa
:04019c000603000056
:020000040000fa
:0401a0000603000052
:020000040000fa
:0401a400060300004e
:020000040000fa
:0401a800060300004a
:020000040000fa
:0401ac000603000046
:020000040000fa
:0401b0000603000042
:020000040000fa
:0401b400060300003e
:020000040000fa
:0401b800060300003a
:020000040000fa
:0401bc000603000036
:020000040000fa
:0401c0000603000032
:020000040000fa
:0401c400060300002e
:020000040000fa
:0401c800060300002a
:020000040000fa
:0401cc000603000026
:020000040000fa
:0401d0000603000022
:020000040000fa
:0401d400060300001e
:020000040000fa
:0401d800060300001a
:020000040000fa
:0401dc000603000016
:020000040000fa
:0401e0000603000012
:020000040000fa
:0401e400060300000e
:020000040000fa
:0401e800060300000a
:020000040000fa
:0401ec000603000006
:020000040000fa
:0401f0000603000002
:020000040000fa
:0401f40006030000fe
:020000040000fa
:0401f80006030000fa
:020000040000fa
:0401fc0006030000f6
:020000040000fa
:0402000006030000f1
:020000040000fa
:0402040006030000ed
:020000040000fa
:0402080006030000e9
:020000040000fa
:04020c0006030000e5
:020000040000fa
:0402100006030000e1
:020000040000fa
:0402140006030000dd
:020000040000fa
:0402180006030000d9
:020000040000fa
:04021c0006030000d5
:020000040000fa
:0402200006030000d1
:020000040000fa
:0402240006030000cd
:020000040000fa
:0402280006030000c9
:020000040000fa
:04022c0006030000c5
:020000040000fa
:0402300006030000c1
:020000040000fa
:0402340006030000bd
:020000040000fa
:0402380006030000b9
:020000040000fa
:04023c0006030000b5
:020000040000fa
:0402400006030000b1
:020000040000fa
:0402440006030000ad
:020000040000fa
:0402480006030000a9
:020000040000fa
:04024c0006030000a5
:020000040000fa
:0402500006030000a1
:020000040000fa
:04025400060300009d
:020000040000fa
:040258000603000099
:020000040000fa
:04025c000603000095
:020000040000fa
:040260000603000091
:020000040000fa
:04026400060300008d
:020000040000fa
:040268000603000089
:020000040000fa
:04026c000603000085
:020000040000fa
:040270000603000081
:020000040000fa
:04027400060300007d
:020000040000fa
:040278000603000079
:020000040000fa
:04027c000603000075
:020000040000fa
:040280000603000071
:020000040000fa
:100400008f0d21000eff21000e018800000000006a
:10041000000020000000e000020032000001200087
:100420002002880014000700da0007000000e00046
:1004300003003a00202e22000100200002003700b5
:100440000000200001002000810f70000100320038
:100450000f000700000020000000e0000200320052
:100460000000020000000000f62002000000000072
:100470000040da000000fe00a00020000000e000c4
:1004800002003200002020009001880000000600d9
:10049000a1028800800478000000eb001f003700f4
:1004a000e284440054a0b4009905ba00e2844400f8
:1004b00054a0b4009906ba00e284440054a0b400e9
:1004c0000006eb00476fde00fd07b200ae018800ba
:1004d000636ce10003003a000ad801000000eb0061
:1004e0000e003700606ce10008003a00004deb00a0
:1004f0000a05e800020039003420ec000af0a000f0
:100500008b05e900f9ff3e00040037006168e10057
:10051000010032000086eb000b00070019c7ba008b
:100520001905ba000e04e00003003a000a00e000da
:10053000dbff3a0000000600fe07b200ae028800b2
:100540008a047800f5ff37000cd0a300e20f4d00bd
:100550001c00390089027800354dba000a05e80010
:10056000020039003420ec000af0a0008b05e900fd
:100570000f003200254dba000a05e80002003900dc
:100580003420ec000af0a0008b05e90008003200de
:100590000c00e0000600320015cdba000a05e800a4
:1005a000020039003420ec000af0a0008b05e900bd
:1005b0008984e80054a0b4000b00e000e2ff3a0098
:1005c000000006009902ba00055d78008b05e9007d
:1005d000f7ff3200c82ade00055d78008b05e900d0
:1005e000f3ff32000c00e000f1ff320019ddba0029
:1005f000eeff3700000000000000000000000000d7
:100600000000000000000000000000000040da00d0
:100610000000fe000a00fa0011002000b1bf9f0098
:10062000c0bf9f006a805700800807004fb897003e
:100630000080fa00000006000a00fa00e20f5000f5
:100640001f003e00a0868000e10f5000060032002f
:1006500080232000452320002323200004232000a2
:100660000000e00004003a00802220004522200023
:1006700023222000042220000600280094036300a7
:1006800002003a0007087800140a730013a8a300b8
:1006900001003a0013a0a000020078000500370016
:1006a0001388a300feff32003102fb00840a7800a9
:1006b0000000e9000000e000f9ff3a000800370000
:1006c00033002000b3bf9f00c0bf9f00d1bf9f0079
:1006d000e2bf9f006a805700560807006fb9970075
:1006e000020078000080fa00000006000a00fa000c
:1006f00051002000b1bf9f00c0bf9f006a8057001b
:100700004e0807005fb897000080fa00000006005e
:10071000889fbe0080047800b08680000000e00062
:1007200004003a000e0007000084eb000000e00027
:1007300008003500b88680000900e000050032009e
:1007400009004400060007000000e00001003d0031
:100750000084eb00080078004f04be000000060093
:10076000800078000100e00003003a000000200053
:10077000b0868800000005000080eb000200200029
:10078000828f500002003e00b18688000000eb001e
:10079000000006000000050003f0a200889fbe00d4
:1007a0008a9fbe008c1f7800080107000f013300ec
:1007b0006450e1004f0032006420e100520032003a
:1007c00003826c0007003b000905d0000306d0003f
:1007d000820f54000c065d00020039000200320056
:1007e00089017800030678008582550004003d00e9
:1007f0000003fd008103fd008502ea008b854200b5
:10080000840f720002003b0060001000e0801800be
:100810006011b8000005eb007a28e1000a003900f9
:1008200006007800c75ddd00f707b200878075001d
:100830002d003700828171000a0178006105600097
:100840008180d1000080d3008502e900f9ff3b00e0
:10085000060440008784480002003b006004140046
:10086000e0841c000988a300070032008a8171001f
:1008700082817100610164008904d1000884d30081
:100880008b05e800170037000978a30013003a0031
:100890000b00e000130034008b05e900080444005d
:1008a00089844c000a4474000978a3000d003a00c2
:1008b0000b00e000070034008b05e9000804440049
:1008c00089844c0001003a000b0020000978a30045
:1008d000f7ff32000001eb00020037008281710057
:1008e0000a0178007e0007000cf0a70001f0a000cc
:1008f000c70037006420e10002003a00838f6c00db
:10090000c70033000801be000200be00c00037006f
:10091000889fbe008a9fbe008c1f7800ab00070036
:10092000b200330003866c006450e1002e003200f8
:100930006420e100330032006150e1002f003200fa
:100940006120e1003100320085855500eb07b000e1
:1009500009002000080420000500370008044400b6
:1009600089844c000a0031000603430087834b0052
:100970000001530081815b00f8ff33000203be00d9
:100980000800a0000804440089844c00f6ff3900e8
:10099000c639dd008301730001003200130020001e
:1009a0008904d1000884d3000998a300050032000f
:1009b0000800a7000300a0008904d1000884d30028
:1009c0008b05e8008904d1000884d3000001eb0006
:1009d0000281d2004200070001f0a1000cf0a70044
:1009e00001f0a0008a0037006420e1008c00320092
:1009f0000801be000200be00f7ff37006120e100e1
:100a0000870032006000b800f3ff370000002000cc
:100a100001f82700f0ff3700839f68000100e00025
:100a200002003d0060001000e08018000300e000bc
:100a300002003d0060011100e08119007b00070009
:100a40004f00e00002003b0060001000e080180052
:100a5000000006000001be00470007000470a70068
:100a600003f0a1006509b100160032000d00350049
:100a70006828e10006003500f0ff2f00f1ff270095
:100a80000300e00013003b00010028000000050007
:100a900000004000818048008502e900fcff3a0028
:100aa00008003700f88f420002003c008000eb0095
:100ab000000005008100d1000080d3008502e8001d
:100ac000fcff3a000300e00002003b006000100061
:100ad000e0801800000006006011b80063003700d5
:100ae00081002000618055000b003d000b002000bc
:100af00061fe2f000100e1001d00340082817100c1
:100b0000610164008904d1000884d3000000e8007a
:100b1000faff3a00710020006100640003007000d9
:100b2000020060000900320061044400e0844c00cf
:100b30000988a500050032008b05e8006808e1007f
:100b400002003a008904d1000884d300f20f20008b
:100b50000258e10005003d00c75ddd00f907b20065
:100b60008980750008007800000006000bf8270057
:100b70008b00780000000500c70ade00f107b20014
:100b8000f50fb20008003200e1cf4200020032004f
:100b90000170a00024000500810f700001003200e8
:100ba0000408050044000500810f700002003a00af
:100bb000140005008502e9000000400081c04800e3
:100bc000fcff3b000170a000240005000004be00f3
:100bd000e9ff07000003be000405be000200be00de
:100be000e5ff0700844f7500000006000200be000c
:100bf0006450e100050036006420e1000200360088
:100c00000968a30001003a000800be000160a000ce
:100c10004f0678004f05be004f04be0000000600de
:100c2000f0ff2f00f1ff2700f9ff37006022b80026
:100c3000060220000000d0008180d2000482d20091
:100c40008582d2000000a0000202520083825a0076
:100c5000030031000202420083824a000000a1002a
:100c60000603e900f3ff3a0000000600889fbe007b
:100c70008a9fbe000082700004027100048271002d
:100c8000260032000004be000200be006011b80061
:100c90006b092000950220000182cf000a00390074
:100ca0000541b1000082cf00070039000541b100c5
:100cb0000982cf00040039000541b1000882cf004d
:100cc000010039000541b100054252001200320016
:100cd0000a003b0082817100610164008100d10043
:100ce0000080d3008984d3000884d3008b05e800fa
:100cf0000442e800f7ff3a00070037000804440008
:100d000089844c0000004800818048008b05e90080
:100d10000442e900f9ff3a0071ff07004f05be00e9
:100d20004f04be0000000600e10221003f00070062
:100d3000800078000080eb000100e0000400350036
:100d4000e1022100a0002000120007004f80de0019
:100d500000000600020037000204e0000b00320031
:100d6000810178000002780030417800b14f5100d5
:100d7000f9ff32001000200014427800934f520017
:100d8000030031000080eb00000006000000eb00d3
:100d900000000600889fbe008a1f78000004be0085
:100da000c900900069009000808f50000500390054
:100db000090078008e0007008080eb000000e00052
:100dc0001600350008457800490090000858780062
:100dd000c00498001900780000b8a30004003a008d
:100de00000a8a30007003200ea4f540005003a00b3
:100df00009007800040307008080eb000000e00099
:100e000006003a0000c02000190060000200320015
:100e100049009000e00498008a80fb0001007800ff
:100e20004f0578004f04be0000000600889fbe00fa
:100e30008a9fbe008c1f780080047800010478002f
:100e40002f003700c800900068009000808f50008d
:100e50000400390008007800650007000000e00089
:100e60003a00350000402000180060000a003200ff
:100e7000a10020000900780050000700000678005b
:100e80000c00e00004003200618514000a054600f1
:100e9000cfd5de0004003700090078003e000700cf
:100ea0000005be000006eb004800900068019000bd
:100eb00000015100cf91de008a0f51008b8f590045
:100ec000020031000205be000006eb000a01be0070
:100ed0008900780022000700480090000a004000c6
:100ee000400498000c00e000040032000800780084
:100ef000c50207000000e00014003a008a844400a4
:100f00001904e000cfff3a000080200018006000c4
:100f10000600320008007800bb020700800078005d
:100f20000080eb000100e00009003a0001c0200051
:100f3000988060000000eb0005003200480090003f
:100f4000600498000000eb00010037000080eb0017
:100f50004f0678004f05be004f04be00000006009b
:100f60000202be008001eb0007003700611bb800e1
:100f700006014000068340001649780061025200d5
:100f8000e0825a008301e800e00f5200e08f5a002f
:100f9000f6ff3a0000000600800078000000eb0039
:100fa000008140000000e8001204e000fcff3a006d
:100fb00001005100cf80de00000006006011b80083
:100fc0006103b80006034100e0834b00164278003d
:100fd000814f520001003a00860178000201e800ca
:100fe0000404e000f6ff3a00030078000000060069
:100ff000889fbe008a1f780000047800c800900017
:10100000680190000000eb00828f50003d00390025
:10101000180078002200290002016000e20f510050
:1010200007003200012024000000e00001003d0024
:1010300001202000008c70000080eb0031003700a0
:101040000200260002006000820f500009003a00f2
:1010500038009000808f50000600390008007800aa
:1010600069020700800078000080eb000100e000ca
:1010700024003a001805780000c020000000650038
:1010800019003a00a8049000600220000800400007
:10109000808f540014003a0000202000010020003e
:1010a0008a030700200498000000e00005003a00d1
:1010b00029049800490498008904e800390498003c
:1010c000080037000a60a0000a0c7800400498006d
:1010d000012020008080400031049800400c9800de
:1010e000500c9800f201070028009000500498006e
:1010f000380090006004980000002600180c700072
:101100000000eb004f0578004f04be000000060011
:10111000881f78008a9fbe000004780001007800d4
:101120000205be00880078000202be001200200006
:1011300003002000bf0207008a0f50008b8f580069
:10114000010032000004eb00080078004f05be00eb
:101150004f047800000006000000fa00e881570004
:101160004fb99700e10221008088200002000700ab
:101170000080fa00000006006200fa00889fbe00ae
:101180008a9fbe0000057800810478000204780080
:101190008300780060f92f000f0040006e02070006
:1011a0008a979f0099979f000000eb00a09f9f00e7
:1011b0001885fb008a04fb000a05ea004f55de0093
:1011c00050022000808f54000e003200e10f5500c5
:1011d0000c003a0012002000030020008800780074
:1011e0001f9097000f9297000400010090979f00b6
:1011f0000000e000970032002f9897000000e80000
:10120000a09f9f000a04440050022000808f5400d9
:10121000040032000900e000e5ff3a002f98970033
:101220008d0037000000eb00809f9f00f0979f002b
:10123000e0979f00d0979f00c0979f00b0979f00b6
:10124000c09f9f000005eb0008003700410c210003
:10125000810050008100d000820b2100828040007c
:101260004f98970011007000c09f9f008a044400af
:10127000994578008b00fb00400c21001d020700ff
:101280000a05e8000000e000f0ff3a00a1c2b30048
:1012900081cf55000e003a00bf8897000180e90019
:1012a000b08f9f0010007800b09f9f000000e0000a
:1012b00005003d000000ea00b09f9f004f98970096
:1012c0000020a000c09f9f000904e8000f00370025
:1012d000b09f9f006000b80006003700f3ff2700b2
:1012e000830f500002003200ea00b9000000410004
:1012f0008100e800018444001801fb000203b100f2
:10130000e90f5100f5ff3600b09f9f00e0c2b30027
:10131000984f1000030032000080eb00909f9f0068
:101320002000370008007800a1c2b300d0cf100021
:1013300007003a003f8997008280e900b18f9f0043
:1013400091007800919f9f000004e800150037008d
:101350000000eb00909f9f008000eb00060037002c
:10136000f2ff2700820f500002003200ea00b900ad
:10137000000042008100e8000801e8008001eb0065
:1013800002814000e0814900124278000402fb0023
:101390000403b100e90f5200f1ff3600909f9f0057
:1013a00002047800984478008900fb00000b2100bb
:1013b000d00107000000e000020032000804e8004d
:1013c000010037008044eb00a97f9f0080c6b30076
:1013d00080cf540004003a0098cf14000a003a006d
:1013e0006640500006003700c0c6b30080cf5400ee
:1013f00005003a0098cf140003003a006540400011
:10140000a07f9f000804e8001801fb00c3fb2f0029
:101410008f81410061f92f008f80400080f92f00fb
:101420000f004000100007000000e00009003a0033
:10143000c1fb2f008f80400080f92f000f0040007b
:101440003b0407000000e000020035000804e8004b
:1014500057ff37000080eb004f05be004f04be0071
:101460000080fa0000000600881f7800e4c6b30080
:10147000844f5100be00320010003c006b4252000d
:10148000844f51001800320005003c0054c2b300e4
:10149000844f5100f600320084c5b3000f003700be
:1014a00044c6b300844f510015003200654242002b
:1014b000844f5100f1003a001100370004c7b30017
:1014c000844f5100dd003200570035006542420074
:1014d000844f51005400320063424200844f510057
:1014e000e6003a00500037001181e90082087800d8
:1014f000f00090008181410092497800e5003700ba
:1015000020629000c5c6b300854f520007003a0024
:101510009102780064825200840878001402be00b0
:101520004fabde00860378001100370015c7b3000b
:10153000854f520003003200a5c6b300854f52000c
:1015400006003a0091027800688252008408780010
:101550005403be004402be00050037001182e900ba
:101560008408780014027800cfa2de00612bb90055
:101570000498be000690be00a060900088c6b3002c
:1015800088cf50000d00320028c6b30088cf50002d
:1015900004003a000402fb00cfa2de00612bb90078
:1015a0000800370048c7b30088cf5000030032005e
:1015b0006644440088cf500004003a00cfa2de0009
:1015c000612bb9000498be000690be003002be0038
:1015d0002003be00f0009000e00f5200e08f5a00a0
:1015e000e00f5b00e08f5b0003003d0001824100e3
:1015f000d5c2b3000a003700001290000418a300ff
:101600000300320001824100b5c2b300040037007c
:101610000408a300510032000182410005c2b3005a
:10162000054a78004b00370020629000c5c6b30021
:10163000854f520006003a00910278006482520001
:10164000840878001402be006033b800110037002f
:1016500015c7b300854f520003003200a5c6b30082
:10166000854f520006003a009102780068825200cd
:10167000840878005403be004402be000500370011
:101680001182e90084087800140278008002eb00df
:101690006033b8000498be000690be00a0609000c1
:1016a00088c6b30088cf500003003a008002eb00e8
:1016b0006033b8000e00370028c6b30088cf500052
:1016c00004003a000482fb008002eb006033b800a3
:1016d0000700370048c7b30088cf5000030032002e
:1016e0006644440088cf500003003a006033b800dd
:1016f0000498be000690be00801090000138a30040
:10170000160032003002be002003be00e00f52007f
:10171000e08f5a00e00f5b00e08f5b000f003200ab
:1017200081c7b300814f51000300320081c5b3006f
:10173000814f510009003a00f00090000182410001
:1017400005c3b300054a78008100e800018241002a
:10175000024a78008100e80071009800f0009000d3
:101760008181410063009800824078003e0037008c
:10177000a0619000c4c6b3001181e90084cf51007c
:10178000220032000a003c006442520084cf510023
:101790002500320004c2e80084cf5100130032005b
:1017a0006842520084cf51001e003a000a00370000
:1017b00044c7b30084cf51001b0032006642420090
:1017c00084cf5100110032006942520084cf510091
:1017d00014003a0005003700820878009200780073
:1017e00040589000804878002c003700820878002c
:1017f00092007800600a9000cfa2de00612bb90051
:101800008498be008690be002400370082087800cd
:101810009200780060099000cf91de008288be00bf
:101820001e0037001181e9008208780092007800dc
:101830006008900080087800180037001181e900e6
:101840008208780012027800cfa2de00612bb90076
:101850000498be000690be00f00090008181410017
:101860006300980081c7b300ed0107000b0037004b
:10187000f00090008181410005003700f0009000e9
:10188000818141000204e00001003a0052c2b3002d
:10189000824978008100e800710098000000eb00a8
:1018a0004f04780000000600e0ce20009d003700c5
:1018b000881f7800280d21001804e00003003a007a
:1018c000f9ff070020c0b300004c78004f047800f7
:1018d00000000600889fbe00000478000800780021
:1018e0004900070080047800000420001800600010
:1018f0000200320028009000990007000000eb0071
:1019000020049800384090000004e00005003500f5
:101910000000fb003ffb07000000e0000100320078
:101920008084eb00181090000000e00008003200f6
:101930006efb07000000e000010032008084eb0035
:1019400018109000860007000000eb0010149800ab
:1019500000082000180060000f003200c1072100bd
:101960000000eb00d10f140005003a000000400019
:10197000e1072100008040000008eb000300370071
:101980000000e800e80f5000f6ff3a000800780079
:10199000730007000e003700000c780000c0eb0059
:1019a00030449800600220000800400020049800a5
:1019b0004004980050049800400c9800600498007f
:1019c000500c98007004980076004400000c9800b9
:1019d000090078004f04be0000000600889fbe008a
:1019e000e8082100f0045400480078000000e000fe
:1019f00001003200b7ff0700890f5400faff3a00d8
:101a00004f04be0000000600889fbe008a1f7800b9
:101a1000000478000800e0000d003a00c80721002b
:101a2000700544008004eb00580078000000e000de
:101a300004003200f4ff07000000e00001003d0058
:101a40008084eb008a0f5400f7ff3a00250037002e
:101a500000002200180060008004eb00210032002a
:101a6000a80490000f003700090151003840900091
:101a70000000fb0089007800effa07000000e0009a
:101a800007003c0028009000400498006004980083
:101a9000500c98001890a0008084eb0011003700d3
:101aa0008084440048019000828f5400eeff39008a
:101ab00028009000400498009800780002c02000a0
:101ac0000281600001003a003800900001e8a300a4
:101ad000020032006004980001003700500c9800aa
:101ae0008004eb00090078004f0578004f04be0029
:101af00000000600020037000304e0000600320088
:101b00000001780002007800b041780081cf5100d8
:101b1000f9ff3a00010037000001eb0002007800f5
:101b200000000600010020000100e0000900320072
:101b3000010080000100e000060032008100e900a1
:101b40000100880081804000020080008100410087
:101b500080087800000006000108780000000600f8
:101b60000000e000320032004002be00e50f5200eb
:101b7000e08f5a002e0036000408a3002c003a0023
:101b8000818680000100e00002003200810f5000d9
:101b9000040031002100980080868800170037007b
:101ba00082007800210190000200e0000200320073
:101bb000800f5100faff39001103be0086814000fa
:101bc000830f50001a003900808f510004003a0042
:101bd0008418430085904b0001007800070037000f
:101be0000200e0000300320004024000840f5100b4
:101bf0000f00390022009800a0009800a00090007b
:101c00000100e0000a00320010014000828f500005
:101c100007003a00e20c21000009eb001001be00b1
:101c20003118410021904900a10090002100980046
:101c300000000600ea874700889fbe008a9fbe001a
:101c40008c9fbe008e1f7800000678000204be0044
:101c50000405be00010778000400be00fc02070076
:101c6000d0b79f00e1b79f00e00f5000e08f580011
:101c700052003200e00f5400e08f5c005000320050
:101c8000fcb79f000006be00ce0090006e009000e2
:101c9000808f5000040039000e007800d4fc07004b
:101ca0000000e00033003500004020001e0060000e
:101cb0000c0032000c01be00a10020007fb0970094
:101cc000b9000700000278000400e00008003200bc
:101cd000ffb19700618511000a054200cfd5de00f3
:101ce000040037000c05be000002eb0001003700c5
:101cf0000c05be004e0090006e01900000015100e6
:101d0000cf91de008a0f51008b8f59000200310005
:101d10000205be000002eb000a01be00ffb0970002
:101d200084bf9f008efc07000a0656008b865e006b
:101d30004e0090000a004000400798000fba97003c
:101d40000400e000040032000e0078002eff0700bf
:101d50000000e00007003a00e00f5600e08f5e0050
:101d6000040032007fb097000a004000f0b79f00e7
:101d7000c5ff3700008020001e0060000200320016
:101d80000e00780020ff070000c020001e00600049
:101d900002003200ce009000610798005fb197000a
:101da000efb197000c0051008d8059000801be0072
:101db0009efb07000005be00010037006055b8001b
:101dc0000a00be004f0778004f06be004f05be0058
:101dd0004f04be00af00b10000000600889fbe00a7
:101de0008a9fbe000004be00718680000100e000f2
:101df00002003200010078000f0037008186800069
:101e0000000d210005003700b10f5400a18f5c00c8
:101e10002b00360064804000a10090000100e0002b
:101e2000f9ff3a0012003700b20f5400a28f5c0095
:101e30002300360064004100100178000200e00039
:101e4000f9ff3a001101780081868000000d210021
:101e500005003700b10f5400a18f5c001800360058
:101e600064804000a1009000828f5000f9ff3a008a
:101e70005a8680006b868000880f5500898f5d0030
:101e8000010031000805be000a00be00580007002e
:101e90000000e00006003a00880f5500898f5d00c1
:101ea000060032008b05d1000a85d300f2ff37000f
:101eb0000a98be002aff0700cbff37000000eb00a6
:101ec0004f05be004f04be0000000600889fbe0004
:101ed0000002be0065004000e0804800000378007a
:101ee0000600a10081017800060178000204be000e
:101ef0008000eb00840f5400858f5c0027003600c3
:101f0000e50f5400e08f5c0002003e0068002000f6
:101f1000090020000800be00b0ff07008000eb00b1
:101f20000000e0001d00320090007800a4ff2f00a8
:101f3000f5ff2f0031014200a1814a00880f5100b6
:101f4000898f590003003100a10290000508780034
:101f5000080037000881400002087800a1019000c5
:101f600023019800100178003119140021911c0000
:101f70008888be00100178000000eb000200e0003d
:101f800004003200a20190000300e00001003200d2
:101f90006400410070868800e48040000100780001
:101fa0004f04be00000006000202be008001eb00ec
:101fb000050037008301e80092cf10000a003200cc
:101fc00061025200e0825a006103b80006834100ba
:101fd000e0834b0006017800e00f5200e08f5a00ca
:101fe000f4ff3a000000050006007800000006003b
:101ff0000001be008000eb000200e000060034009b
:1020000002007800c2f9070080007800e18f4000ec
:1020100001003a008000eb0001007800000006009b
:10202000fc874700889fbe008a9fbe008c9fbe0031
:102030008e1f78000006780080c5b30080cf500066
:102040000a0032007740400080cf50000a00320082
:102050006940400080cf50000b003200f0092100a1
:1020600080bf9f00ae0020000a003700e208210078
:1020700082bf9f0006003700f309210083bf9f0045
:102080008e00200003003700f409210084bf9f0068
:102090000e0120003c02be002c03be000605be005f
:1020a0000404be0040c6b30080cf500003003200dd
:1020b0006540400080cf50000b003a00e00f520016
:1020c000e08f5a00e00f5b00e08f5b0006003d00f0
:1020d0006000b8006011b800040450008584580006
:1020e0000605590087855900e80f570004003200a3
:1020f00040002000f00f570046003a000100370072
:1021000030002000e00f5400e08f5c00e00f5d0025
:10211000e08f5d0004003a00dc0890008d01200093
:102120000100e0000d0032000e01e900cf91de0059
:102130000802be008200640003826200840278000c
:10214000010278000401be008fba970002814200ac
:1021500012417800f2ef9f007d012000800078009e
:102160008100e900050033008b05d1000a85d3000a
:102170008984d3000884d300f9ff3700089ebe008d
:102180000a96be00190037008d06e9000e01e9002d
:10219000cf91de000404be0082006200038464006c
:1021a00088047800010478000801be008fb8970009
:1021b000028140009240780083fd2f008d81410014
:1021c00081f77900000178000201e9000500330081
:1021d0008783d1000683d3008582d3000482d30095
:1021e000f9ff3700049ebe000696be003c02be000a
:1021f0002c03be00e00f5200e08f5a00e00f5b009e
:10220000e08f5b00910034000d00e000deff3c0039
:102210008e0037002c60900081c6b300814f5000c3
:102220000b00320006003c000004e0000800320011
:10223000e6c05000814f500052003a0004003700c1
:10224000c1c6b300814f50004e003a002300370052
:102250000800e00004003a005c0890008d012000b6
:102260000000e00007003200110009000e84d800d1
:102270008fb997000180410010407800f0ef9f0077
:102280007d012000110009000e84d8000b003700ea
:10229000110009000e04d8008d06e9008e81b900f6
:1022a000020454008fb897000884400098417800d9
:1022b00082fd2f000d014100837779000004780032
:1022c0000800e000020032000d00e000f0ff3c00da
:1022d000cfc4de00614db90027003700e00f540085
:1022e000e08f5c0004003a005c0890008d01200043
:1022f0000000e000080032006171b9000800be0073
:10230000500107000fba970080004200914078000a
:10231000f1ef9f007d0120006171b9000800be004f
:1023200042fa07000c0037006171b9000800be00d6
:10233000b9f907008d06e90080f1b90002045400e4
:102340008fba9700088442009841780082fd2f00e0
:102350000d014100837779000004be00e00f5000ba
:10236000e08f5800020032000d00e000eeff3c005c
:102370004fcdde008a057800089ebe000a96be009a
:1023800032003700e00f5400e08f5c00e00f5d008a
:10239000e08f5d0004003a005c0890008d01200091
:1023a0000000e0000a0032006172b900612bb90040
:1023b0000800be000a01be00cb0107000fba97005b
:1023c0008000420091407800f1ef9f007d012000e5
:1023d0006172b900612bb9000800be000a01be009d
:1023e000ba0107000e0037006172b900612bb90015
:1023f0000800be000a01be00bf0107008d06e9000b
:1024000080f2b900040454008fba97000884420097
:102410009842780084fd2f000d02420085777a00f3
:10242000009ebe000296be003c04be002c05be000d
:10243000e00f5400e08f5c00e00f5d00e08f5d0076
:10244000020034000d00e000e7ff3c00e80f5700f9
:1024500010003a000c1090000038a3000d0032006c
:10246000f78f560006003e0080fd2f000d00400053
:10247000ef40780000c3b30080cf50000500320069
:1024800002c3b30071fd2f008d8040008d06e9006e
:1024900082f77800f8801600110e98006c0090000a
:1024a0006109b90084fd2f000f0242008d00420037
:1024b000abfa07001c089000dc089000810f500068
:1024c00006003d0000805000000e98000c109000a7
:1024d0000040a100001698000f0037000100e00046
:1024e0000d003d008c109000f4806000f08f5000d3
:1024f00009003a007c099000fc0090008100510026
:102500000c09900082805000008050004240a900d9
:1025100001003400000e98004f0778004f06be00ff
:102520004f05be004f04be00cf01b1000000060001
:102530000400fa00889fbe008a9fbe008c1f7800ae
:102540000004780001067800f80d900078009000f3
:102550008085550008089000808555001808900077
:102560008085550028089000808555003808900027
:1025700080855500480890008085550000022200a3
:1025800090bf9f0000032300a0bf9f000810900091
:102590000028a30015003a000b00e00013003400ef
:1025a0000b0578008a047800e20f55000100360020
:1025b000290020006149b90048029000ee805700d0
:1025c0005800900004000100500498000000e00052
:1025d0008f0032006808900009004000600c9800ed
:1025e000090555004240a900eeff3c00780090002c
:1025f0000000e0000d0034006101b90048029000c5
:102600008c007800580090000400010050049800ed
:102610008080eb000000e0007e003200e8089000bf
:102620007800900000804000600c9800880c9000ba
:102630000900e0001100340009057800e28f540021
:10264000010036002a0020006151b90048029000c4
:10265000ec805700580090000400010050049800de
:102660000000e0006a003200680890000a004000a4
:10267000600c98008a845400edff37001808900021
:102680000000e0000d0034006101b9004802900034
:10269000e8009000580090000400010050049800e9
:1026a0008080eb000000e0005a003200e808900053
:1026b0001808900000804000600c9800a80c900062
:1026c0000900e0001100340009057800e28f540091
:1026d000010036002a0020006151b9004802900034
:1026e000ec8057005800900004000100500498004e
:1026f0000000e00046003200680890000a00400038
:10270000600c98008a845400edff37003808900070
:102710000000e0000f0034006101b90018089000cb
:10272000e80090008080400048029000580090002f
:1027300004000100500498008080eb000000e000dd
:1027400034003200e8089000380890000080400013
:10275000600c9800c80c90000900e00011003400e3
:1027600009057800e28f5400010036002a0020009d
:102770006151b90048029000ec8057005800900069
:1027800004000100500498000000e0002000320026
:10279000680890000a004000600c98008a84540089
:1027a000edff3700081090008000eb000028a30028
:1027b000180032000b00e000160034008b04780093
:1027c00009057800e28f5400010036002a0020003d
:1027d0006151b90048029000ee8057005800900007
:1027e00004000100500498000000e00008003200de
:1027f000680890000a004000600c98008a84540029
:102800004240a900eeff3c008000eb0001003700d1
:102810008080eb00010078004f0678004f05be0075
:102820004f04be000080fa000000060000c0da007d
:102830000000060000c0da000000060000c0da0058
:1028400000000600f9f807000400be0000000600c2
:10285000020ab900001bb9000200b8008100420062
:102860008100430000000600889fbe008a9fbe00d2
:1028700030044200b0844a0030054b0090854b0084
:102880006000b1000898be000a90be000440e1005c
:1028900005c8e10006d0e10007d8e10002003100e0
:1028a000680040001008e8004f05be004f04be005d
:1028b00000000600889fbe008a9fbe003004be0054
:1028c0002005be000418540005985c0006185d0041
:1028d00007985d00110020000440e10005c8e100f8
:1028e00006d0e10007d8e100010039008000eb00cc
:1028f000108810004f05be004f04be000000060007
:102900001200fa00889fbe008a9fbe008c9fbe0006
:10291000e0b79f00f1b79f0082bf9f0093bf9f0069
:102920000605be000404be000000eb00d0b79f0007
:10293000c0b79f00b0b79f00a0b79f0090b79f009f
:102940000006eb005fb19700cfb097008201410015
:102950003fb097000200e00004003d003700070090
:102960007e805700c0ff07000300370033000700d8
:102970007e805700cfff0700dfb697000d00e00014
:102980000c0035006fb29700ffb297000fbb9700a5
:102990009fbb970010002000010020006011b800cc
:1029a000000272008182720002037300838373004d
:1029b0001b0007000c06e80001042000810f5600f0
:1029c000e0ff3a000d00e00004003d000802be00f8
:1029d0000a03be007e805700a3ff07005fa8970090
:1029e0000000e00005003a001fb29700afb2970068
:1029f0003fb39700cfb39700090007006fb097006f
:102a0000ffb097000fb997009fb997004f06be001f
:102a10004f05be004f04be000080fa000000060013
:102a20000100070000000600a4b79f00b5b79f0093
:102a3000c6b79f00d7b79f00000006004f09de0011
:102a400082817100b3b79f004f01de00818040009a
:102a500082807000a1b79f008fb097004f09de0001
:102a6000000040000200700090b79f007fa8970010
:102a70004f01de00818040008280700081b79f009e
:102a80000d0007004f3ade00000040000400700017
:102a9000f0af9f00080007000402420085824a0050
:102aa00006034b0087834b00dfff07000802be00d0
:102ab0000a03be00000006002fb29700bfb29700c5
:102ac0004fb39700dfb3970000000600881f78001f
:102ad00018002000881f780089ff07008f87e90011
:102ae0004f04780000000600801feb0084ff070001
:102af0008f87e90000000600889fbe008a9fbe0005
:102b0000e00f5000e08f5800e00f5900e08f5900af
:102b10000c003d006044b8006055b800000054004f
:102b200081805c0002015d0083815d00180020004f
:102b30001500070008003d00180007000004eb0026
:102b4000050037000004eb000f00070002003d0005
:102b50001200070018002000dcff07000800e0005a
:102b6000060032006022b8006033b8000000520056
:102b700081805a0002015b0083815b004f05be002b
:102b80004f04be0000000600e00f5200e08f5a0024
:102b9000e00f5b00e08f5b00000006006044b800bf
:102ba0006055b8000402540085825c0006035d0095
:102bb00087835d0000000600889fbe008a9fbe00dc
:102bc0008c1f7800e00f5000e08f5800e00f590094
:102bd000e08f59000d003d006044b8006055b8001a
:102be0000000540081805c0002015d0083815d0073
:102bf0001c0020000820e10009a8e1000ab0e10063
:102c00000bb8e1000d003d00080037000006eb00a6
:102c1000e00f5200e08f5a00e00f5b00e08f5b0096
:102c200006003d006044b8006055b800040254003e
:102c300085825c0006035d0087835d00aaff0700b4
:102c40000c00e000060032006022b8006033b800db
:102c50000000520081805a0002015b0083815b000a
:102c60004f0678004f05be004f04be00000006006e
:020000040000fa
:102c7000696e00006920000000250000642000004b
:042c80000a00000046
:020000040000fa
:102c84000400fa00000f7800110798001e40780035
:102c94000080fb004700dd00804078001e4090006b
:102ca4000080fb004500dd00004078000046b200d3
:102cb40080c040002e4090006f40600000c0400083
:102cc4000080fa00000006000800fa000002780004
:102cd400414798005247980063479800ce409000bf
:102ce400014f7800de40900011479800ee409000bc
:102cf400214798000e0078008400780090487800fe
:102d04008100e8000000e800904878008100e800b5
:102d14000000e800904878008100e8000000e80026
:102d2400040078000080fa00000006000400fa00a5
:102d34002147980032479800ae409000014f780038
:102d4400be409000e7c06000114798001e4878001c
:102d54009e409000114098000080fa000000060098
:102d64000c00fa00881f780000047800414798009e
:102d740052479800634798007447980068004700da
:102d8400fe4190006e419000de409000ceff0700af
:102d9400680047008e007800904878008100e800c1
:102da4000000e800904878008100e8000000e80096
:102db400904878008100e8000000e800ce409000d0
:102dc40031479800030009003e5c78004800b100d8
:102dd4004e00b100080078004f0478000080fa002b
:102de400000006000800fa00100798002107980068
:102df400320798000040eb00004f7800134ea90002
:102e04002e4090002d0707003e4090002b0707003e
:102e14002e009000be00900099ff070027070700ce
:102e24007e40900025070700004f7800134ea8004d
:102e34001e4078000080fa00000006000000fa003e
:102e4400114ea900134ea800110020000000eb0051
:102e5400050707000080fa00000006001000fa00d1
:102e6400004f98000040eb00004f78000e4890009f
:102e74000080fb004400de0000407800e740600072
:102e84006a0047000141780001c1b300a7ff0700b1
:102e9400ae489000114798003e49900022479800a0
:102ea4000e489000ef4060006c004700014278003b
:102eb4008041eb0012c0b3009e407800a8ff0700d9
:102ec400e30047006c01470003000900b258780092
:102ed4001e4090000080fb00ae4090008180fb000b
:102ee400c808dd00810070000000eb0001007800dc
:102ef400be4090008180fb004e4190000281fb00a7
:102f04004811dd00028170008000eb00820078002f
:102f14005e4190000281fb00ee4190008381fb0042
:102f2400c819dd00830171000001eb000301780082
:102f3400acff07000080fa00000006000e00fa0053
:102f440060479800714798006e4090000080fb0035
:102f54004400de0000407800e7406000680047005d
:102f64000141780001c1b30070ff07008e48900052
:102f7400014f78001e499000124798006e4090005f
:102f8400ef4060006a004700014278008041eb0096
:102f94000041eb00fe40900071ff0700e200470093
:102fa4006a01470003000900b25878001e00780047
:102fb4009e0090002e0190008aff07000080fa0016
:102fc400000006001400fa00004f98005107980012
:102fd400424f98000e4890000080fb004400de0041
:102fe40000407800e74060006e004700014178002f
:102ff40001c1b3004dff0700ee489000114798004f
:103004007e499000224798000e4890006f4160006e
:103014005e00900090407800700047000242780003
:1030240033c0b3000041eb004dff0700e30047004d
:103034007001470003000900b2587800134ea9003c
:103044001e4090009d0607002e4090009b0607003e
:103054003e4090000080fb00ce4090008180fb0049
:10306400c808dd00810070000000eb00010078005a
:10307400de4090008181fb008000eb00f20f200015
:103084000281610003f02f008380600081007100e1
:10309400fbfe0700890607006e40900087060700c4
:1030a40010c0b300004f7800060037001e80fb00fc
:1030b400de00900000804000104078007f0607008a
:1030c4001e4fe8004e4890009e40780080cf50008c
:1030d400f6ff3900134ea8000080fa000000060035
:1030e4001400fa00881f7800004f980051079800d8
:1030f400424f98000e4890000080fb004400de0020
:1031040000407800e74060006e004700014178000d
:1031140001c1b30005ff0700ee4890001147980075
:103124007e499000224798000e4890006f4160004d
:103134005e009000904078007000470002427800e2
:1031440033c0b30012c0b30005ff0700e30047001b
:103154007001470003000900b2587800134ea9001b
:103164001e409000550607002e40900053060700ad
:103174003e4090000080fb00ce4090008180fb0028
:10318400c808dd00810070000000eb000100780039
:10319400de4090008181fb008000eb00f20f2000f4
:1031a4000281610003f02f008380600081007100c0
:1031b400b3fe0700410607000040eb00004f780013
:1031c400070037001e80fb00de00900000844000f2
:1031d4000040eb0039060700004c78001e4fe80061
:1031e4004e4890009e40780080cf5000f5ff390093
:1031f400134ea8004f0478000080fa000000060077
:103204001400fa00881f7800004f980051079800b6
:10321400424f98000e4890000080fb004400de00fe
:1032240000407800e74060006e00470001417800ec
:1032340001c1b300bdfe0700ee489000114798009d
:103244007e499000224798000e4890006f4160002c
:103254005e009000904078007000470002427800c1
:1032640033c0b30012c0b300bdfe0700e300470043
:103274007001470003000900b2587800134ea900fa
:103284001e4090000d0607002e4090000b0607001c
:103294003e4090000080fb00ce4090008180fb0007
:1032a400c808dd00810070000000eb000100780018
:1032b400de4090008181fb008000eb00f20f2000d3
:1032c4000281610003f02f0083806000810071009f
:1032d4006bfe0700f90507000040eb00004f780083
:1032e400070037001e80fb00de00900000844000d1
:1032f4000040eb00f1050700004c78001e4fe80089
:103304004e4890009e40780080cf5000f5ff390071
:10331400134ea8004f0478000080fa000000060055
:103324001400fa00881f7800004f98005107980095
:10333400424f98000e4890000080fb004400de00dd
:1033440000407800e74060006e00470001417800cb
:1033540001c1b30075fe0700ee48900011479800c4
:103364007e49900022479800134ea9001e40900009
:10337400d20507002e409000d005070004d0bf00fe
:103384000004e00001003a000470ef0004d0bf0024
:103394000004e00021003a000e4890006f416000f4
:1033a4005e00900090407800700047000242780070
:1033b40033c0b30012c0b30069fe0700e300470046
:1033c4007001470003000900b25878003e409000a5
:1033d4000080fb00ce4090008180fb00c808dd0027
:1033e400810070000000eb0001007800de409000d6
:1033f4008181fb008000eb00f20f2000028161005c
:1034040003f02f0083806000810071001cfe070020
:10341400aa05070010c0b30004f0b7000040eb0099
:10342400004f7800070037001e80fb00de0090008c
:10343400008440000040eb00a0050700004c780029
:103444001e4fe8004e4890009e40780080cf500008
:10345400f5ff3900134ea8004f0478000080fa00ed
:10346400000006000600fa00881f78001007980084
:1034740041479800134ea9000040eb00004f78002c
:10348400070037001e80fb009e009000008440006f
:103494000040eb0089050700004c78001e4fe8004f
:1034a4004e4090009e40780080cf5000f5ff3900d8
:1034b400134ea8004f0478000080fa0000000600b4
:1034c4000a00fa00404798005147980032079800d4
:1034d400034f98000040eb00004f780023003700b2
:1034e4003e00900090407800214798003e009000f4
:1034f4000000e800300798000040eb0010479800f7
:1035040016003700ae4090004e40900000c06800a6
:103514000004e00008003d004e4090000080fb00e5
:1035240000004000804078005e40900000c06800c9
:1035340040479800060037004e409000004040008d
:10354400404798002e4090000040400020479800db
:103554001e4090000040e800104798001e40900074
:10356400e74f5000e7ff36001e4fe8000e4890007a
:103574009e40780080cf5000d9ff39004e40900023
:1035840000c0ea000080fa00000006000600fa000d
:1035940010079800414798004e4090000080fb00bf
:1035a4009e00900000804000104f7800ce419000b3
:1035b4001e01900011c3b3000040eb00c0ff0700e0
:1035c400104798001e4090009e40780080cf500025
:1035d40002003a000040eb000100370010c0b300c5
:1035e4000080fa00000006000400fa00204798005a
:1035f400314798000040eb0010479800ae4090001f
:1036040090c0b3004dfe07003e4090000040e9002a
:1036140080407800a0c0b30048fe0700134ea90004
:10362400a0cfb30025050700f0c9b30023050700a8
:10363400004f780009003700f0c9b3001f050700e8
:10364400004f78001e4090000040e80010479800aa
:1036540080b52100010020005f0507001e407800ae
:103664000004e000040035009e40900030c6b30022
:1036740080cf5000f0ff3600134ea8009e4090000b
:1036840030c6b30080cf5000020036000040eb008b
:103694000100370010c0b3000080fa0000000600eb
:1036a4000800fa00881f78002007980061479800f6
:1036b400134ea9000040eb00004f780007003700cc
:1036c4001e80fb00ae009000008440000040eb0030
:1036d400fa040700004c78001e4fe8006e4090008a
:1036e4009e40780080cf5000f5ff3900b0cfb30082
:1036f400f2040700f0c9b300f00407002047980063
:1037040009003700f0c9b300ec0407002047980013
:103714001e4090000040e8001047980080b521004a
:10372400010020002c0507002e4090000004e0005a
:1037340004003d009e40900030c6b30080cf50008e
:10374400f0ff3600134ea8009e40900030c6b30030
:1037540080cf5000020036000040eb00010037002b
:1037640010c0b3004f0478000080fa000000060087
:103774000000fa0031ccb3000040eb00effd07007d
:1037840011c0b30010c0b300ecfd07008040eb0093
:1037940030c0b300e9fd07008040eb0080c0b300f7
:1037a400e6fd07008040eb00b0c0b300e3fd070076
:1037b40011c4b300e0c0b300e0fd070001c4b300ce
:1037c400f0c0b300ddfd070021c0b30000c1b300a9
:1037d400dafd070031c8b30010c1b300d7fd0700fc
:1037e40081c2b30020c1b300d4fd07008040eb00c8
:1037f40030c1b300d1fd07008040eb0040c1b300ed
:10380400cefd07008040eb0070c1b300cbfd070084
:1038140080c0eb0080c1b300c8fd070000000000b9
:1038240020c0b3008dfd07000004e000fcff3a0057
:103834008040eb00f0c1b300c0fd070011c4b30029
:1038440000c2b300bdfd070071c4b30010c2b300d1
:10385400bafd070031c1b30020c2b300b7fd0700b1
:1038640001c4b30030c2b300b4fd070051c2b300b9
:1038740040c2b300b1fd070001c7b30050c2b3009a
:10388400aefd070071c3b30060c2b300abfd070017
:1038940001c7b30070c2b300a8fd070011c0b30094
:1038a40080c2b300a5fd070001c7b30090c2b300f6
:1038b400a2fd070031c1b300a0c2b3009ffd070001
:1038c40001c7b300b0c2b3009cfd070051c2b300ee
:1038d400c0c2b30099fd070001c7b300d0c2b30052
:1038e40096fd07000080fa00000006000000fa00c0
:1038f40052fd07009eff07000070ef000270ef000a
:103904000080fa00000006000800fa00004f78006a
:10391400114798002247980033479800444798007d
:103924005547980066479800774798001e80fb002b
:10393400e30f500052003200e30f500007003c0038
:10394400e10f500022003200e10f500036003c002d
:103954000000e00008003200a1003700e50f50002d
:1039640073003200e50f50005b003500e60f500095
:10397400850032009a0037009e4090002e4090004f
:1039840080c070003e40900000c07000804078000d
:1039940010c2b30069fd0700ce4090005e40900065
:1039a40080c070006e40900080c070007e40900027
:1039b40000c070008040780000c2b3005ffd0700c3
:1039c4008ef8970000c1b3005cfd07008400370047
:1039d4009e4090002e40900080c070003e409000b9
:1039e40000c070008040780030c2b30053fd07006f
:1039f400ce4090005e40900080c070006e40900009
:103a040080c070007e40900000c07000804078004c
:103a140020c2b30049fd07008ef8970000c1b3002f
:103a240046fd07006e0037009e4090002e40900037
:103a340080c070003e40900000c07000804078005c
:103a440050c2b3003dfd0700ce4090005e409000a0
:103a540080c070006e40900080c070007e40900076
:103a640000c070008040780040c2b30033fd0700fe
:103a74008ef8970000c1b30030fd070058003700ee
:103a84009e4090002e40900080c070003e40900008
:103a940000c070008040780070c2b30027fd0700aa
:103aa400ce4090005e40900080c070006e40900058
:103ab40080c070007e40900000c07000804078009c
:103ac40060c2b3001dfd07008ef8970000c1b3006b
:103ad4001afd0700420037009e4090002e409000df
:103ae40080c070003e40900000c0700080407800ac
:103af40090c2b30011fd0700ce4090005e409000dc
:103b040080c070006e40900080c070007e409000c5
:103b140000c070008040780080c2b30007fd070039
:103b24008ef8970000c1b30004fd07002c00370095
:103b34009e4090002e40900080c070003e40900057
:103b440000c0700080407800b0c2b300fbfc0700e6
:103b5400ce4090005e40900080c070006e409000a7
:103b640080c070007e40900000c0700080407800eb
:103b7400a0c2b300f1fc07008ef8970000c1b300a7
:103b8400eefc0700160037009e4090002e40900087
:103b940080c070003e40900000c0700080407800fb
:103ba400d0c2b300e5fc0700ce4090005e40900018
:103bb40080c070006e40900080c070007e40900015
:103bc40000c0700080407800c0c2b300dbfc070076
:103bd4008ef8970000c1b300d8fc07000000000075
:103be4000080fa00000006000200fa00a0c1b30041
:103bf4009afc0700004f7800b0c1b30097fc07009f
:103c0400104798001e4078000080fb00c800dd00cb
:103c14001e4090000080fb00008040000080fa00fd
:103c2400000006000400fa0020479800f0c0b3002a
:103c34008afc0700004f78002e4090000004e0004a
:103c4400060032001e4078000004a0008040780086
:103c5400f0c0b300b9fc0700050037001e4078002f
:103c64000004a10080407800f0c0b300b3fc07005a
:103c74000080fa00000006000400fa001007980013
:103c840090c1b30075fc0700004f78001e80fb0054
:103c9400e70060001e009000310098001e80fb00c9
:103ca4004300de00004078000080fb00e300600079
:103cb4001e009000210098001e80fb004500de00dd
:103cc400004078000080fb006100600000f0a70065
:103cd4000000ea000000ea004f00de0080407800a7
:103ce4001e009000214098001e80fb004600de006c
:103cf400004078000080fb006100600000f0a70035
:103d04000000ea000000ea004f00de008040780076
:103d14001e009000114098001e80fb004700de004a
:103d2400004078000080fb006100600000f0a70004
:103d34000000ea000000ea004f00de008040780046
:103d44001e009000014878000080fa000000060080
:103d54000400fa002047980031479800be409000c4
:103d64002e40900075fc0700c02b200001002000ad
:103d7400990307002e40900038fc0700004f78009c
:103d84003e4090009e40780080cf500002003a00f0
:103d940010c0b300010037000040eb000080fa00bf
:103da400000006001400fa0013cea9000040eb0046
:103db4002047980010c0b3003047980000c4b300f7
:103dc4004047980030c1b3005047980000c4b30086
:103dd4006047980050c2b3007047980000c7b30012
:103de400004f980070c3b300104f980000c7b30091
:103df400204f98008040eb0030c0b3004ffc070018
:103e04000e80e80092c0b30080007800f0c1b300d7
:103e14006cfc0700c02b2000010020006e0307008b
:103e24006b00470092c0b30080007800f0c1b3007b
:103e3400abfc07000040eb00104798000040eb008b
:103e4400004f78000c0037001e80fb000080e80063
:103e5400ee4078001e80fb006b0040006e4078004e
:103e640080cf5000030032001e4090000040e80064
:103e7400104798001e4fe8001e407800e84f50009d
:103e8400f1ff36001e4090000004e00002003a00fa
:103e940010c0b300010037000040eb000080fa00be
:103ea400000006000e00fa00889fbe00500798002c
:103eb400610798000f0478000f00780080047800f0
:103ec4006d02070010c0b300a00207000040eb0021
:103ed400004f780020c0b300204798002e40900087
:103ee4008080fb008100e900210798000080fb002e
:103ef4000000e8000000e8000000d100800040005d
:103f04000f007800818747000000e8000000d1001e
:103f140000004000300798000040eb001047980074
:103f24001f00370002d0bf000004e0001c00320074
:103f34000270ef003e0090002e4190008000780057
:103f4400a0c1b300aefc07003e0090001040780012
:103f54000080fb00c800dd003e009000104090008f
:103f64000080fb0001007000400798001e80fb00e9
:103f740000004000de00900000804000ce00900071
:103f8400010878001e4fe8009e80fb006e00900040
:103f9400808f500002003a0010c0b3001047980010
:103fa4001e4090000004a2000004e000ddff3a007f
:103fb40010c0b30089077800880778004f04be005a
:103fc4000080fa00000006001000fa00889fbe007e
:103fd40060079800710798000f0478000f007800bc
:103fe400800478002402070010c0b30057020700c1
:103ff4000040eb00004f780030c0b3002047980029
:104004002e4090008080fb008100e9002107980089
:104014000080fb000000e8000000e8000000d10080
:10402400800040000f007800818747000000e8000e
:104034000000d10000004000300798000040eb0071
:10404400104798002e00370002d0bf000004e000a3
:104054002b0032000270ef003e0090002e419000d1
:1040640080007800a0c1b30065fc07003e0090000a
:10407400104078000080fb00c800dd003e00900086
:10408400104090000080fb00010070004007980081
:104094002e4090008040e9003e0090003bfd070068
:1040a400204f98002e4890000004e00007003a00da
:1040b4001e80fb0000004000ee00900000804000e5
:1040c400ce00900001087800060037001e80fb0037
:1040d40000004000ee009000008040008000eb00f3
:1040e400010878001e4fe8009e80fb007e009000cf
:1040f400808f500002003a0010c0b30010479800af
:104104001e4090000004a2000004e000ceff3a002c
:1041140010c0b30089077800880778004f04be00f8
:104124000080fa00000006000000fa000040eb00e6
:10413400e2010700870207006d0207009d020700e5
:10414400d701070010c0b300dc01070001582200aa
:104154000000eb00bf00070011c0b3000000eb003b
:10416400d0000700e1fd070013eea9000080fa006b
:10417400000006000a00fa00008fbe002207980023
:1041840033079800440798004e0090008000eb002d
:1041940050f207000001be001e00be00dbf1070064
:1041a4000001be001e00be007af10700008fbe00b1
:1041b4004e0090008000eb0046f207000001be00b4
:1041c4002e009000be009000d0f107000001be0058
:1041d4001e00be0070f10700008fbe001e00be006e
:1041e4000080fa00000006001600fa00ceff070067
:1041f40080632900cbf207000001200040079800eb
:104204004e009000800078008100e900510798007a
:10421400000040000000e8000000e8000000d100b9
:10422400800040000f007800818747000000e8000c
:104234000000d10000004000600798000040eb003f
:10424400004f78006e009000ce00900015ff07002c
:104254000004e0000100320013eea8006e0090009c
:10426400100078008000eb001af207001007980095
:10427400210798000000eb00300798001100370078
:10428400ee0090003e0090000000400000804000de
:10429400100078008000eb000ef207004e02900040
:1042a4000001be001e009000ae009000b1ff0700a8
:1042b40010079800210798003e0090000000e800d5
:1042c40030079800be0090004e009000808f500090
:1042d400ebff39001e009000ae009000dcf10700f7
:1042e40000007800801f7800d0632900801f7800c8
:1042f40098f30700e48757006e0047005efe07004e
:104304001e0890000000e0000200320010c0b3005c
:10431400004f78000e5090000004e00002003200cc
:1043240010c0b300004f78007e4890000004e00005
:104334000200320010c0b300004f78006e489000b5
:104344000004e0000200320010c0b300004f780007
:104354001e4078000004e0000300320010c0b300e7
:1043640030fe0700020037000040eb002dfe07007e
:104374000040eb00004f780000d82100c14220002b
:1043840015020700afff37000200fa00000f7800a3
:1043940021e2a90021a2a9002182a9000111800023
:1043a400f0cf2f00008060000011880020e2a900f7
:1043b40020c2a90020a2a9002082a8002062a9008e
:1043c4000111800090ff2f00008060000011880020
:1043d4002002a90023a2a90023e2a90023c2a80065
:1043e4002342a90011118000f0f32f000080600027
:1043f4001011880022a2a9001e0078008000eb00a2
:104404000001be0000d82100c142200081f1070054
:104414004c09dd004400de0000007100c488de00a9
:1044240000007800401188002422ef002622ef00cb
:1044340011c0b3000000eb001a0007000080fa006e
:10444400000006000200fa00000f78000080fa0065
:10445400000006000400fa00000f7800110798001d
:104464001e0078000000e00003003a001e009000e7
:10447400c5ff0700050037001e007800e10f50005b
:1044840005003a001e009000eeff07001e007800b1
:10449400ea00070001003700000000000080fa0075
:1044a400000006000400fa00000f7800214798007d
:1044b4001e0078000000e00009003a002e40900041
:1044c4000004e0000300320021e2a8002342a80017
:1044d4000b00370021e2a9002342a900080037009d
:1044e4002e4090000004e0000300320031e2a800f6
:1044f4003342a8000200370031e2a9003342a90088
:104504000080fa00000006000200fa00004f780064
:104514001e80fb00201188000000000011118000a3
:1045240000102000008060000000e000fbff32006b
:104534000080fa00000006000200fa00101180005a
:10454400640060000000e0000400320030118000cc
:10455400004f78000040eb0011003700101180007c
:10456400620060000000e0000b0032008040eb00bd
:104574000000eb00cbff0700c02b2000010020004f
:104584009501070011c0b3000000eb00c5ff070050
:104594000040eb000200370030118000004078003a
:1045a4000080fa00000006000200fa00004f7800c4
:1045b4001e407800d4ff07000080fa0000000600c7
:020000040000fa
:1045c400001000000400000080000000041000003f
:1045d40002000000800000000610000088000000b7
:1045e4008200000001000000002c10002d102c009f
:1045f400102c10002c102c00101c100000000000c7
:1046040000000000000000000000000000000000a6
:104614000000000000000000000208000101540036
:10462400105510005410540010541000541044003d
:104634001000000000000000000000000000000066
:104644000000000000000000000000000000020064
:10465400080202007c107d00107c10007c107c009d
:10466400107c10006c10000000000000000000002e
:104674000000000000000000000000000000000036
:104684000000000006102e0010561000000000006c
:10469400000000000000000000000000b010000056
:1046a4001a00000082000000686a6c00747a4c00f2
:1046b40000000100000200000400080000100000d7
:1046c400000020002b2d230030000000d210000039
:1046d4000200000080000000ca1000000400000076
:1046e400820000000600000000000000ce10000060
:1046f40004000000800000008e1000002200000072
:10470400820000003031320033343500363738004f
:104714003941420043444500460030003132330001
:1047240034353600373839006162630064656600e9
:1047340000000000d410000002000000820000000d
:1047440001000000d61000000200000080000000fc
:044754000000000061
:020000040000fa
:104758000200fa00000f78001e007800e10f5000f8
:1047680002003a0010eea900040037001e0078008d
:104778000000e00004003a0010eea800112ea80086
:10478800110ea90001003700000000000080fa00a7
:10479800000006000200fa00000f78000080fa000e
:1047a800000006000000fa0010aea80010cea90014
:1047b8002136800000f82f00808060005002200021
:1047c80001007000203688002134800000fc2f0092
:1047d800008060000000a000203488000080fa00fb
:1047e800000006000000fa000080fa000000060041
:1047f8000400fa00000f7800110798001e007800e6
:104808000000e00003003a001e009000d0ff0700ff
:10481800070037001e007800e10f500003003a003f
:104828001e009000dbff07000100370000000000b9
:104838000080fa00000006000200fa00000f78006d
:104848001e0078000000e00002003a00d5ff0700d3
:10485800060037001e007800e10f500002003a0001
:10486800e0ff070001003700000000000080fa00a8
:10487800000006000000fa00108ea8000135800034
:10488800f00f2800808060000040220001007000c6
:10489800003588000080fa00000006000000fa00d9
:1048a800c028ef00c428ef00c628ef00c1e8a9001f
:1048b8000080fa00000006000200fa00004f7800ad
:1048c8001e4078000004e00007003200110280005a
:1048d800f0f12f0000806000100288004460a900f9
:1048e800c3e8a8000500370011028000000e200070
:1048f8000100700010028800c3e8a9000080fa00d7
:10490800000006000200fa00004f78001e40780000
:104918000004e000090032000168a900214280007b
:10492800f0ff280080806000000025000100700072
:10493800204288002168a800010037002168a900ea
:104948000080fa00000006000200fa00004f78001c
:104958001e4078000004e000080032000288a90028
:104968005142800080ff2f00008060006000b3008b
:10497800504288002288a800010037002288a90038
:104988000080fa0000000600809fbe000000fa00c8
:104998000140800000802000008060000000e000ee
:1049a800010032000168a9000080fa004f00be0033
:1049b80000400600801f78000000fa0010408000c8
:1049c800700060000000e0000300320010c0b30077
:1049d80002f0b7000288a9000080fa004f007800b2
:1049e800004006000200fa00000f780041e2a9002a
:1049f80041a2a90040c2a90042a2a8004342a900be
:104a08004382a9004362a9004322a9004302a900e6
:104a180042e2a90042c2a8001112800030fe2f0015
:104a2800008060008001b30010128800111280001d
:104a3800c0ff2f00008060001012880045e2a90026
:104a48004402a9004822ef0041e2a8000080fa00d1
:104a5800000006000200fa00000f78000080fa004b
:104a6800000006000400fa00000f78001107980003
:104a78009e0090001e0078005dff07001e00780071
:104a88000000e00003003a001e009000d5ff070078
:104a9800070037001e007800e10f500003003a00bd
:104aa8001e009000ebff0700010037000000000027
:104ab8000080fa00000006000200fa00004f7800ab
:104ac8001e80fb00401288000000000000128000d9
:104ad800610060000000e000fcff3200401280002e
:104ae800004078000080fa00000006000000fa008c
:104af80040a7a900113a8000f08f2f0000806000c5
:104b08000080a000103a880042e7a90042c7a90027
:104b18004207a80000000000113a800000002700aa
:104b28008080600000002100808f5000faff3a006a
:104b38004fe7a8004f87a900713a8000f00f2f00b7
:104b480000806000703a88000080fa0000000600cb
:104b58000000fa0045e7a9004587a90045a7a90074
:104b680045c7a9004567a9004507a9004527a90029
:104b78004547a90044c7a90044e7a9004407a9007c
:104b88004427a9004447a9004467a9004487a9000d
:104b9800313a800000e02f0080806000a0042000ef
:104ba80001007000303a88000080fa00000006001a
:104bb8000000fa00002eef000e2eef00022eef008c
:104bc800102eef001e2eef00122eef000080fa00cc
:044bd80000000600d3
:020000040000fa
:104bdc00f03fb1000180b10006003500ee03090082
:104bec0000000000403fb1000180b100fbff3d0020
:104bfc001000b000203fb00002003500008009001a
:084c0c0000000000000006009a
:020000040000fa
:104c14000400fa00000f7800110798009e0090002d
:104c24001e0078004af007000000e00002003a008d
:104c340010c0b300010037000040eb000080fa0010
:044c44000000060066
:020000040000fa
:04afe000cfff00009f
:020000040000fa
:04afe400ffff00006b
:020000040000fa
:04afe8007fff0000e7
:020000040000fa
:04afec007bff0000e7
:020000040000fa
:04aff000f9ff000065
:020000040000fa
:04aff400ffff00005b
:00000001FF
