:020000040000fa
:080000000002040000000000f2
:020000040000fa
:0400080006030000eb
:020000040000fa
:04000c0006030000e7
:020000040000fa
:0400100006030000e3
:020000040000fa
:0400140006030000df
:020000040000fa
:0400180006030000db
:020000040000fa
:04001c0006030000d7
:020000040000fa
:0400200006030000d3
:020000040000fa
:0400240006030000cf
:020000040000fa
:0400280006030000cb
:020000040000fa
:04002c0006030000c7
:020000040000fa
:0400300006030000c3
:020000040000fa
:0400340006030000bf
:020000040000fa
:0400380006030000bb
:020000040000fa
:04003c0006030000b7
:020000040000fa
:0400400006030000b3
:020000040000fa
:0400440006030000af
:020000040000fa
:0400480006030000ab
:020000040000fa
:04004c0006030000a7
:020000040000fa
:0400500006030000a3
:020000040000fa
:040054003016000062
:020000040000fa
:04005800060300009b
:020000040000fa
:04005c000603000097
:020000040000fa
:040060000603000093
:020000040000fa
:04006400060300008f
:020000040000fa
:04006800060300008b
:020000040000fa
:04006c000603000087
:020000040000fa
:040070000603000083
:020000040000fa
:04007400060300007f
:020000040000fa
:04007800060300007b
:020000040000fa
:04007c000603000077
:020000040000fa
:040080000603000073
:020000040000fa
:04008400060300006f
:020000040000fa
:04008800060300006b
:020000040000fa
:04008c000603000067
:020000040000fa
:040090000603000063
:020000040000fa
:04009400060300005f
:020000040000fa
:04009800060300005b
:020000040000fa
:04009c000603000057
:020000040000fa
:0400a0000603000053
:020000040000fa
:0400a400060300004f
:020000040000fa
:0400a800060300004b
:020000040000fa
:0400ac000603000047
:020000040000fa
:0400b0000603000043
:020000040000fa
:0400b400060300003f
:020000040000fa
:0400b800060300003b
:020000040000fa
:0400bc000603000037
:020000040000fa
:0400c0000603000033
:020000040000fa
:0400c400060300002f
:020000040000fa
:0400c800060300002b
:020000040000fa
:0400cc000603000027
:020000040000fa
:0400d0000603000023
:020000040000fa
:0400d400060300001f
:020000040000fa
:0400d800060300001b
:020000040000fa
:0400dc000603000017
:020000040000fa
:0400e0000603000013
:020000040000fa
:0400e400060300000f
:020000040000fa
:0400e800060300000b
:020000040000fa
:0400ec000603000007
:020000040000fa
:0400f0000603000003
:020000040000fa
:0400f40006030000ff
:020000040000fa
:0400f80006030000fb
:020000040000fa
:0400fc0006030000f7
:020000040000fa
:0401000006030000f2
:020000040000fa
:0401040006030000ee
:020000040000fa
:0401080006030000ea
:020000040000fa
:04010c0006030000e6
:020000040000fa
:0401100006030000e2
:020000040000fa
:0401140006030000de
:020000040000fa
:0401180006030000da
:020000040000fa
:04011c0006030000d6
:020000040000fa
:0401200006030000d2
:020000040000fa
:0401240006030000ce
:020000040000fa
:0401280006030000ca
:020000040000fa
:04012c0006030000c6
:020000040000fa
:0401300006030000c2
:020000040000fa
:0401340006030000be
:020000040000fa
:0401380006030000ba
:020000040000fa
:04013c0006030000b6
:020000040000fa
:0401400006030000b2
:020000040000fa
:0401440006030000ae
:020000040000fa
:0401480006030000aa
:020000040000fa
:04014c0006030000a6
:020000040000fa
:0401500006030000a2
:020000040000fa
:04015400060300009e
:020000040000fa
:04015800060300009a
:020000040000fa
:04015c000603000096
:020000040000fa
:040160000603000092
:020000040000fa
:04016400060300008e
:020000040000fa
:04016800060300008a
:020000040000fa
:04016c000603000086
:020000040000fa
:040170000603000082
:020000040000fa
:04017400060300007e
:020000040000fa
:04017800060300007a
:020000040000fa
:04017c000603000076
:020000040000fa
:040180000603000072
:020000040000fa
:04018400060300006e
:020000040000fa
:04018800060300006a
:020000040000fa
:04018c000603000066
:020000040000fa
:040190000603000062
:020000040000fa
:04019400060300005e
:020000040000fa
:04019800060300005a
:020000040000fa
:04019c000603000056
:020000040000fa
:0401a0000603000052
:020000040000fa
:0401a400060300004e
:020000040000fa
:0401a800060300004a
:020000040000fa
:0401ac000603000046
:020000040000fa
:0401b0000603000042
:020000040000fa
:0401b400060300003e
:020000040000fa
:0401b800060300003a
:020000040000fa
:0401bc000603000036
:020000040000fa
:0401c0000603000032
:020000040000fa
:0401c400060300002e
:020000040000fa
:0401c800060300002a
:020000040000fa
:0401cc000603000026
:020000040000fa
:0401d0000603000022
:020000040000fa
:0401d400060300001e
:020000040000fa
:0401d800060300001a
:020000040000fa
:0401dc000603000016
:020000040000fa
:0401e0000603000012
:020000040000fa
:0401e400060300000e
:020000040000fa
:0401e800060300000a
:020000040000fa
:0401ec000603000006
:020000040000fa
:0401f0000603000002
:020000040000fa
:0401f40006030000fe
:020000040000fa
:0401f80006030000fa
:020000040000fa
:0401fc0006030000f6
:020000040000fa
:0402000006030000f1
:020000040000fa
:0402040006030000ed
:020000040000fa
:0402080006030000e9
:020000040000fa
:04020c0006030000e5
:020000040000fa
:0402100006030000e1
:020000040000fa
:0402140006030000dd
:020000040000fa
:0402180006030000d9
:020000040000fa
:04021c0006030000d5
:020000040000fa
:0402200006030000d1
:020000040000fa
:0402240006030000cd
:020000040000fa
:0402280006030000c9
:020000040000fa
:04022c0006030000c5
:020000040000fa
:0402300006030000c1
:020000040000fa
:0402340006030000bd
:020000040000fa
:0402380006030000b9
:020000040000fa
:04023c0006030000b5
:020000040000fa
:0402400006030000b1
:020000040000fa
:0402440006030000ad
:020000040000fa
:0402480006030000a9
:020000040000fa
:04024c0006030000a5
:020000040000fa
:0402500006030000a1
:020000040000fa
:04025400060300009d
:020000040000fa
:040258000603000099
:020000040000fa
:04025c000603000095
:020000040000fa
:040260000603000091
:020000040000fa
:04026400060300008d
:020000040000fa
:040268000603000089
:020000040000fa
:04026c000603000085
:020000040000fa
:040270000603000081
:020000040000fa
:04027400060300007d
:020000040000fa
:040278000603000079
:020000040000fa
:04027c000603000075
:020000040000fa
:040280000603000071
:020000040000fa
:100400002f0b21000eff21000e01880000000000cc
:10041000000020000000e000020032000001200087
:100420002002880014000700da0007000000e00046
:1004300003003a00a03a210001002000020037002a
:100440000000200001002000810f70000100320038
:100450000f000700000020000000e0000200320052
:1004600000000200000000006a1602000000000008
:100470000040da000000fe00400020000000e00024
:1004800002003200002020009001880000000600d9
:10049000a1028800800478000000eb001f003700f4
:1004a000e284440054a0b4009905ba00e2844400f8
:1004b00054a0b4009906ba00e284440054a0b400e9
:1004c0000006eb00476fde00fd07b200ae018800ba
:1004d000636ce10003003a000ad801000000eb0061
:1004e0000e003700606ce10008003a00004deb00a0
:1004f0000a05e800020039003420ec000af0a000f0
:100500008b05e900f9ff3e00040037006168e10057
:10051000010032000086eb000b00070019c7ba008b
:100520001905ba000e04e00003003a000a00e000da
:10053000dbff3a0000000600fe07b200ae028800b2
:100540008a047800f5ff37000cd0a300e20f4d00bd
:100550001c00390089027800354dba000a05e80010
:10056000020039003420ec000af0a0008b05e900fd
:100570000f003200254dba000a05e80002003900dc
:100580003420ec000af0a0008b05e90008003200de
:100590000c00e0000600320015cdba000a05e800a4
:1005a000020039003420ec000af0a0008b05e900bd
:1005b0008984e80054a0b4000b00e000e2ff3a0098
:1005c000000006009902ba00055d78008b05e9007d
:1005d000f7ff3200c82ade00055d78008b05e900d0
:1005e000f3ff32000c00e000f1ff320019ddba0029
:1005f000eeff3700000000000000000000000000d7
:100600000000000000000000000000000040da00d0
:100610000000fe000a00fa0011002000b1bf9f0098
:10062000c0bf9f006a805700420407004fb8970080
:100630000080fa00000006000a00fa00e20f5000f5
:100640001f003e0070858000e10f50000600320060
:1006500080232000452320002323200004232000a2
:100660000000e00004003a00802220004522200023
:1006700023222000042220000600280094036300a7
:1006800002003a0007087800140a730013a8a300b8
:1006900001003a0013a0a000020078000500370016
:1006a0001388a300feff32003102fb00840a7800a9
:1006b0000000e9000000e000f9ff3a000800370000
:1006c00033002000b3bf9f00c0bf9f00d1bf9f0079
:1006d000e2bf9f006a805700180407006fb99700b7
:1006e000020078000080fa00000006000a00fa000c
:1006f00051002000b1bf9f00c0bf9f006a8057001b
:10070000100407005fb897000080fa0000000600a0
:10071000889fbe0080047800808580000000e00093
:1007200004003a000e0007000084eb000000e00027
:1007300008003500888580000900e00005003200cf
:1007400009004400060007000000e00001003d0031
:100750000084eb00080078004f04be000000060093
:10076000800078000100e00003003a000000200053
:1007700080858800000005000080eb00020020005a
:10078000828f500002003e00818588000000eb004f
:100790000000060000000500839f68000100e000e3
:1007a00002003d0060001000e08018000300e0003f
:1007b00002003d0060011100e08119000500070002
:1007c0004f00e00002003b0060001000e0801800d5
:1007d000000006006022b800060220000000d000e1
:1007e0008180d2000482d2008582d2000000a00065
:1007f0000202520083825a000300310002024200ca
:1008000083824a000000a1000603e900f3ff3a00da
:1008100000000600020037000204e0000b00320076
:10082000810178000002780030417800b14f51001a
:10083000f9ff32001000200014427800934f52005c
:10084000030031000080eb00000006000000eb0018
:1008500000000600889fbe000004780001007800b8
:1008600082047800880178000901780011002000d6
:10087000ef000700890f5000010032000004eb0078
:10088000080078004f04be00000006000000fa00d7
:10089000e88157004fb99700c1022100a042200013
:1008a000020007000080fa00000006006200fa0063
:1008b000889fbe008a1f78000005780081047800b8
:1008c000020478008300780080f92f000f004000b8
:1008d000510207009a979f00a9979f000000eb0024
:1008e000b09f9f001885fb008a04fb000a05ea0000
:1008f0004f55de0050022000808f54000d00320062
:10090000e10f55000b003a000a01780088007800da
:100910002f9097009f91970003000100a0979f00e0
:100920000000e0008e0032003f9897000000e800d1
:10093000b09f9f000a04440050022000808f5400a2
:10094000040032000900e000e6ff3a003f989700fb
:10095000840037000000eb00909f9f00809f9f0065
:10096000f0979f00e0979f00d0979f00c0979f004f
:1009700007003700010a210001005000000040007c
:1009800041092100808040005f98970011007000ad
:10099000d09f9f00880478000904780038457800cb
:1009a0008a00fb00000a2100060107000000e000a9
:1009b000f0ff3a00a1c2b300814f55000e003a008b
:1009c000cf8897000180e900c08f9f001000780059
:1009d000c09f9f000000e00005003d000000ea000d
:1009e000c09f9f005f9897000020a000d09f9f00ad
:1009f0000904e8000f003700c09f9f000000eb00d3
:100a000005003700f2ff2700820f5000020032007d
:100a1000ea00b900008040000904780088047800ea
:100a2000b900fb000103b100e98f5000f5ff36006b
:100a3000c09f9f00e0c2b300984f10000200320038
:100a40000080eb0019003700a0c2b300d84f10009f
:100a500007003a00cf8897000180e900c08f9f000f
:100a600010007800a09f9f000804e80010003700e5
:100a70000000eb00a09f9f00880078000500370071
:100a8000f3ff2700830f500002003200ea00b90094
:100a90000000410001047800880078003101fb006b
:100aa0000203b100e90f5100f5ff3600a09f9f003f
:100ab000984478008900fb00c0082100c1000700ad
:100ac0000000e000020032000804e80001003700e6
:100ad0008044eb00c97f9f0080c6b30080cf5400e4
:100ae00004003a0098cf14000a003a006640500013
:100af00006003700c0c6b30080cf540005003a009e
:100b000098cf140003003a0065404000c07f9f006a
:100b10000804e8001801fb00e3fb2f008f8141006f
:100b200081f92f008f804000a0f92f000f004000b6
:100b3000100007000000e00009003a00e1fb2f0070
:100b40008f804000a0f92f000f004000f600070042
:100b50000000e000020035000804e80061ff3700f3
:100b60000080eb004f0578004f04be000080fa00c3
:100b700000000600889fbe008a1f780000047800ed
:100b800030c5b300804f51000800320030c7b300b9
:100b9000804f51000500320051c2b3007800900030
:100ba000814f510017003a00140037001180e9000e
:100bb00080087800100578006a049800d80c90002e
:100bc0000900e00004003d000a00780089000700e9
:100bd0008004780007003700090178008000eb00ee
:100be0000a007800660007000000e0000100320003
:100bf0008a045000190c98000900370080814100d8
:100c000004003700808141000204e00001003a0046
:100c100001417800824978000000e80070049800e3
:100c20000000eb004f0578004f04be0000000600f6
:100c3000889fbe008a9fbe008c9fbe008e1f7800da
:100c40000006780001047800020078008304780030
:100c50008881b900020778000e00e00042003200ef
:100c60000800e000410032008e057800c9009000c5
:100c700069009000808f500004003900090078005e
:100c8000620007000000e00029003500004020005d
:100c9000190060000a0032000b017800a10020005a
:100ca0000c00780036000700800678000d00e00098
:100cb00006003200610516000a8546000400370070
:100cc0000b0578008006eb00010037000b0578006b
:100cd00049009000e9009000808050008a8f500009
:100ce00002003100010578008006eb000a0178005f
:100cf0008c0078002c0007008a8555004900900080
:100d00000a004000c00498000d00e000040032001a
:100d100009007800a60107000000e00004003a0086
:100d20000b00e000020032000a064600cfff370049
:100d300000802000190060000200320009007800e5
:100d40009b01070000c02000190060000200320073
:100d500049009000e00498008b055700110009003d
:100d60008885d800010037000000eb004f077800ad
:100d70004f06be004f05be004f04be000000060037
:100d800003003700b0cf1000050032000201e90077
:100d9000800178000200e000faff3a000000050040
:100da0000300780000000600800178000200370090
:100db000b15978000201e9000200e000fcff3a00ae
:100dc00000000600020037000304e00006003200c5
:100dd0000001780002007800b041780081cf510016
:100de000f9ff3a00010037000001eb000200780033
:100df0000000060080007800010178003104e00066
:100e0000fdff3a000000510000000600889fbe0070
:100e10008a1f780000047800c800900068019000e4
:100e20000000eb00828f50003c0039001800780071
:100e30002200290002016000e20f51000700320089
:100e4000012024000000e00001003d0001202000fe
:100e5000008c70000080eb0030003700020026009c
:100e600002006000820f500009003a003800900034
:100e7000808f500006003900080078004c01070000
:100e8000800078000080eb000100e00023003a00c1
:100e90001805780000c020000000650018003a0026
:100ea000a80490006002200008004000808f5400d9
:100eb00013003a0000202000ea01070020049800f7
:100ec0000000e00005003a00290498004904980059
:100ed0008904e80039049800080037000a60a0007f
:100ee0000a0c780040049800012020008080400017
:100ef00031049800400c9800500c9800ca0007007c
:100f00002800900050049800380090006004980079
:100f100000002600180c70000000eb004f05780060
:100f20004f04be00000006000400fa00889fbe00c7
:100f30008a9fbe008c1f78000004780001067800ac
:100f4000f80d90007800900080855500080890000a
:100f5000808555001808900080855500280890006d
:100f6000808555003808900080855500480890001d
:100f7000808555000002220090bf9f0000032300df
:100f8000a0bf9f00081090000028a30015003a00a1
:100f90000b00e000130034000b0578008a04780091
:100fa000e20f55000100360029002000c801900022
:100fb00009017800ee8057005800900003000100fe
:100fc000500498000000e0008c0032006808900097
:100fd00009004000600c9800090555004240a90036
:100fe000eeff3c00780190000200e0000c003400ad
:100ff000c80190008c0078005800900003000100a8
:10100000500498008080eb000000e0007c0032007b
:10101000e80890007800900000804000600c980084
:10102000880c90000900e0001100340009057800e8
:10103000e28f5400010036002a002000c801900011
:101040000a017800ec80570058009000030001006e
:10105000500498000000e00068003200680890002a
:101060000a004000600c98008a845400edff3700ad
:10107000180990000200e0000c003400c801900044
:10108000e800900058009000030001005004980010
:101090008080eb000000e00059003200e80890007a
:1010a0001808900000804000600c9800a80c900088
:1010b0000900e0001100340009057800e28f5400b7
:1010c000010036002a002000c80190000a017800c3
:1010d000ec80570058009000030001005004980075
:1010e0000000e00045003200680890000a0040005f
:1010f000600c98008a845400edff37003809900096
:101100000200e0000e003400e80090001808900093
:1011100080804000c801900058009000030001004a
:10112000500498008080eb000000e00034003200a2
:10113000e80890003808900000804000600c98009b
:10114000c80c90000900e000110034000905780087
:10115000e28f5400010036002a002000c8019000f0
:101160000a017800ec80570058009000030001004d
:10117000500498000000e000200032006808900051
:101180000a004000600c98008a845400edff37008c
:10119000081090008000eb000028a3001800320027
:1011a0000b00e000160034008b047800090578007d
:1011b000e28f5400010036002a002000c801900090
:1011c0000a017800ee8057005800900003000100eb
:1011d000500498000000e000080032006808900009
:1011e0000a004000600c98008a8454004240a90024
:1011f000eeff3c008000eb00010037008080eb0038
:10120000010078004f0678004f05be004f04be0075
:101210000080fa00000006000108780000000600c7
:10122000609b20009d003700881f7800a80a2100dd
:101230001804e00003003a00f9ff070020c0b300e3
:10124000004c78004f04780000000600889fbe0024
:10125000000478000800780055000700800478003a
:1012600000042000180060000200320028009000f6
:10127000970007000000eb00200498003840900021
:101280000004e000050035000000fb00e1fc070061
:101290000000e000010032008084eb001810900094
:1012a0000000e0000800320010fd07000000e00030
:1012b000010032008084eb001810900084000700c9
:1012c0000000eb00101498000008200018006000d7
:1012d000150032000001eb006000b8000202d000ef
:1012e000c307210003024200940f140005003a00d6
:1012f0000000400081804800008041000008eb00b1
:101300000600370061004000e08048000201e8006c
:10131000e80f5000e08f5800f0ff3a000800780016
:101320006b0007000e003700000c780000c0eb00d7
:10133000304498006002200008004000200498001b
:101340004004980050049800400c980060049800f5
:10135000500c98007004980076004400000c98002f
:10136000090078004f04be0000000600881f7800c6
:101370000004eb006140b800e2ff2f00f3ff2f00f4
:10138000f2000700a208210080004100110078004f
:101390000000e00001003200acff07000804e80094
:1013a000e80f5400f3ff3a004f04780000000600f5
:1013b000889fbe00000478000800e0000f003a009b
:1013c0008004eb008800d000c007210000804000ae
:1013d000100078000000e00004003200f4ff070075
:1013e0000000e00001003d008084eb000804e800fc
:1013f000e80f5400f3ff3a002500370000002200f8
:10140000180060008004eb0021003200a804900066
:101410000f00370009015100384090000000fb0028
:101420008900780084fc07000000e00007003c0011
:10143000280090004004980060049800500c980028
:101440001890a0008084eb001100370080844400d5
:1014500048019000828f5400eeff39002800900070
:10146000400498009800780002c0200002816000cb
:1014700001003a003800900001e8a30002003200a9
:101480006004980001003700500c98008004eb00c5
:10149000090078004f04be00000006000100200093
:1014a0000100e00009003200010080000100e000be
:1014b000060032008100e900010088008100d000b0
:1014c0000200800082804000800878000000060052
:1014d0000000e0002f003200c0017800e38f5100cf
:1014e0002c0036000308a3002a003a004185800042
:1014f0000100e00002003200810f500004003100c2
:10150000110098004085880016003700820078009e
:10151000110190000200e00002003200800f510033
:10152000faff39001102780084824000850f5000d4
:1015300018003900808f520003003a0083084200ef
:1015400001007800070037000200e00003003200cd
:1015500083014000830f51000e00390012009800f3
:1015600090009800900090000100e0000900320017
:1015700010014000828f500006003a00620a2100ec
:101580000009eb0010017800110841009100900063
:101590001100980000000600889fbe00000478003b
:1015a000318580000100e000020032000100780077
:1015b0000d00370041858000800a210004003700bb
:1015c000910f5400250036000180e8009100900042
:1015d0000100e000faff3a0010003700920f5400bb
:1015e0001e0036000280e800100178000200e000d2
:1015f000faff3a001101780041858000800a21003d
:1016000004003700910f5400140036000180e800f8
:1016100091009000828f5000faff3a0069858000a7
:10162000888f540001003100880478000900780098
:10163000360007000000e00004003a00888f5400e4
:10164000050032008904d100f5ff37000918780041
:101650009fff0700d2ff37000000eb004f04be00e1
:1016600000000600881f7800630440000800a10005
:101670008000eb00800f540021003600e30f54007f
:1016800001003e004800200008007800c2ff07006b
:101690008000eb000000e0001900320090007800ac
:1016a0009101780064815100880f510003003100de
:1016b00011019000020878000700370008814000ff
:1016c0000208780091019000130198001001780041
:1016d0001109140088087800100178000000eb0060
:1016e0000200e00004003200920190000300e000dc
:1016f000010032000280e800308588008180e80027
:10170000010078004f047800000006008000780097
:101710000000eb000100e00005003400010078004b
:10172000fbfb0700e10f400001003a000000eb0066
:101730000000060000c0da000000060000c0da0069
:101740000000060000c0da0000000600020ab9002e
:10175000001bb9000200b800810042008100430074
:04176000000006007f
:020000040000fa
:08176400696e0000690000003d
:020000040000fa
:10176c000400fa00000f7800110798001e40780062
:10177c000080fb004700dd00804078001e40900098
:10178c000080fb004500dd00004078000046b20000
:10179c0080c040002e4090006f40600000c04000b0
:1017ac000080fa00000006000800fa000002780031
:1017bc00414798005247980063479800ce409000ec
:1017cc00014f7800de40900011479800ee409000e9
:1017dc00214798000e00780084007800904878002b
:1017ec008100e8000000e800904878008100e800e3
:1017fc000000e800904878008100e8000000e80054
:10180c00040078000080fa00000006000400fa00d2
:10181c002147980032479800ae409000014f780065
:10182c00be409000e7c06000114798001e48780049
:10183c009e409000114098000080fa0000000600c5
:10184c000c00fa00881f78000004780041479800cb
:10185c005247980063479800744798006800470007
:10186c00fe4190006e419000de409000ceff0700dc
:10187c00680047008e007800904878008100e800ee
:10188c000000e800904878008100e8000000e800c3
:10189c00904878008100e8000000e800ce409000fd
:1018ac0031479800030009003e5c78004800b10005
:1018bc004e00b100080078004f0478000080fa0058
:1018cc00000006000800fa00100798002107980095
:1018dc00320798000040eb00004f7800134ea9002f
:1018ec002e409000690407003e40900067040700fa
:1018fc002e009000be00900099ff070063040700c3
:10190c007e40900061040700004f7800134ea80041
:10191c001e4078000080fa00000006000000fa006b
:10192c00114ea900134ea800110020000000eb007e
:10193c00410407000080fa00000006001000fa00c5
:10194c00004f98000040eb00004f78000e489000cc
:10195c000080fb004400de0000407800e74060009f
:10196c006a0047000141780001c1b300a7ff0700de
:10197c00ae489000114798003e49900022479800cd
:10198c000e489000ef4060006c0047000142780068
:10199c008041eb0012c0b3009e407800a8ff070006
:1019ac00e30047006c01470003000900b2587800bf
:1019bc001e4090000080fb00ae4090008180fb0038
:1019cc00c808dd00810070000000eb000100780009
:1019dc00be4090008180fb004e4190000281fb00d4
:1019ec004811dd00028170008000eb00820078005d
:1019fc005e4190000281fb00ee4190008381fb0070
:101a0c00c819dd00830171000001eb0003017800af
:101a1c00acff07000080fa00000006000e00fa0080
:101a2c0060479800714798006e4090000080fb0062
:101a3c004400de0000407800e7406000680047008a
:101a4c000141780001c1b30070ff07008e4890007f
:101a5c00014f78001e499000124798006e4090008c
:101a6c00ef4060006a004700014278008041eb00c3
:101a7c000041eb00fe40900071ff0700e2004700c0
:101a8c006a01470003000900b25878001e00780074
:101a9c009e0090002e0190008aff07000080fa0043
:101aac00000006001400fa00004f9800510798003f
:101abc00424f98000e4890000080fb004400de006e
:101acc0000407800e74060006e004700014178005c
:101adc0001c1b3004dff0700ee489000114798007c
:101aec007e499000224798000e4890006f4160009c
:101afc005e00900090407800700047000242780031
:101b0c0033c0b3000041eb004dff0700e30047007a
:101b1c007001470003000900b2587800134ea90069
:101b2c001e409000d90307002e409000d7030700f9
:101b3c003e4090000080fb00ce4090008180fb0076
:101b4c00c808dd00810070000000eb000100780087
:101b5c00de4090008181fb008000eb00f20f200042
:101b6c000281610003f02f0083806000810071000e
:101b7c00fbfe0700c50307006e409000c30307007f
:101b8c0010c0b300004f7800060037001e80fb0029
:101b9c00de0090000080400010407800bb0307007e
:101bac001e4fe8004e4890009e40780080cf5000b9
:101bbc00f6ff3900134ea8000080fa000000060062
:101bcc001400fa00881f7800004f98005107980005
:101bdc00424f98000e4890000080fb004400de004d
:101bec0000407800e74060006e004700014178003b
:101bfc0001c1b30005ff0700ee48900011479800a3
:101c0c007e499000224798000e4890006f4160007a
:101c1c005e0090009040780070004700024278000f
:101c2c0033c0b30012c0b30005ff0700e300470048
:101c3c007001470003000900b2587800134ea90048
:101c4c001e409000910307002e4090008f03070068
:101c5c003e4090000080fb00ce4090008180fb0055
:101c6c00c808dd00810070000000eb000100780066
:101c7c00de4090008181fb008000eb00f20f200021
:101c8c000281610003f02f008380600081007100ed
:101c9c00b3fe07007d0307000040eb00004f780007
:101cac00070037001e80fb00de009000008440001f
:101cbc000040eb0075030700004c78001e4fe80055
:101ccc004e4890009e40780080cf5000f5ff3900c0
:101cdc00134ea8004f0478000080fa0000000600a4
:101cec001400fa00881f7800004f980051079800e4
:101cfc00424f98000e4890000080fb004400de002c
:101d0c0000407800e74060006e0047000141780019
:101d1c0001c1b300bdfe0700ee48900011479800ca
:101d2c007e49900022479800134ea9001e40900057
:101d3c00560307002e4090005403070002d0bf004a
:101d4c000004e00001003a000270ef0002d0bf0076
:101d5c000004e00021003a000e4890006f41600042
:101d6c005e009000904078007000470002427800be
:101d7c0033c0b30012c0b300b1fe0700e30047004c
:101d8c007001470003000900b25878003e409000f3
:101d9c000080fb00ce4090008180fb00c808dd0075
:101dac00810070000000eb0001007800de40900024
:101dbc008181fb008000eb00f20f200002816100aa
:101dcc0003f02f00838060008100710064fe070027
:101ddc002e03070010c0b30002f0b7000040eb0068
:101dec00004f7800070037001e80fb00de009000db
:101dfc00008440000040eb0024030700004c7800f6
:101e0c001e4fe8004e4890009e40780080cf500056
:101e1c00f5ff3900134ea8004f0478000080fa003b
:101e2c00000006000600fa00881f780010079800d2
:101e3c0041479800134ea9000040eb00004f78007a
:101e4c00070037001e80fb009e00900000844000bd
:101e5c000040eb000d030700004c78001e4fe8001b
:101e6c004e4090009e40780080cf5000f5ff390026
:101e7c00134ea8004f0478000080fa000000060002
:101e8c000a00fa0040479800514798003207980022
:101e9c00034f98000040eb00004f78002300370000
:101eac003e00900090407800214798003e00900042
:101ebc000000e800300798000040eb001047980045
:101ecc0016003700ae4090004e40900000c06800f5
:101edc000004e00008003d004e4090000080fb0034
:101eec0000004000804078005e40900000c0680018
:101efc0040479800060037004e40900000404000dc
:101f0c00404798002e409000004040002047980029
:101f1c001e4090000040e800104798001e409000c2
:101f2c00e74f5000e7ff36001e4fe8000e489000c8
:101f3c009e40780080cf5000d9ff39004e40900071
:101f4c0000c0ea000080fa00000006000600fa005b
:101f5c0010079800414798004e4090000080fb000d
:101f6c009e00900000804000104f7800ce41900001
:101f7c001e01900011c3b3000040eb00c0ff07002e
:101f8c00104798001e4090009e40780080cf500073
:101f9c0002003a000040eb000100370010c0b30013
:101fac000080fa00000006000400fa0020479800a8
:101fbc00314798000040eb0010479800ae4090006d
:101fcc0090c0b30095fe07003e4090000040e90031
:101fdc0080407800a0c0b30090fe0700134ea9000b
:101fec00a0cfb300a9020700f0c9b300a7020700f5
:101ffc00004f780009003700f0c9b300a3020700b6
:10200c00004f78001e4090000040e80010479800f8
:10201c0080b5210001002000380307001e40780025
:10202c000004e000040035009e40900030c6b30070
:10203c0080cf5000f0ff3600134ea8009e40900059
:10204c0030c6b30080cf5000020036000040eb00d9
:10205c000100370010c0b3000080fa000000060039
:10206c000800fa00881f7800200798006147980044
:10207c00134ea9000040eb00004f7800070037001a
:10208c001e80fb00ae009000008440000040eb007e
:10209c007e020700004c78001e4fe8006e40900056
:1020ac009e40780080cf5000f5ff3900b0cfb300d0
:1020bc0076020700f0c9b3007402070020479800ad
:1020cc0009003700f0c9b3007002070020479800e0
:1020dc001e4090000040e8001047980080b5210099
:1020ec0001002000050307002e4090000004e000d2
:1020fc0004003d009e40900030c6b30080cf5000dd
:10210c00f0ff3600134ea8009e40900030c6b3007e
:10211c0080cf5000020036000040eb000100370079
:10212c0010c0b3004f0478000080fa0000000600d5
:10213c000000fa000080fa00000006000000fa001f
:10214c00f6fd0700faff07000070ef000080fa00b0
:10215c00000006000800fa00004f780011479800b4
:10216c0022479800334798004447980055479800f9
:10217c0066479800774798001e80fb00e30f5000dd
:10218c0052003200e30f500007003c00e10f5000fa
:10219c0022003200e10f500036003c000000e0004d
:1021ac0008003200a1003700e50f50007300320028
:1021bc00e50f50005b003500e60f50008500320043
:1021cc009a0037009e4090002e40900080c0700016
:1021dc003e40900000c070008040780010c2b300f8
:1021ec000efe0700ce4090005e40900080c0700054
:1021fc006e40900080c070007e40900000c0700067
:10220c008040780000c2b30004fe07008ef89700ef
:10221c0000c1b30001fe0700840037009e4090000f
:10222c002e40900080c070003e40900000c07000b6
:10223c008040780030c2b300f8fd0700ce4090001b
:10224c005e40900080c070006e40900080c07000b6
:10225c007e40900000c070008040780020c2b30027
:10226c00eefd07008ef8970000c1b300ebfd0700f0
:10227c006e0037009e4090002e40900080c0700091
:10228c003e40900000c070008040780050c2b30007
:10229c00e2fd0700ce4090005e40900080c07000d0
:1022ac006e40900080c070007e40900000c07000b6
:1022bc008040780040c2b300d8fd07008ef897002c
:1022cc0000c1b300d5fd0700580037009e409000b8
:1022dc002e40900080c070003e40900000c0700006
:1022ec008040780070c2b300ccfd0700ce40900057
:1022fc005e40900080c070006e40900080c0700006
:10230c007e40900000c070008040780060c2b30036
:10231c00c2fd07008ef8970000c1b300bffd070097
:10232c00420037009e4090002e40900080c070000c
:10233c003e40900000c070008040780090c2b30016
:10234c00b6fd0700ce4090005e40900080c070004b
:10235c006e40900080c070007e40900000c0700005
:10236c008040780080c2b300acfd07008ef8970067
:10237c0000c1b300a9fd07002c0037009e4090005f
:10238c002e40900080c070003e40900000c0700055
:10239c0080407800b0c2b300a0fd0700ce40900092
:1023ac005e40900080c070006e40900080c0700055
:1023bc007e40900000c0700080407800a0c2b30046
:1023cc0096fd07008ef8970000c1b30093fd07003f
:1023dc00160037009e4090002e40900080c0700088
:1023ec003e40900000c0700080407800d0c2b30026
:1023fc008afd0700ce4090005e40900080c07000c7
:10240c006e40900080c070007e40900000c0700054
:10241c0080407800c0c2b30080fd07008ef89700a2
:10242c0000c1b3007dfd0700000000000080fa0031
:10243c00000006000200fa00a0c1b3003ffd070037
:10244c00004f7800b0c1b3003cfd07001047980066
:10245c001e4078000080fb00c700dd001e4090008d
:10246c000080fb00008040000080fa0000000600a5
:10247c000000fa0000d0bf000004e00005003200ac
:10248c008040eb00f0c0b30064fd07000070ef006b
:10249c000500370011c0b300f0c0b3005ffd0700aa
:1024ac0010c0b30000f0b70000d82100c1422000da
:1024bc00120207000080fa00000006000400fa0077
:1024cc002047980031479800be4090002e40900065
:1024dc0052fd070000e62a00a100200007020700b9
:1024ec002e40900015fd0700004f78003e409000f4
:1024fc009e40780080cf500002003a0010c0b3001c
:10250c00010037000040eb000080fa0000000600dc
:10251c000200fa00000f780021e2a90021a2a90014
:10252c002182a90001118000f0cf2f0000806000f3
:10253c000011880020e2a90020c2a90020a2a90055
:10254c002082a8002062a9000111800090ff2f00ba
:10255c0000806000001188002002a90023a2a900bd
:10256c0023e2a90023c2a8002342a9001111800074
:10257c00f0f32f00008060001011880022a2a90047
:10258c001e0078008000eb000001be0000d8210086
:10259c00c14220007df807004c09dd004400de003c
:1025ac0000007100c488de00000078004011880033
:1025bc002422ef002622ef0011c0b3000000eb0034
:1025cc001a0007000080fa00000006000200fa0062
:1025dc00000f78000080fa00000006000400fa00ea
:1025ec00000f7800110798001e0078000000e00032
:1025fc0003003a001e009000c5ff070005003700dd
:10260c001e007800e10f500005003a001e009000fb
:10261c00eeff07001e007800da000700010037000b
:10262c00000000000080fa00000006000400fa0020
:10263c00000f7800214798001e0078000000e00091
:10264c0009003a002e4090000004e0000300320024
:10265c0021e2a8002342a8000b00370021e2a900c8
:10266c002342a900080037002e4090000004e0002f
:10267c000300320031e2a8003342a8000200370008
:10268c0031e2a9003342a9000080fa0000000600e4
:10269c000200fa00004f78001e80fb002011880019
:1026ac00000000001111800000102000008060006c
:1026bc000000e000fbff32000080fa000000060082
:1026cc000200fa0010118000640060000000e000bd
:1026dc000400320030118000004f78000040eb0005
:1026ec001100370010118000620060000000e00053
:1026fc000b0032008040eb000000eb00cbff07002a
:10270c00c02b2000010020007c01070011c0b30089
:10271c000000eb00c5ff07000040eb000200370093
:10272c0030118000004078000080fa0000000600a4
:10273c000200fa00004f78001e407800d4ff07001a
:08274c000080fa000000060005
:020000040000fa
:1027540000100000020000008000000002100000d1
:1027640002000000800000008c1000001a0000002d
:1027740082000000686a6c00747a4c00000001005a
:102784000002000004000800001000000000200007
:102794002b2d2300300000000410000088000000ee
:1027a4008200000001000000002a10002b102a0003
:1027b400102a10002a102a00101a1000000000002d
:1027c4000000000000000000000000000000000005
:1027d4000000000000000000000208000101520097
:1027e40010531000521052001052100052104200a8
:1027f40010000000000000000000000000000000c5
:1028040000000000000000000000000000000200c2
:10281400080202007a107b00107a10007a107a0005
:10282400107a10006a100000000000000000000090
:102834000000000000000000000000000000000094
:102844000000000004102c001054100000000000d0
:10285400000000000000000000000000aa100000ba
:102864000200000080000000ac1000000200000024
:102874008200000004000000a61000000400000014
:1028840080000000ae100000020000008200000082
:1028940001000000b01000000200000080000000f1
:0428a4000000000030
:020000040000fa
:1028a8000200fa00000f78001e007800e10f5000c7
:1028b80002003a0010eea900040037001e0078005c
:1028c8000000e00004003a0010eea800112ea80055
:1028d800110ea90001003700000000000080fa0076
:1028e800000006000200fa00000f78000080fa00dd
:1028f800000006000000fa0010aea80010cea900e3
:102908002136800000f82f008080600050022000ef
:1029180001007000203688002134800000fc2f0060
:10292800008060000000a000203488000080fa00c9
:10293800000006000000fa000080fa00000006000f
:102948000400fa00000f7800110798001e007800b4
:102958000000e00003003a001e009000d0ff0700ce
:10296800070037001e007800e10f500003003a000e
:102978001e009000dbff0700010037000000000088
:102988000080fa00000006000200fa00000f78003c
:102998001e0078000000e00002003a00d5ff0700a2
:1029a800060037001e007800e10f500002003a00d0
:1029b800e0ff070001003700000000000080fa0077
:1029c800000006000200fa00000f780041e2a900aa
:1029d80041a2a90040c2a90042a2a8004342a900fe
:1029e8004382a9004362a9004322a9004302a90027
:1029f80042e2a90042c2a80010128000c001b30040
:102a08001012880011128000c0ff2f0000806000a3
:102a18001012880045e2a9004402a9004822ef00ec
:102a280041e2a8000080fa00000006000200fa0057
:102a3800000f78000080fa00000006000400fa0089
:102a4800000f7800110798009e0090001e00780083
:102a5800bbff07001e0078000000e00003003a00fa
:102a68001e009000d7ff0700070037001e007800ff
:102a7800e10f500003003a001e009000ebff070032
:102a880001003700000000000080fa000000060086
:102a98000200fa00004f78001e80fb0040128800f8
:102aa8000000000000128000610060000000e000eb
:102ab800fcff320040128000004078000080fa00dd
:102ac800000006000000fa0040a7a900113a8000a3
:102ad800f08f2f00008060000080a000103a88006e
:102ae80042e7a90042c7a9004207a8000000000069
:102af800113a80000000270080806000000021005b
:102b0800808f5000faff3a004fe7a8004f87a900ce
:102b1800713a8000f00f2f0000806000703a880042
:102b28000080fa00000006000000fa0045e7a9004e
:102b38004587a90045a7a90045c7a9004567a90079
:102b48004507a9004527a9004547a90044c7a9008a
:102b580044e7a9004407a9004427a9004447a9005d
:102b68004467a9004487a900313a800000e02f009b
:102b780080806000a004200001007000303a8800c6
:102b88000080fa00000006000000fa00002eef00a6
:102b98000e2eef00022eef00102eef001e2eef007b
:102ba800122eef000080fa00000006000000fa0074
:102bb800c028ef00c428ef00c628ef00c1e8a9002c
:102bc8000080fa00000006000200fa00004f7800ba
:102bd8001e4078000004e000070032001102800067
:102be800f0f12f0000806000100288004460a90006
:102bf800c3e8a8000500370011028000000e20007d
:102c08000100700010028800c3e8a9000080fa00e3
:102c1800000006000200fa00004f78001e4078000d
:102c28000004e000090032000168a9002142800088
:102c3800f0ff28008080600000002500010070007f
:102c4800204288002168a800010037002168a900f7
:102c58000080fa0000000600809fbe000000fa0015
:102c68000140800000802000008060000000e0003b
:102c7800010032000168a9000080fa004f00be0080
:102c8800004006000000fa000040eb00ceff0700fd
:102c9800a5ff07008bff0700bbff0700c3ff070066
:102ca80010c0b300c8ff0700015822000000eb0065
:102cb8004bfe070011c0b3000000eb005cfe0700ec
:102cc8001ffd07000080fa00000006000000fa005f
:102cd800ecff070020bb2800801f7800e9f60700fa
:102ce8008f87e90031c8b30010c1b300f4fd0700b5
:102cf8000004e0000100320013eea800ffff3700d7
:020000040000fa
:102d0800f03fb1000180b10006003500ee03090074
:102d180000000000403fb1000180b100fbff3d0012
:102d28001000b000203fb00002003500008009000c
:082d380000000000000006008d
:020000040000fa
:102d40000400fa00000f7800110798009e00900020
:102d50001e007800aff607000000e00002003a0015
:102d600010c0b300010037000040eb000080fa0003
:042d70000000060059
:020000040000fa
:04afe000cfff00009f
:020000040000fa
:04afe400ffff00006b
:020000040000fa
:04afe8007fff0000e7
:020000040000fa
:04afec007bff0000e7
:020000040000fa
:04aff000f9ff000065
:020000040000fa
:04aff400ffff00005b
:00000001FF
