:020000040000fa
:080000000002040000000000f2
:020000040000fa
:0400080006030000eb
:020000040000fa
:04000c0006030000e7
:020000040000fa
:0400100006030000e3
:020000040000fa
:0400140006030000df
:020000040000fa
:0400180006030000db
:020000040000fa
:04001c0006030000d7
:020000040000fa
:0400200006030000d3
:020000040000fa
:0400240006030000cf
:020000040000fa
:0400280006030000cb
:020000040000fa
:04002c0006030000c7
:020000040000fa
:0400300006030000c3
:020000040000fa
:0400340006030000bf
:020000040000fa
:0400380006030000bb
:020000040000fa
:04003c0006030000b7
:020000040000fa
:0400400006030000b3
:020000040000fa
:0400440006030000af
:020000040000fa
:0400480006030000ab
:020000040000fa
:04004c0006030000a7
:020000040000fa
:0400500006030000a3
:020000040000fa
:04005400a4290000db
:020000040000fa
:04005800060300009b
:020000040000fa
:04005c000603000097
:020000040000fa
:040060000603000093
:020000040000fa
:04006400060300008f
:020000040000fa
:04006800060300008b
:020000040000fa
:04006c000603000087
:020000040000fa
:040070000603000083
:020000040000fa
:04007400060300007f
:020000040000fa
:04007800ba290000a1
:020000040000fa
:04007c000603000077
:020000040000fa
:040080000603000073
:020000040000fa
:04008400060300006f
:020000040000fa
:04008800060300006b
:020000040000fa
:04008c000603000067
:020000040000fa
:040090000603000063
:020000040000fa
:04009400060300005f
:020000040000fa
:04009800060300005b
:020000040000fa
:04009c000603000057
:020000040000fa
:0400a0000603000053
:020000040000fa
:0400a400060300004f
:020000040000fa
:0400a800060300004b
:020000040000fa
:0400ac000603000047
:020000040000fa
:0400b0000603000043
:020000040000fa
:0400b400060300003f
:020000040000fa
:0400b800060300003b
:020000040000fa
:0400bc000603000037
:020000040000fa
:0400c0000603000033
:020000040000fa
:0400c400060300002f
:020000040000fa
:0400c800060300002b
:020000040000fa
:0400cc000603000027
:020000040000fa
:0400d0000603000023
:020000040000fa
:0400d400060300001f
:020000040000fa
:0400d800060300001b
:020000040000fa
:0400dc000603000017
:020000040000fa
:0400e0000603000013
:020000040000fa
:0400e400060300000f
:020000040000fa
:0400e800060300000b
:020000040000fa
:0400ec000603000007
:020000040000fa
:0400f0000603000003
:020000040000fa
:0400f40006030000ff
:020000040000fa
:0400f80006030000fb
:020000040000fa
:0400fc0006030000f7
:020000040000fa
:0401000006030000f2
:020000040000fa
:0401040006030000ee
:020000040000fa
:0401080006030000ea
:020000040000fa
:04010c0006030000e6
:020000040000fa
:0401100006030000e2
:020000040000fa
:0401140006030000de
:020000040000fa
:0401180006030000da
:020000040000fa
:04011c0006030000d6
:020000040000fa
:0401200006030000d2
:020000040000fa
:0401240006030000ce
:020000040000fa
:0401280006030000ca
:020000040000fa
:04012c0006030000c6
:020000040000fa
:0401300006030000c2
:020000040000fa
:0401340006030000be
:020000040000fa
:0401380006030000ba
:020000040000fa
:04013c0006030000b6
:020000040000fa
:0401400006030000b2
:020000040000fa
:0401440006030000ae
:020000040000fa
:0401480006030000aa
:020000040000fa
:04014c0006030000a6
:020000040000fa
:0401500006030000a2
:020000040000fa
:04015400060300009e
:020000040000fa
:04015800060300009a
:020000040000fa
:04015c000603000096
:020000040000fa
:040160000603000092
:020000040000fa
:04016400060300008e
:020000040000fa
:04016800060300008a
:020000040000fa
:04016c000603000086
:020000040000fa
:040170000603000082
:020000040000fa
:04017400060300007e
:020000040000fa
:04017800060300007a
:020000040000fa
:04017c000603000076
:020000040000fa
:040180000603000072
:020000040000fa
:04018400060300006e
:020000040000fa
:04018800060300006a
:020000040000fa
:04018c000603000066
:020000040000fa
:040190000603000062
:020000040000fa
:04019400060300005e
:020000040000fa
:04019800060300005a
:020000040000fa
:04019c000603000056
:020000040000fa
:0401a0000603000052
:020000040000fa
:0401a400060300004e
:020000040000fa
:0401a800060300004a
:020000040000fa
:0401ac000603000046
:020000040000fa
:0401b0000603000042
:020000040000fa
:0401b400060300003e
:020000040000fa
:0401b800060300003a
:020000040000fa
:0401bc000603000036
:020000040000fa
:0401c0000603000032
:020000040000fa
:0401c400060300002e
:020000040000fa
:0401c800060300002a
:020000040000fa
:0401cc000603000026
:020000040000fa
:0401d0000603000022
:020000040000fa
:0401d400060300001e
:020000040000fa
:0401d800060300001a
:020000040000fa
:0401dc000603000016
:020000040000fa
:0401e0000603000012
:020000040000fa
:0401e400060300000e
:020000040000fa
:0401e800060300000a
:020000040000fa
:0401ec000603000006
:020000040000fa
:0401f0000603000002
:020000040000fa
:0401f40006030000fe
:020000040000fa
:0401f80006030000fa
:020000040000fa
:0401fc0006030000f6
:020000040000fa
:0402000006030000f1
:020000040000fa
:0402040006030000ed
:020000040000fa
:0402080006030000e9
:020000040000fa
:04020c0006030000e5
:020000040000fa
:0402100006030000e1
:020000040000fa
:0402140006030000dd
:020000040000fa
:0402180006030000d9
:020000040000fa
:04021c0006030000d5
:020000040000fa
:0402200006030000d1
:020000040000fa
:0402240006030000cd
:020000040000fa
:0402280006030000c9
:020000040000fa
:04022c0006030000c5
:020000040000fa
:0402300006030000c1
:020000040000fa
:0402340006030000bd
:020000040000fa
:0402380006030000b9
:020000040000fa
:04023c0006030000b5
:020000040000fa
:0402400006030000b1
:020000040000fa
:0402440006030000ad
:020000040000fa
:0402480006030000a9
:020000040000fa
:04024c0006030000a5
:020000040000fa
:0402500006030000a1
:020000040000fa
:04025400060300009d
:020000040000fa
:040258000603000099
:020000040000fa
:04025c000603000095
:020000040000fa
:040260000603000091
:020000040000fa
:04026400060300008d
:020000040000fa
:040268000603000089
:020000040000fa
:04026c000603000085
:020000040000fa
:040270000603000081
:020000040000fa
:04027400060300007d
:020000040000fa
:040278000603000079
:020000040000fa
:04027c000603000075
:020000040000fa
:040280000603000071
:020000040000fa
:100400000f1121000eff21000e01880000000000e6
:10041000000020000000e000020032000001200087
:100420002002880014000700da0007000000e00046
:1004300003003a002079220001002000020037006a
:100440000000200001002000810f70000100320038
:100450000f000700000020000000e0000200320052
:100460000000020000000000b625020000000000ad
:100470000040da000000fe00a00020000000e000c4
:1004800002003200002020009001880000000600d9
:10049000a1028800800478000000eb001f003700f4
:1004a000e284440054a0b4009905ba00e2844400f8
:1004b00054a0b4009906ba00e284440054a0b400e9
:1004c0000006eb00476fde00fd07b200ae018800ba
:1004d000636ce10003003a000ad801000000eb0061
:1004e0000e003700606ce10008003a00004deb00a0
:1004f0000a05e800020039003420ec000af0a000f0
:100500008b05e900f9ff3e00040037006168e10057
:10051000010032000086eb000b00070019c7ba008b
:100520001905ba000e04e00003003a000a00e000da
:10053000dbff3a0000000600fe07b200ae028800b2
:100540008a047800f5ff37000cd0a300e20f4d00bd
:100550001c00390089027800354dba000a05e80010
:10056000020039003420ec000af0a0008b05e900fd
:100570000f003200254dba000a05e80002003900dc
:100580003420ec000af0a0008b05e90008003200de
:100590000c00e0000600320015cdba000a05e800a4
:1005a000020039003420ec000af0a0008b05e900bd
:1005b0008984e80054a0b4000b00e000e2ff3a0098
:1005c000000006009902ba00055d78008b05e9007d
:1005d000f7ff3200c82ade00055d78008b05e900d0
:1005e000f3ff32000c00e000f1ff320019ddba0029
:1005f000eeff3700000000000000000000000000d7
:100600000000000000000000000000000040da00d0
:100610000000fe000a00fa0011002000b1bf9f0098
:10062000c0bf9f006a8057004f0907004fb897006e
:100630000080fa00000006000a00fa00e20f5000f5
:100640001f003e0060888000e10f5000060032006d
:1006500080232000452320002323200004232000a2
:100660000000e00004003a00802220004522200023
:1006700023222000042220000600280094036300a7
:1006800002003a0007087800140a730013a8a300b8
:1006900001003a0013a0a000020078000500370016
:1006a0001388a300feff32003102fb00840a7800a9
:1006b0000000e9000000e000f9ff3a000800370000
:1006c00033002000b3bf9f00c0bf9f00d1bf9f0079
:1006d000e2bf9f006a805700250907006fb99700a5
:1006e000020078000080fa00000006000a00fa000c
:1006f00051002000b1bf9f00c0bf9f006a8057001b
:100700001d0907005fb897000080fa00000006008e
:10071000889fbe0080047800708880000000e000a0
:1007200004003a000e0007000084eb000000e00027
:1007300008003500788880000900e00005003200dc
:1007400009004400060007000000e00001003d0031
:100750000084eb00080078004f04be000000060093
:10076000800078000100e00003003a000000200053
:1007700070888800000005000080eb000200200067
:10078000828f500002003e00718888000000eb005c
:10079000000006000000050003f0a200889fbe00d4
:1007a0008a9fbe008c1f7800d2000700d90033005a
:1007b0006450e1004f0032006420e100520032003a
:1007c00003826c0007003b000905d0000306d0003f
:1007d000820f54000c065d00020039000200320056
:1007e00089017800030678008582550004003d00e9
:1007f0000003fd008103fd008502ea008b854200b5
:10080000840f720002003b0060001000e0801800be
:100810006011b8000005eb007a28e1000a003900f9
:1008200006007800c75ddd00f707b200878075001d
:100830002d003700828171000a0178006105600097
:100840008180d1000080d3008502e900f9ff3b00e0
:10085000060440008784480002003b006004140046
:10086000e0841c000988a300070032008a8171001f
:1008700082817100610164008904d1000884d30081
:100880008b05e800170037000978a30013003a0031
:100890000b00e000130034008b05e900080444005d
:1008a00089844c000a4474000978a3000d003a00c2
:1008b0000b00e000070034008b05e9000804440049
:1008c00089844c0001003a000b0020000978a30045
:1008d000f7ff32000001eb00020037008281710057
:1008e0000a0178005d0007000cf0a70001f0a000ed
:1008f000910037006420e10002003a00838f6c0011
:10090000910033000801be000200be008a003700db
:10091000889fbe008a9fbe008c1f7800750007006c
:100920007c00330003866c006450e1002e0032002e
:100930006420e100330032006150e1002f003200fa
:100940006120e1003100320085855500eb07b000e1
:1009500009002000080420000500370008044400b6
:1009600089844c000a0031000603430087834b0052
:100970000001530081815b00f8ff33000203be00d9
:100980000800a0000804440089844c00f6ff3900e8
:10099000c639dd008301730001003200130020001e
:1009a0008904d1000884d3000998a300050032000f
:1009b0000800a7000300a0008904d1000884d30028
:1009c0008b05e8008904d1000884d3000001eb0006
:1009d0000281d2002100070001f0a1000cf0a70065
:1009e00001f0a000540037006420e10056003200fe
:1009f0000801be000200be00f7ff37006120e100e1
:100a0000510032006000b800f3ff37000000200002
:100a100001f82700f0ff3700839f68000100e00025
:100a200002003d0060001000e08018000300e000bc
:100a300002003d0060011100e0811900450007003f
:100a40004f00e00002003b0060001000e080180052
:100a5000000006006011b8004e0037008100200041
:100a6000618055000b003d000b00200061fe2f004f
:100a70000100e1001d003400828171006101640009
:100a80008904d1000884d3000000e800faff3a008e
:100a9000710020006100640003007000020060002b
:100aa0000900320061044400e0844c000988a5007c
:100ab000050032008b05e8006808e10002003a00fa
:100ac0008904d1000884d300f20f20000258e1000d
:100ad00005003d00c75ddd00f907b20089807500a3
:100ae00008007800000006000bf827008b00780053
:100af000000005000004be00550007000003be0012
:100b00000405be000200be0051000700844f7500be
:100b1000000006000200be006450e100050036003f
:100b20006420e100020036000968a30001003a00d9
:100b30000800be000160a0004f0678004f05be000f
:100b40004f04be0000000600f0ff2f00f1ff270059
:100b5000f9ff37006022b800060220000000d00034
:100b60008180d2000482d2008582d2000000a000e1
:100b70000202520083825a00030031000202420046
:100b800083824a000000a1000603e900f3ff3a0057
:100b900000000600889fbe008a9fbe000082700091
:100ba0000402710004827100260032000004be00bd
:100bb0000200be006011b8006b0920009502200001
:100bc0000182cf000a0039000541b1000082cf0048
:100bd000070039000541b1000982cf000400390047
:100be0000541b1000882cf00010039000541b10084
:100bf00005425200120032000a003b00828171005f
:100c0000610164008100d1000080d3008984d30099
:100c10000884d3008b05e8000442e800f7ff3a009f
:100c2000070037000804440089844c000000480095
:100c3000818048008b05e9000442e900f9ff3a0091
:100c400086ff07004f05be004f04be0000000600ef
:100c5000c70ade00f107b200f50fb200080032004b
:100c6000e1cf4200020032000170a0002400050024
:100c7000810f7000010032000408050044000500e7
:100c8000810f700002003a00140005008502e9009f
:100c90000000400081c04800fcff3b000170a00044
:100ca00024000500e10221003f00070080007800d9
:100cb0000080eb000100e00004003500e1022100ab
:100cc000a0002000120007004f80de000000060098
:100cd000020037000204e0000b00320081017800be
:100ce0000002780030417800b14f5100f9ff320026
:100cf0001000200014427800934f5200030031008e
:100d00000080eb00000006000000eb000000060081
:100d1000889fbe008a1f78000004be00c9009000b2
:100d200069009000808f50000500390009007800ac
:100d30008e0007008080eb000000e0001600350008
:100d4000084578004900900008587800c0049800d1
:100d50001900780000b8a30004003a0000a8a3001e
:100d600007003200ea4f540005003a0009007800fd
:100d7000ad0407008080eb000000e00006003a00b0
:100d800000c02000190060000200320049009000fd
:100d9000e00498008a80fb00010078004f0578008d
:100da0004f04be0000000600889fbe008a9fbe0060
:100db0008c1f780080047800010478002f00370031
:100dc000c800900068009000808f50000400390037
:100dd00008007800650007000000e0003a003500d8
:100de00000402000180060000a003200a10020002e
:100df0000900780050000700000678000c00e000b1
:100e000004003200618514000a054600cfd5de00db
:100e100004003700090078003e0007000005be000e
:100e20000006eb00480090006801900000015100ae
:100e3000cf91de008a0f51008b8f590002003100e4
:100e40000205be000006eb000a01be008900780022
:100e500022000700480090000a004000400498006b
:100e60000c00e00004003200080078006e04070067
:100e70000000e00014003a008a8444001904e000f5
:100e8000cfff3a000080200018006000060032000a
:100e90000800780064040700800078000080eb0000
:100ea0000100e00009003a0001c0200098806000c5
:100eb0000000eb000500320048009000600498003c
:100ec0000000eb00010037000080eb004f067800c7
:100ed0004f05be004f04be00000006000202be0027
:100ee0008001eb0007003700611bb80006014000dd
:100ef000068340001649780061025200e0825a00e1
:100f00008301e800e00f5200e08f5a00f6ff3a003c
:100f100000000600800078000000eb000081400027
:100f20000000e8001204e000fcff3a00010051005c
:100f3000cf80de00000006006011b8006103b80039
:100f400006034100e0834b0016427800814f5200b7
:100f500001003a00860178000201e8000404e00084
:100f6000f6ff3a000300780000000600889fbe00ec
:100f70008a1f780000047800c80090006801900083
:100f80000000eb00828f50003d003900180078000f
:100f90002200290002016000e20f51000700320028
:100fa000012024000000e00001003d00012020009d
:100fb000008c70000080eb0031003700020026003a
:100fc00002006000820f500009003a0038009000d3
:100fd000808f5000060039000800780012040700d6
:100fe000800078000080eb000100e00024003a005f
:100ff0001805780000c020000000650019003a00c4
:10100000a80490006002200008004000808f540077
:1010100014003a00002020000100200072050700a3
:10102000200498000000e00005003a002904980020
:10103000490498008904e800390498000800370042
:101040000a60a0000a0c78004004980001202000eb
:101050008080400031049800400c9800500c9800ab
:101060009b0307002800900050049800380090006f
:101070006004980000002600180c70000000eb00cf
:101080004f0578004f04be0000000600881f78005e
:101090008a9fbe0000047800010078000205be00af
:1010a000880078000202be00120020000300200029
:1010b000a70407008a0f50008b8f580001003200f0
:1010c0000004eb00080078004f05be004f047800d4
:1010d000000006000000fa00e88157004fb99700b1
:1010e000e102210060842000020007000080fa0075
:1010f000000006006200fa00889fbe008a9fbe00c2
:1011000000057800810478000204780083007800ec
:1011100060f92f000f004000560407008a979f00d7
:1011200099979f000000eb00a09f9f001885fb008f
:101130008a04fb000a05ea004f55de005002200039
:10114000808f54000e003200e10f55000c003a0071
:101150001200200003002000880078001f909700f4
:101160000f9297000400010090979f000000e0009c
:10117000970032002f9897000000e800a09f9f0082
:101180000a04440050022000808f54000400320002
:101190000900e000e5ff3a002f9897008d00370026
:1011a0000000eb00809f9f00f0979f00e0979f005a
:1011b000d0979f00c0979f00b0979f00c09f9f004f
:1011c0000005eb0008003700a10f2100810050004e
:1011d0008100d000e20e2100828040004f989700ed
:1011e00011007000c09f9f008a0444009945780058
:1011f0008b00fb00a00f2100db0307000a05e800bd
:101200000000e000f0ff3a00a1c2b30081cf55001a
:101210000e003a00bf8897000180e900b08f9f0060
:1012200010007800b09f9f000000e00005003d0026
:101230000000ea00b09f9f004f9897000020a00098
:10124000c09f9f000904e8000f003700b09f9f0077
:101250006000b80006003700f3ff2700830f50003e
:1012600002003200ea00b900000041008100e800fd
:10127000018444001801fb000203b100e90f510092
:10128000f5ff3600b09f9f00e0c2b300984f1000fa
:10129000030032000080eb00909f9f002000370089
:1012a00008007800a1c2b300d0cf100007003a00b8
:1012b0003f8997008280e900b18f9f0091007800fc
:1012c000919f9f000004e800150037000000eb002c
:1012d000909f9f008000eb0006003700f2ff270080
:1012e000820f500002003200ea00b9000000420004
:1012f0008100e8000801e8008001eb000281400065
:10130000e0814900124278000402fb000403b100ae
:10131000e90f5200f1ff3600909f9f000204780011
:10132000984478008900fb00600e21008e030700be
:101330000000e000020032000804e800010037006d
:101340008044eb00a97f9f0080c6b30080cf54008b
:1013500004003a0098cf14000a003a00664050009a
:1013600006003700c0c6b30080cf540005003a0025
:1013700098cf140003003a0065404000a07f9f0012
:101380000804e8001801fb00c3fb2f008f81410017
:1013900061f92f008f80400080f92f000f0040007e
:1013a000100007000000e00009003a00c1fb2f0018
:1013b0008f80400080f92f000f0040002b050700b0
:1013c0000000e000020035000804e80057ff370085
:1013d0000080eb004f05be004f04be000080fa0005
:1013e00000000600889fbe008a1f78000004780075
:1013f000824478000305780070c4b30080cf5400a5
:101400000a003c0000c0e90080cf54000f003d00fe
:1014100050c2b30080cf5400380032007c404000fe
:1014200080cf540038003a000800370010c6b300df
:1014300080cf54000500320033003500b0c9b3003e
:1014400000c04400e24f50002f003e002861900091
:10145000c0c4b300804f510006003a00110178006b
:1014600068005100800878005001be004000be00b6
:1014700005003700110178006400510080087800f1
:101480001000be0067060700009cbe000294be006c
:10149000b8009000780090000100e00003003d00db
:1014a00080004500d2c2b3000a00370088109000c7
:1014b0000118a3000300320080004500b2c2b3004f
:1014c000040037000108a300050032008000450039
:1014d00002c2b300824878000000e800700498005f
:1014e00078009000000545006a0498008900fb0020
:1014f00008007800100007000b003700780090000b
:101500000005450005003700780090000005450003
:101510000904e00001003a0059c2b300094d780007
:101520000000e800700498000000eb004f05780010
:101530004f04be00000006004f04b000889fbe00ac
:101540008a9fbe008c9fbe008e1f78000007780027
:1015500081f79f003e04be002e05be005e0890008d
:101560000000e00002003d0060002000500f9800e5
:101570008e00780000fb2f000f00400013030700cf
:10158000e20f50000a003a0030002000100f9800cf
:10159000b1c9b3000ff0970081404000200921003d
:1015a000e1cf50000d003e00e00821000b003700a5
:1015b0000000e0000f00340030002000100f980001
:1015c000b1c9b3000ff1970081404100a00921008b
:1015d000e1cf500001003e0060092100ee009000c4
:1015e000b0487800b06878001040780090409800cb
:1015f000130137000000e00005003a0002fb2f0055
:101600000f014100001978008001eb00070137004d
:101610006022b8006033b8000800be000a01be00b6
:10162000570507000000e00001003d000bf0a2009c
:10163000705927008f9897000088b900026a280027
:1016400013002000f4fc0700640650008c9f9f00ec
:1016500016003b0063061600c0ff2f000006660060
:101660008c01ea00839f9f008006eb000800be000b
:101670000a01be000a0037000c08a3000600320071
:10168000c36add00e4092100048242005403be0065
:101690004402be00310607000c86d1008d06e8002a
:1016a0000c00e000f4ff3c001b0037000c00e000e1
:1016b0001b003200c0ff2f00000666008c9f9f00b9
:1016c0006000b8000200200003ff23008006eb004a
:1016d0000a0037000c08a30006003200c36add00d0
:1016e000e4092100048242005403be004402be000b
:1016f0001a0607000c86d1008d06e8000c00e000f9
:10170000f4ff3c000002be000203be000800be0061
:101710000a01be00240507000004be000205be0049
:10172000de08900060c6b3000ff29700804f5200b1
:10173000040032006000200062c4b300824f5200f7
:1017400002003a008f9a97006a80420081004000b0
:10175000f1b79f0001037800f30f5300020034003b
:1017600037012000f7b79f0000c3b300a0779f00a8
:1017700030fb2f0000804700e0b79f000e0178008b
:1017800092b79f004a0037000800be000a01be0061
:10179000c30507000006be00ffb19700e8815100b5
:1017a000f3b79f004240a9000c003400e805070091
:1017b0000002be000203be000800be000a01be0017
:1017c0005b0607006022b80046782d0077192400d8
:1017d000e20507000004be000205be000007eb00a2
:1017e000810020000802be000a03be00a4b79f00cb
:1017f000b5b79f00c6b79f00d7b79f000104780018
:101800000c01be000d003700a400200005002000e0
:10181000a0fd2f000f0040003e0207005fa89700c8
:10182000efa897007fa997008fb197000e0555008c
:1018300005c3b300054d41000001be006fb3970022
:10184000680543008005eb000e005500e00f5100d5
:10185000e08f590007003c00880078002fb4970003
:10186000bfb497004fb59700dfb597000001eb00bc
:10187000080037000804e9000e07e800e10f440003
:10188000e1ff3a00f4ff37000202520003c3b30045
:10189000034a78006102b800820152000201e800a8
:1018a00002835000f8ff3b00e8814100e3b79f004e
:1018b000ffb397000700e000070034006022b80083
:1018c0006033b8000800be000a01be00b104070082
:1018d0000000e000acff3c001fb7970038fb2f0072
:1018e0000f0444006fb09700080450000f99970050
:1018f000e7004100819f9f000000eb0080815000c5
:101900008002540036fb2f000f0343008003eb00de
:1019100006034000e0834b00060178000000e80069
:1019200004c3b300964f1200f4ff320006027800a1
:10193000839f9f005e08900061c6b3000ff397007d
:10194000814f53000300320061c4b300814f530044
:1019500002003a008301e8000a003700130020006b
:1019600051c6b3008ff3970081cf530005003200ba
:101970008741780053c4b2008381fb008301e900f2
:10198000cf19de0080814100858f510001003400b5
:10199000850178000300e0002400350001c3b30096
:1019a000858f510006003d0083024200e9c04000df
:1019b00040c3b300954f100001003c00e9c0500047
:1019c000030078008002eb00010037000600780079
:1019d0000003e900030642000c06e9008006eb0064
:1019e000612cb800080556009a4378008502e8008b
:1019f00081cf5300f5ff320093c3b30083cf500073
:101a000001003a00074de8000600e00006003d0036
:101a10000401e9008001e8000f9897000000e80049
:101a2000809f9f0001003700800178000ff297002f
:101a30008400fb000f9a97000e0078000600070054
:101a40004f0778004f06be004f05be004f04be0092
:101a50004f04b100000006001200fa00889fbe008b
:101a60008a9fbe008c9fbe0000047800014578006c
:101a70008205780083047800040678000900e000fd
:101a800002003c00190020008b10210060c6b3004a
:101a9000804f55000e00320060c4b300804f5500e7
:101aa0000b00320070c6b300804f550003003200b7
:101ab00070c4b300804f550089003a00e40f46001f
:101ac0008700350058089000800f560084003d00c4
:101ad0000c06e80060c6b300804f550010003200cd
:101ae00060c4b300804f55000d0032000810900014
:101af0000038a30004003a0058089000808f54007a
:101b000001003d00590c9800580890000c0050004e
:101b1000500c980002003b000000eb00500c9800b5
:101b200098089000680090000c00e00028003c003d
:101b30000100400002c3b300024878008100e800c1
:101b4000110c9800580890000000e00003003c00d1
:101b5000081090000038a3000600320068009000d2
:101b600001004000e2c2b300024878008100e800b2
:101b7000110c9800580890008c00ea00810f50006a
:101b800001003d000006ea008c00ea00210c9800ec
:101b9000000646005c0c9800890f560001003400d6
:101ba000090678003c0c980018089000e8009000a6
:101bb000008040006161b9008b007800c7fc07001d
:101bc000580890000c0650004c0c98009c00370000
:101bd0008c8f540019003d00010040006149b9009c
:101be0008b007800bdfc07001808900000804400be
:101bf000100c980089045600290c9800d808900011
:101c00000100e00003003c00881090000138a300b0
:101c100007003200e800900000804000e1c2b300fd
:101c200001487800380890000000e800300c980067
:101c300058089000400c9800810037006162b9009c
:101c4000010040000401be008b00780084bf9f00ab
:101c500095bf9f00a1fc07001808900000004600f7
:101c6000100c98008c845400d80890000fba97008c
:101c70000100e00003003c00881090000138a30040
:101c800006003200e800900080804000e2c2b3000d
:101c9000824878000000e800100c98005808900076
:101ca000808f5400010034008004780018089000f0
:101cb000e8009000008040006149b9008480450040
:101cc00086fc07001808900009004000100c9800de
:101cd000580e900089045600290c980058003700cf
:101ce00018089000e8009000808040009b48780031
:101cf0000000e800100c9800d80890000100e000f7
:101d000003003c00881090000138a3000600320058
:101d1000e800900080804000e2c2b3008248780072
:101d20000000e800100c9800580890000000e00047
:101d3000100034008904e900808f54000100340051
:101d40008004780018089000e800900000804000af
:101d50006149b9008b00e80060fc0700180890009a
:101d600009004000100c98005808900089045000a9
:101d7000290c980018089000e800900000804000ae
:101d80000a5878008006e8000c00e00004003500e6
:101d9000b1c2b300014878008d0578000400370017
:101da000d1c2b300014878008d0578000c06ea0026
:101db0000005eb000b003700a20020008c0078002b
:101dc00074805700350007006fb09700ffb0970090
:101dd000814178007e015500837779000006780004
:101de0000a05e8000c00e000f3ff3c000a00e000f8
:101df00003003a008d05780000c3b300805d7800d1
:101e00000000eb00060037000a05e900fe0155005e
:101e10006fc1790003c3b300834841000000e800ac
:101e2000808045000a00e000f7ff3c0018089000a1
:101e3000680190000000410080805000310c980043
:101e40000810900074006000f00f50000e003a007f
:101e5000980890007800900000804000a80890004a
:101e600001004000b808900001004000c808900040
:101e700001004000f8089000810f500002003d0072
:101e800000805000000c98004f06be004f05be00b9
:101e90004f04be000080fa000000060080027800b7
:101ea00001037800110009000203d80080017800c6
:101eb000830a78008299b900820053009102980049
:101ec0000500780000000600e0ff2000b2003700a7
:101ed000881f7800a81021001804e00003003a00d1
:101ee000f9ff070020c0b300004c78004f047800d1
:101ef00000000600889fbe000004780008007800fb
:101f000049000700800478000004200018006000e9
:101f10000200320028009000d80007000000eb000b
:101f200020049800384090000004e00005003500cf
:101f30000000fb00b7f907000000e00001003200dc
:101f40008084eb00181090000000e00008003200d0
:101f5000e6f907000000e000010032008084eb0099
:101f600018109000c50007000000eb001014980046
:101f700000082000180060000f003200c107210097
:101f80000000eb00d10f140005003a0000004000f3
:101f9000e1072100008040000008eb00030037004b
:101fa0000000e800e80f5000f6ff3a000800780053
:101fb000b20007000e003700000c780000c0eb00f4
:101fc000304498006002200008004000200498007f
:101fd0004004980050049800400c98006004980059
:101fe000500c98007004980076004400000c980093
:101ff000090078004f04be0000000600889fbe0064
:10200000e8082100f0045400480078000000e000d7
:1020100001003200b7ff0700890f5400faff3a00b1
:102020004f04be0000000600889fbe008a1f780093
:10203000000478000800e0000d003a00c807210005
:10204000700544008004eb00580078000000e000b8
:1020500004003200f4ff07000000e00001003d0032
:102060008084eb008a0f5400f7ff3a002500370008
:1020700000002200180060008004eb002100320004
:10208000a80490000f00370009015100384090006b
:102090000000fb008900780067f907000000e000fd
:1020a00007003c002800900040049800600498005d
:1020b000500c98001890a0008084eb0011003700ad
:1020c0008084440048019000828f5400eeff390064
:1020d00028009000400498009800780002c020007a
:1020e0000281600001003a003800900001e8a3007e
:1020f000020032006004980001003700500c980084
:102100008004eb00090078004f0578004f04be0002
:1021100000000600881f78008a9fbe008c9fbe00ca
:10212000000478000205be000406be000401be00e3
:102130000a00be0038fa0700008cbe000c01be0089
:10214000fd0307000005550081855d002a04980005
:102150003b049800080078004f06be004f05be0003
:102160004f04780000000600020037000304e0007e
:10217000060032000001780002007800b0417800cb
:1021800081cf5100f9ff3a00010037000001eb0058
:102190000200780000000600010020000100e000bd
:1021a00009003200010080000100e000060032005a
:1021b0008100e90001008800818040000200800069
:1021c000810041008008780000000600889fbe0062
:1021d00000047800e68440001900d0004500de00cd
:1021e000f27f2000820f500010003a00000ceb003c
:1021f000990478006f816400200020001b003a00e1
:10220000210190000200e00018003a001101900046
:102210000200e00015003a00100020001100e0006c
:102220001200320020002000100037000000e00003
:1022300004003a0001007800340107000000e000cb
:1022400008003c00f20028001901610001fe230093
:10225000810c710021c02f00010c40000080eb00b8
:1022600002003700000ceb000000eb004f04be0042
:102270000000060001087800000006000000e000f1
:10228000320032004002be00e50f5200e08f5a00db
:102290002e0036000408a3002c003a00318880008c
:1022a0000100e00002003200810f50000400310004
:1022b00021009800308888001700370082007800dd
:1022c000210190000200e00002003200800f510066
:1022d000faff39001103be0086814000830f5000d1
:1022e0001a003900808f510004003a00841843001e
:1022f00085904b0001007800070037000200e000e5
:102300000300320004024000840f51000f00390026
:1023100022009800a0009800a00090000100e000ba
:102320000a00320010014000828f500007003a007e
:10233000421021000009eb001001be0031184100dd
:1023400021904900a10090002100980000000600a3
:10235000ea874700889fbe008a9fbe008c9fbe0010
:102360008e1f7800000678000204be000405be003f
:10237000010778000400be006f030700d0b79f007c
:10238000e1b79f00e00f5000e08f5800520032008c
:10239000e00f5400e08f5c0050003200fcb79f005b
:1023a0000006be00ce0090006e009000808f5000ae
:1023b000040039000e007800ecfa07000000e0008d
:1023c00033003500004020001e0060000c00320089
:1023d0000c01be00a10020007fb09700b9000700eb
:1023e000000278000400e00008003200ffb197000e
:1023f000618511000a054200cfd5de0004003700d8
:102400000c05be000002eb00010037000c05be0009
:102410004e0090006e01900000015100cf91de004f
:102420008a0f51008b8f5900020031000205be0057
:102430000002eb000a01be00ffb0970084bf9f00be
:10244000a6fa07000a0656008b865e004e00900032
:102450000a004000400798000fba97000400e0000f
:10246000040032000e007800effe07000000e000dc
:1024700007003a00e00f5600e08f5e0004003200d3
:102480007fb097000a004000f0b79f00c5ff3700fb
:10249000008020001e006000020032000e00780064
:1024a000e1fe070000c020001e00600002003200b4
:1024b000ce009000610798005fb19700efb19700e0
:1024c0000c0051008d8059000801be00a1f90700e1
:1024d0000005be00010037006055b8000a00be00cc
:1024e0004f0778004f06be004f05be004f04be00e8
:1024f000af00b10000000600889fbe008a9fbe00aa
:102500000004be00218880000100e00002003200cb
:10251000010078000f003700318880006010210032
:1025200005003700b10f5400a18f5c002b0036006e
:1025300064804000a10090000100e000f9ff3a0033
:1025400012003700b20f5400a28f5c002300360047
:1025500064004100100178000200e000f9ff3a0039
:1025600011017800318880006010210005003700db
:10257000b10f5400a18f5c00180036006480400049
:10258000a1009000828f5000f9ff3a000a88800075
:102590001b888000880f5500898f5d000100310085
:1025a0000805be000a00be00a40007000000e0000d
:1025b00006003a00880f5500898f5d000600320042
:1025c0008b05d1000a85d300f2ff37000a98be00c0
:1025d0002aff0700cbff37000000eb004f05be00cd
:1025e0004f04be0000000600889fbe000002be002f
:1025f00065004000e0804800000378000600a1006c
:1026000081017800060178000204be008000eb0022
:10261000840f5400858f5c0027003600e50f5400be
:10262000e08f5c0002003e006800200009002000ee
:102630000800be00b0ff07008000eb000000e000d3
:102640001d00320090007800a4ff2f00f5ff2f003e
:1026500031014200a1814a00880f5100898f590041
:1026600003003100a102900005087800080037003f
:102670000881400002087800a10190002301980021
:10268000100178003119140021911c008888be00c7
:10269000100178000000eb000200e00004003200ae
:1026a000a20190000300e00001003200640041003c
:1026b00020888800e4804000010078004f04be00bc
:1026c000000006000202be008001eb00050037009a
:1026d0008301e80092cf10000a003200610252002c
:1026e000e0825a006103b80006834100e0834b009a
:1026f00006017800e00f5200e08f5a00f4ff3a0024
:10270000000005000600780000000600e60040001a
:102710001101780005002800850261006f01610049
:1027200082087800020032001200200011003700f9
:10273000a0019000120020000300e0000d003a000c
:10274000900190000300e0000a003a001000e00051
:1027500008003a003600370064034000960878000d
:1027600080017800530b7800900978000408780005
:1027700070015100110278000400e000f6ff320001
:102780001300370064024000140378004f33de006a
:10279000838141008308730080017800d3037800af
:1027a000cf3bde001403780006034300068a730063
:1027b0001302780004024200100378004f33de0059
:1027c0008609720090017800038841000201e90047
:1027d00091017800ef8f5100eaff360010003700ba
:1027e00080017800530378004f33dd001002d100e0
:1027f000040873006402400094037800cf3bdd00be
:102800001303d10086897300110378004f33dd0074
:102810009401d100030a73009108d1000201e8007d
:1028200091017800ff8f5100edff3e00ef886100bd
:102830009188720002007800000006000001be00ce
:102840008000eb000200e000060034000200780087
:10285000aff7070080007800e18f400001003a00e8
:102860008000eb0001007800000006000400fa0080
:10287000889fbe008a9fbe008c1f780000047800ed
:1028800001067800f80d90007800900080855500d2
:102890000808900080855500180890008085550034
:1028a00028089000808555003808900080855500e4
:1028b00048089000808555000002220090bf9f00cc
:1028c00000032300a0bf9f00081090000028a30071
:1028d00015003a000b00e000130034000b057800ef
:1028e0008a047800e20f550001003600290020001c
:1028f0006149b90048029000ee80570058009000ee
:1029000004000100500498000000e0008f00320035
:102910006808900009004000600c98000905550007
:102920004240a900eeff3c00780090000000e0006b
:102930000d0034006101b900480290008c0078005d
:102940005800900004000100500498008080eb00c3
:102950000000e0007e003200e8089000780090005f
:1029600000804000600c9800880c90000900e00096
:102970001100340009057800e28f54000100360090
:102980002a0020006151b90048029000ec805700f5
:102990005800900004000100500498000000e0007e
:1029a0006a003200680890000a004000600c98003d
:1029b0008a845400edff3700180890000000e00002
:1029c0000d0034006101b90048029000e800900059
:1029d0005800900004000100500498008080eb0033
:1029e0000000e0005a003200e8089000180890004b
:1029f00000804000600c9800a80c90000900e000e6
:102a00001100340009057800e28f540001003600ff
:102a10002a0020006151b90048029000ec80570064
:102a20005800900004000100500498000000e000ed
:102a300046003200680890000a004000600c9800d0
:102a40008a845400edff3700380890000000e00051
:102a50000f0034006101b90018089000e8009000f0
:102a6000808040004802900058009000040001005f
:102a7000500498008080eb000000e0003400320039
:102a8000e80890003808900000804000600c980032
:102a9000c80c90000900e00011003400090578001e
:102aa000e28f5400010036002a0020006151b90075
:102ab00048029000ec80570058009000040001008c
:102ac000500498000000e0002000320068089000e8
:102ad0000a004000600c98008a845400edff370023
:102ae000081090008000eb000028a30018003200be
:102af0000b00e000160034008b0478000905780014
:102b0000e28f5400010036002a0020006151b90014
:102b100048029000ee805700580090000400010029
:102b2000500498000000e00008003200680890009f
:102b30000a004000600c98008a8454004240a900ba
:102b4000eeff3c008000eb00010037008080eb00ce
:102b5000010078004f0678004f05be004f04be000c
:102b60000080fa000000060000c0da000000060045
:102b700000c0da000000060000c0da000000060015
:102b80008f1fd100ef0107008f87e9000000e000f0
:102b900000000600809feb00ea0107008f87e90034
:102ba0000000e000000006002800fa00889fbe0038
:102bb0008a9fbe008c9fbe0003866b0080000700ca
:102bc0006400e100440032006408e1004a00320081
:102bd0006100e100460032006108e1004900320076
:102be000ec0647006000b8003d02be003d03be0099
:102bf000f48657006011b8003d04be003d05be00dc
:102c00007d0320000b0037000000a0008d06e900c6
:102c1000130032000402420085824a0006034b0082
:102c200087834b000000400081804800020149007a
:102c3000838149000802520089825a000a035b001e
:102c40008b835b00f0ff3b000802420089824a0050
:102c50000a034b008b834b008d06e900edff3a0021
:102c60008482720086827200f707b2008782720047
:102c700001003200150020001e0490003e0b900061
:102c800006035400e63fb0000368a30007003200cb
:102c90000000a7000500a0008301d1000281d3003d
:102ca0008180d3000080d3000603e8008301d100b7
:102cb0000281d3008180d3000080d3000002eb00aa
:102cc0000482d2001200070003f0a1000cf0a7005c
:102cd00003f0a0004e003700640247006408e100e2
:102ce000480032003400be003401be00f6ff370059
:102cf0006108e100430032006011b8006000b800d4
:102d0000f1ff370003ff270002002000fbff370020
:102d10001800200057002000080453000d003d005b
:102d20000600200097fc2f000740e1001e00340041
:102d300084827200610260008301d1000281d300ad
:102d40008180d3000080d3000804e800f8ff3a0037
:102d5000470020006104600005047400040464005e
:102d60000d00320061004000e08048006001490031
:102d7000e081490003b8a500070032000603e8001f
:102d80006538e10004003a008301d1000281d300dc
:102d90008180d3000080d300f87f20000830e1005c
:102da00003003500080378006000b8006011b80027
:102db0004433dd00f300b20083017300000006001d
:102dc000680447000294be000094be00fc04470063
:102dd0008694be008494be0009007800a20107001a
:102de00008007800a001070099007800814f70006a
:102df0000b003b000800be007b0107004f00b10044
:102e000003003700f3ff2700f2ff2f006110b90025
:102e10004f06be004f05be004f04be000080fa0002
:102e2000000006008103780089f707000001be005a
:102e30006000b8000478a30013003a006220e100ab
:102e400015003e000d0039008301d1000281d3003e
:102e50008180d3008301d1000281d3008180d3001f
:102e60008301d1000281d3008180d3000538b000f6
:102e7000c42add00f300b2008381720007f0a700ce
:102e800003f0a00000000600f3ff2700f2ff2f0070
:102e90006110b900fbff370003ff2700f7ff370081
:102ea0001400fa00889fbe008a9fbe008c9fbe005f
:102eb0000004be000205be00680047000a90be0084
:102ec0000890be00680107000070a7000bf0a10089
:102ed000304320009e02900080825200b0fe2f00fe
:102ee0000028e10011003d00b0fc2f000028e100a7
:102ef000150034001e0990008e0890007e0090009e
:102f00000501b0000201d1008180d3000080d30010
:102f10008502e800fbff3a000b00e000bcff3b002d
:102f200060001000e0801800b9ff3700f0ff2f00ac
:102f3000f1ff27000b00e000b5ff3b000100280077
:102f400000002000b2ff37006000b800b0ff37007b
:102f50004f89de00820178006a0137002800fa00fc
:102f6000889fbe008a9fbe008c9fbe0003866b00b8
:102f700093ff07000028a30064003a000128a30083
:102f800067003a000008a30062003a000108a300ad
:102f900065003a001e009000be08900081064000c7
:102fa000ed3fb100f4805700ee019000111ab80017
:102fb0008e099000311bb8009e099000311cb800aa
:102fc000511db800f485570046000700fe0190002f
:102fd0003a0007008b85e8003e0007008e0990004c
:102fe00040000700ee019000340007008b85e800e8
:102ff000380007008e099000400007009e099000ed
:103000001b18b800890440000a854800fe019000a2
:10301000340007008b85e80038000700ee019000bf
:10302000300007008e0990001b18b800890440008a
:103030000a8548000a98a30008003a0004024200ea
:1030400085824a0006034b0087834b0008044c002e
:1030500089844c000a054d008d06e90084827200c7
:10306000850273004c3add008502720001003200d7
:1030700015002000443ade001400b2004538de009e
:10308000cb45dd000b007000c540de00cb4ddd0000
:103090008b8070004549de00cb55dd000b017100cf
:1030a000c551de000d03780019ff070003f0a100f1
:1030b0000cf0a70003f0a00055ff37001b18b80064
:1030c0008502400006834800e0834b0060044c000a
:1030d000070037001b18b80006034000878348002c
:1030e000faff37001b18b800870340000884480027
:1030f000e0844c0060054d00000006001b18b8007d
:103100000804400089844800faff37000108a30042
:103110003cff3a005800be005801be00e3ff3700f4
:103120000008a30037ff3a0009047800f9ff3700d0
:1031300007f0a20006003700020ab900001bb90020
:103140000200b80081004200810043000000060038
:103150002800fa00889fbe008a9fbe008c9fbe0098
:1031600007067800878669000c003b00030478009e
:103170008704780008f0a10009f0a100840f500036
:10318000858f5800860f5900890f5c0003003300bb
:103190000cf0a20001003a000cf0a10008ff0700ab
:1031a0006400e1005f003200780147006408e1003c
:1031b000610032006c014700748557003200be0088
:1031c0001201be003a04be001a05be001e039000a4
:1031d000be0a90008503530006003d000004fd0078
:1031e0008104fd000205fd008305fd008703ea0060
:1031f000050378000df8a3000400320060041400f9
:10320000e0841c0060051d00e0851d006022b80000
:103210007d0320000d38e1008006eb000b00390033
:103220004433dd00f300b20083017300390037003e
:10323000848272000d027800e10664008b85d10063
:103240000a85d3008984d3000884d3008703e9006a
:10325000f7ff3b0008004000898048000a01490050
:103260008b81490004003b0060001000e0801800e2
:1032700060011900e08119000358a3000900320021
:103280008d82720084827200610260008301d1002d
:103290000281d3008180d3000080d3000603e800c0
:1032a0001b0037000348a30017003a000600e000a7
:1032b000170034000603e9000d00a30000004800d9
:1032c0008180480002014900838149000348a3002e
:1032d0000f003a000600e000090034000603e90090
:1032e00000004000818048000201490083814900bc
:1032f00001003a000003eb000348a300f5ff320091
:103300006022b80002003700848272006182660089
:103310007ffe070003f0a1000cf0a70003f0a0005f
:10332000bbfe3700640147006408e10002003a0078
:103330000df8a300b3fe3a003200be001201be0039
:10334000b3fe3700889fbe008a9fbe008c9fbe00e0
:103350000404be000605be00809fbe00829fbe0022
:103360002f000700040678000800be000a01be0016
:103370002b000700840678004f03be004f02be00fa
:103380008d4f76007fb0970013003300f0ff2f00c1
:103390008b8f6b0006003b000d0666000c00a7003b
:1033a0000a00370007f0a600100020000a003700ce
:1033b000880f5200898f5a008a0f5b008b8f5b0049
:1033c000030039001000200001003e000000200032
:1033d00007f0a7000000ea004f06be004f05be0040
:1033e0004f04be0000000600e48240001078a300f5
:1033f00007003200640240001178a3003400be00d0
:103400001401be00040032000330a70000000600d3
:103410003500be001501be000330a000000006000c
:1034200005ff270005826100070032000428e10043
:1034300001003200240005000600070001003a00e8
:10344000440005000408050002000700f9ff3a00e7
:10345000140005006f826100810270008502710016
:103460008502720000000600800078005002be0055
:103470005003be004439de00f700b200f37f2000a5
:1034800003016100090032000218e10016003a0051
:10349000850172008301730083817300000820009e
:1034a00015003a004000200013003700850172002b
:1034b000830173008381730005003a0004a8be00f5
:1034c00006a8be00100020000b0037000201e90032
:1034d0000402420085824a0006034b0087834b00aa
:1034e0000748a300f9ff32000740a00004a8be006f
:1034f00006a8be00200020008000980092009800de
:1035000000000600881f7800030478000300e00034
:1035100007003d0060001000e08018006001190005
:10352000e081190002003b0001f02d00030037008c
:103530000400070008f0a70003f0a0004f04780083
:1035400000000600889fbe00008270000402710027
:10355000048271002400320036432000c5002000a0
:103560008383cf000a0039000541b1008283cf0078
:10357000070039000541b1008183cf000400390004
:103580000541b1008083cf00010039000541b10041
:1035900085c353006022b800120032000a003b00cd
:1035a00084827200610260008301d1000281d30035
:1035b0008180d3000080d3000603e8008743e80041
:1035c000f7ff3a0007003700000040008180480004
:1035d00002014900838149000603e9008743e900ad
:1035e000f9ff3a00cafd07004f04be0000000600c4
:020000040000fa
:1035f000696e0000692000000025000066200000c0
:043600000a000000bc
:020000040000fa
:103604000400fa00000f7800110798001e407800ab
:103614000080fb004700dd00804078001e409000e1
:103624000080fb004500dd00004078000046b20049
:1036340080c040002e4090006f40600000c04000f9
:103644000080fa00000006000800fa00000278007a
:10365400414798005247980063479800ce40900035
:10366400014f7800de40900011479800ee40900032
:10367400214798000e007800840078009048780074
:103684008100e8000000e800904878008100e8002c
:103694000000e800904878008100e8000000e8009d
:1036a400040078000080fa00000006000400fa001c
:1036b4002147980032479800ae409000014f7800af
:1036c400be409000e7c06000114798001e48780093
:1036d4009e409000114098000080fa00000006000f
:1036e4000c00fa00881f7800000478004147980015
:1036f4005247980063479800744798006800470051
:10370400fe4190006e419000de409000ceff070025
:10371400680047008e007800904878008100e80037
:103724000000e800904878008100e8000000e8000c
:10373400904878008100e8000000e800ce40900046
:1037440031479800030009003e5c78004800b1004e
:103754004e00b100080078004f0478000080fa00a1
:10376400000006000800fa001007980021079800de
:10377400320798000040eb00004f7800134ea90078
:103784002e4090003b0707003e4090003907070099
:103794002e009000be00900099ff07003507070037
:1037a4007e40900033070700004f7800134ea800b6
:1037b4001e4078000080fa00000006000000fa00b5
:1037c400114ea900134ea800110020000000eb00c8
:1037d400130707000080fa00000006001000fa003a
:1037e400004f98000040eb00004f78000e48900016
:1037f4000080fb004400de0000407800e7406000e9
:103804006a0047000141780001c1b300a7ff070027
:10381400ae489000114798003e4990002247980016
:103824000e489000ef4060006c00470001427800b1
:103834008041eb0012c0b3009e407800a8ff07004f
:10384400e30047006c01470003000900b258780008
:103854001e4090000080fb00ae4090008180fb0081
:10386400c808dd00810070000000eb000100780052
:10387400be4090008180fb004e4190000281fb001d
:103884004811dd00028170008000eb0082007800a6
:103894005e4190000281fb00ee4190008381fb00b9
:1038a400c819dd00830171000001eb0003017800f9
:1038b400acff07000080fa00000006000e00fa00ca
:1038c40060479800714798006e4090000080fb00ac
:1038d4004400de0000407800e740600068004700d4
:1038e4000141780001c1b30070ff07008e489000c9
:1038f400014f78001e499000124798006e409000d6
:10390400ef4060006a004700014278008041eb000c
:103914000041eb00fe40900071ff0700e200470009
:103924006a01470003000900b25878001e007800bd
:103934009e0090002e0190008aff07000080fa008c
:10394400000006001400fa00004f98005107980088
:10395400424f98000e4890000080fb004400de00b7
:1039640000407800e74060006e00470001417800a5
:1039740001c1b3004dff0700ee48900011479800c5
:103984007e499000224798000e4890006f416000e5
:103994005e0090009040780070004700024278007a
:1039a40033c0b3000041eb004dff0700e3004700c4
:1039b4007001470003000900b2587800134ea900b3
:1039c4001e409000ab0607002e409000a906070099
:1039d4003e4090000080fb00ce4090008180fb00c0
:1039e400c808dd00810070000000eb0001007800d1
:1039f400de4090008181fb008000eb00f20f20008c
:103a04000281610003f02f00838060008100710057
:103a1400fbfe0700970607006e409000950607001e
:103a240010c0b300004f7800060037001e80fb0072
:103a3400de00900000804000104078008d060700f2
:103a44001e4fe8004e4890009e40780080cf500002
:103a5400f6ff3900134ea8000080fa0000000600ab
:103a64001400fa00881f7800004f9800510798004e
:103a7400424f98000e4890000080fb004400de0096
:103a840000407800e74060006e0047000141780084
:103a940001c1b30005ff0700ee48900011479800ec
:103aa4007e499000224798000e4890006f416000c4
:103ab4005e00900090407800700047000242780059
:103ac40033c0b30012c0b30005ff0700e300470092
:103ad4007001470003000900b2587800134ea90092
:103ae4001e409000630607002e4090006106070008
:103af4003e4090000080fb00ce4090008180fb009f
:103b0400c808dd00810070000000eb0001007800af
:103b1400de4090008181fb008000eb00f20f20006a
:103b24000281610003f02f00838060008100710036
:103b3400b3fe07004f0607000040eb00004f78007b
:103b4400070037001e80fb00de0090000084400068
:103b54000040eb0047060700004c78001e4fe800c9
:103b64004e4890009e40780080cf5000f5ff390009
:103b7400134ea8004f0478000080fa0000000600ed
:103b84001400fa00881f7800004f9800510798002d
:103b9400424f98000e4890000080fb004400de0075
:103ba40000407800e74060006e0047000141780063
:103bb40001c1b300bdfe0700ee4890001147980014
:103bc4007e499000224798000e4890006f416000a3
:103bd4005e00900090407800700047000242780038
:103be40033c0b30012c0b300bdfe0700e3004700ba
:103bf4007001470003000900b2587800134ea90071
:103c04001e4090001b0607002e4090001906070076
:103c14003e4090000080fb00ce4090008180fb007d
:103c2400c808dd00810070000000eb00010078008e
:103c3400de4090008181fb008000eb00f20f200049
:103c44000281610003f02f00838060008100710015
:103c54006bfe0700070607000040eb00004f7800ea
:103c6400070037001e80fb00de0090000084400047
:103c74000040eb00ff050700004c78001e4fe800f1
:103c84004e4890009e40780080cf5000f5ff3900e8
:103c9400134ea8004f0478000080fa0000000600cc
:103ca4001400fa00881f7800004f9800510798000c
:103cb400424f98000e4890000080fb004400de0054
:103cc40000407800e74060006e0047000141780042
:103cd40001c1b30075fe0700ee489000114798003b
:103ce4007e49900022479800134ea9001e40900080
:103cf400e00507002e409000de05070004d0bf0059
:103d04000004e00001003a000470ef0004d0bf009a
:103d14000004e00021003a000e4890006f4160006a
:103d24005e009000904078007000470002427800e6
:103d340033c0b30012c0b30069fe0700e3004700bc
:103d44007001470003000900b25878003e4090001b
:103d54000080fb00ce4090008180fb00c808dd009d
:103d6400810070000000eb0001007800de4090004c
:103d74008181fb008000eb00f20f200002816100d2
:103d840003f02f0083806000810071001cfe070097
:103d9400b805070010c0b30004f0b7000040eb0002
:103da400004f7800070037001e80fb00de00900003
:103db400008440000040eb00ae050700004c780092
:103dc4001e4fe8004e4890009e40780080cf50007f
:103dd400f5ff3900134ea8004f0478000080fa0064
:103de400000006000600fa00881f780010079800fb
:103df40041479800134ea9000040eb00004f7800a3
:103e0400070037001e80fb009e00900000844000e5
:103e14000040eb0097050700004c78001e4fe800b7
:103e24004e4090009e40780080cf5000f5ff39004e
:103e3400134ea8004f0478000080fa00000006002a
:103e44000a00fa004047980051479800320798004a
:103e5400034f98000040eb00004f78002300370028
:103e64003e00900090407800214798003e0090006a
:103e74000000e800300798000040eb00104798006d
:103e840016003700ae4090004e40900000c068001d
:103e94000004e00008003d004e4090000080fb005c
:103ea40000004000804078005e40900000c0680040
:103eb40040479800060037004e4090000040400004
:103ec400404798002e409000004040002047980052
:103ed4001e4090000040e800104798001e409000eb
:103ee400e74f5000e7ff36001e4fe8000e489000f1
:103ef4009e40780080cf5000d9ff39004e4090009a
:103f040000c0ea000080fa00000006000600fa0083
:103f140010079800414798004e4090000080fb0035
:103f24009e00900000804000104f7800ce41900029
:103f34001e01900011c3b3000040eb00c0ff070056
:103f4400104798001e4090009e40780080cf50009b
:103f540002003a000040eb000100370010c0b3003b
:103f64000080fa00000006000400fa0020479800d0
:103f7400314798000040eb0010479800ae40900095
:103f840090c0b3004dfe07003e4090000040e900a1
:103f940080407800a0c0b30048fe0700134ea9007b
:103fa400a0cfb30033050700f0c9b3003105070003
:103fb400004f780009003700f0c9b3002d05070051
:103fc400004f78001e4090000040e8001047980021
:103fd40080b52100010020006d0507001e40780017
:103fe4000004e000040035009e40900030c6b30099
:103ff40080cf5000f0ff3600134ea8009e40900082
:1040040030c6b30080cf5000020036000040eb0001
:104014000100370010c0b3000080fa000000060061
:104024000800fa00881f780020079800614798006c
:10403400134ea9000040eb00004f78000700370042
:104044001e80fb00ae009000008440000040eb00a6
:1040540008050700004c78001e4fe8006e409000f1
:104064009e40780080cf5000f5ff3900b0cfb300f8
:1040740000050700f0c9b300fe04070020479800bc
:1040840009003700f0c9b300fa040700204798007c
:104094001e4090000040e8001047980080b52100c1
:1040a400010020003a0507002e4090000004e000c3
:1040b40004003d009e40900030c6b30080cf500005
:1040c400f0ff3600134ea8009e40900030c6b300a7
:1040d40080cf5000020036000040eb0001003700a2
:1040e40010c0b3004f0478000080fa0000000600fe
:1040f4000000fa0031ccb3000040eb00effd0700f4
:1041040011c0b30010c0b300ecfd07008040eb0009
:1041140030c0b300e9fd07008040eb0080c0b3006d
:10412400e6fd07008040eb00b0c0b300e3fd0700ec
:1041340011c4b300e0c0b300e0fd070001c4b30044
:10414400f0c0b300ddfd070021c0b30000c1b3001f
:10415400dafd070031c8b30010c1b300d7fd070072
:1041640001c2b30020c1b300d4fd07008040eb00be
:1041740030c1b300d1fd07008040eb0040c1b30063
:10418400cefd07008040eb0070c1b300cbfd0700fb
:1041940080c0eb0080c1b300c8fd07000000000030
:1041a40020c0b3008dfd07000004e000fcff3a00ce
:1041b4008040eb00f0c1b300c0fd070011c4b300a0
:1041c40000c2b300bdfd070011c4b30010c2b300a8
:1041d400bafd070031c1b30020c2b300b7fd070028
:1041e40001c4b30030c2b300b4fd070051c2b30030
:1041f40040c2b300b1fd070001c7b30050c2b30011
:10420400aefd070071c3b30060c2b300abfd07008d
:1042140001c7b30070c2b300a8fd070011c0b3000a
:1042240080c2b300a5fd070001c7b30090c2b3006c
:10423400a2fd070031c1b300a0c2b3009ffd070077
:1042440001c7b300b0c2b3009cfd070051c2b30064
:10425400c0c2b30099fd070001c7b300d0c2b300c8
:1042640096fd07000080fa00000006000000fa0036
:1042740052fd07009eff07000070ef000270ef0080
:104284000080fa00000006000800fa00004f7800e1
:1042940011479800224798003347980044479800f4
:1042a4005547980066479800774798001e80fb00a2
:1042b400e30f500052003200e30f500007003c00af
:1042c400e10f500022003200e10f500036003c00a4
:1042d4000000e00008003200a1003700e50f5000a4
:1042e40073003200e50f50005b003500e60f50000c
:1042f400850032009a0037009e4090002e409000c6
:1043040080c070003e40900000c070008040780083
:1043140010c2b30069fd0700ce4090005e409000db
:1043240080c070006e40900080c070007e4090009d
:1043340000c070008040780000c2b3005ffd070039
:104344008ef8970000c1b3005cfd070084003700bd
:104354009e4090002e40900080c070003e4090002f
:1043640000c070008040780030c2b30053fd0700e5
:10437400ce4090005e40900080c070006e4090007f
:1043840080c070007e40900000c0700080407800c3
:1043940020c2b30049fd07008ef8970000c1b300a6
:1043a40046fd07006e0037009e4090002e409000ae
:1043b40080c070003e40900000c0700080407800d3
:1043c40050c2b3003dfd0700ce4090005e40900017
:1043d40080c070006e40900080c070007e409000ed
:1043e40000c070008040780040c2b30033fd070075
:1043f4008ef8970000c1b30030fd07005800370065
:104404009e4090002e40900080c070003e4090007e
:1044140000c070008040780070c2b30027fd070020
:10442400ce4090005e40900080c070006e409000ce
:1044340080c070007e40900000c070008040780012
:1044440060c2b3001dfd07008ef8970000c1b300e1
:104454001afd0700420037009e4090002e40900055
:1044640080c070003e40900000c070008040780022
:1044740090c2b30011fd0700ce4090005e40900052
:1044840080c070006e40900080c070007e4090003c
:1044940000c070008040780080c2b30007fd0700b0
:1044a4008ef8970000c1b30004fd07002c0037000c
:1044b4009e4090002e40900080c070003e409000ce
:1044c40000c0700080407800b0c2b300fbfc07005d
:1044d400ce4090005e40900080c070006e4090001e
:1044e40080c070007e40900000c070008040780062
:1044f400a0c2b300f1fc07008ef8970000c1b3001e
:10450400eefc0700160037009e4090002e409000fd
:1045140080c070003e40900000c070008040780071
:10452400d0c2b300e5fc0700ce4090005e4090008e
:1045340080c070006e40900080c070007e4090008b
:1045440000c0700080407800c0c2b300dbfc0700ec
:104554008ef8970000c1b300d8fc070000000000eb
:104564000080fa00000006000200fa00a0c1b300b7
:104574009afc0700004f7800b0c1b30097fc070015
:10458400104798001e4078000080fb00c800dd0042
:104594001e4090000080fb00008040000080fa0074
:1045a400000006000400fa0020479800f0c0b300a1
:1045b4008afc0700004f78002e4090000004e000c1
:1045c400060032001e4078000004a00080407800fd
:1045d400f0c0b300b9fc0700050037001e407800a6
:1045e4000004a10080407800f0c0b300b3fc0700d1
:1045f4000080fa00000006000400fa00100798008a
:1046040090c1b30075fc0700004f78001e80fb00ca
:10461400e70060001e009000310098001e80fb003f
:104624004300de00004078000080fb00e3006000ef
:104634001e009000210098001e80fb004500de0053
:10464400004078000080fb006100600000f0a700db
:104654000000ea000000ea004f00de00804078001d
:104664001e009000214098001e80fb004600de00e2
:10467400004078000080fb006100600000f0a700ab
:104684000000ea000000ea004f00de0080407800ed
:104694001e009000114098001e80fb004700de00c1
:1046a400004078000080fb006100600000f0a7007b
:1046b4000000ea000000ea004f00de0080407800bd
:1046c4001e009000014878000080fa0000000600f7
:1046d4000400fa002047980031479800be4090003b
:1046e4002e40900075fc0700c02b20000100200024
:1046f400a70307002e40900038fc0700004f780005
:104704003e4090009e40780080cf500002003a0066
:1047140010c0b300010037000040eb000080fa0035
:10472400000006001400fa0013cea9000040eb00bc
:104734002047980010c0b3003047980000c4b3006d
:104744004047980030c1b3005047980000c4b300fc
:104754006047980050c2b3007047980000c7b30088
:10476400004f980070c3b300104f980000c7b30007
:10477400204f98008040eb0030c0b3004ffc07008e
:104784000e80e80092c0b30080007800f0c1b3004e
:104794006cfc0700c02b2000010020007c030700f4
:1047a4006b00470092c0b30080007800f0c1b300f2
:1047b400abfc07000040eb00104798000040eb0002
:1047c400004f78000c0037001e80fb000080e800da
:1047d400ee4078001e80fb006b0040006e407800c5
:1047e40080cf5000030032001e4090000040e800db
:1047f400104798001e4fe8001e407800e84f500014
:10480400f1ff36001e4090000004e00002003a0070
:1048140010c0b300010037000040eb000080fa0034
:10482400000006000e00fa00889fbe0050079800a2
:10483400610798000f0478000f0078008004780066
:104844007b02070010c0b300ae0207000040eb007b
:10485400004f780020c0b300204798002e409000fd
:104864008080fb008100e900210798000080fb00a4
:104874000000e8000000e8000000d10080004000d3
:104884000f007800818747000000e8000000d10095
:1048940000004000300798000040eb0010479800eb
:1048a4001f00370002d0bf000004e0001c003200eb
:1048b4000270ef003e0090002e41900080007800ce
:1048c400a0c1b300aefc07003e0090001040780089
:1048d4000080fb00c800dd003e0090001040900006
:1048e4000080fb0001007000400798001e80fb0060
:1048f40000004000de00900000804000ce009000e8
:10490400010878001e4fe8009e80fb006e009000b6
:10491400808f500002003a0010c0b3001047980086
:104924001e4090000004a2000004e000ddff3a00f5
:1049340010c0b30089077800880778004f04be00d0
:104944000080fa00000006001000fa00889fbe00f4
:1049540060079800710798000f0478000f00780032
:10496400800478003202070010c0b300650207001b
:104974000040eb00004f780030c0b300204798009f
:104984002e4090008080fb008100e9002107980000
:104994000080fb000000e8000000e8000000d100f7
:1049a400800040000f007800818747000000e80085
:1049b4000000d10000004000300798000040eb00e8
:1049c400104798002e00370002d0bf000004e0001a
:1049d4002b0032000270ef003e0090002e41900048
:1049e40080007800a0c1b30065fc07003e00900081
:1049f400104078000080fb00c800dd003e009000fd
:104a0400104090000080fb000100700040079800f7
:104a14002e4090008040e9003e0090003bfd0700de
:104a2400204f98002e4890000004e00007003a0050
:104a34001e80fb0000004000ee009000008040005b
:104a4400ce00900001087800060037001e80fb00ad
:104a540000004000ee009000008040008000eb0069
:104a6400010878001e4fe8009e80fb007e00900045
:104a7400808f500002003a0010c0b3001047980025
:104a84001e4090000004a2000004e000ceff3a00a3
:104a940010c0b30089077800880778004f04be006f
:104aa4000080fa00000006000000fa000040eb005d
:104ab400f0010700950207007b020700ab02070024
:104ac400e501070010c0b300ea0107000158220005
:104ad4000000eb00b700070011c0b3000000eb00ba
:104ae400c8000700e1fd070013eea9000080fa00ea
:104af400000006000a00fa00008fbe00220798009a
:104b040033079800440798004e0090008000eb00a3
:104b1400cfef07000001be001e00be007bef0700c0
:104b24000001be001e00be001aef0700008fbe0089
:104b34004e0090008000eb00c5ef07000001be00ae
:104b44002e009000be00900070ef07000001be0030
:104b54001e00be0010ef0700008fbe001e00be0046
:104b64000080fa00000006001600fa00ceff0700dd
:104b740080af29004af00700000120004007980098
:104b84004e009000800078008100e90051079800f1
:104b9400000040000000e8000000e8000000d10030
:104ba400800040000f007800818747000000e80083
:104bb4000000d10000004000600798000040eb00b6
:104bc400004f78006e009000ce00900015ff0700a3
:104bd4000004e0000100320013eea8000000eb0026
:104be4003007980011003700ee0090003e0090005e
:104bf4000000400000804000100078008000eb00be
:104c040093ef07004e0290000001be001e009000ca
:104c1400ae009000b7ff0700100798002107980026
:104c24003e0090000000e80030079800be009000ad
:104c34004e009000808f5000ebff39001e00900062
:104c4400ae009000809fbe00d0af2900801f780086
:104c54001ff10700e68757006e00470066fe070055
:104c64001e0890000000e0000200320010c0b300f3
:104c7400004f78000e5090000004e0000200320063
:104c840010c0b300004f78007e4890000004e0009c
:104c94000200320010c0b300004f78006e4890004c
:104ca4000004e0000200320010c0b300004f78009e
:104cb4001e4078000004e0000300320010c0b3007e
:104cc40038fe0700020037000040eb0035fe070005
:104cd4000040eb00004f780000d82100c1422000c2
:104ce4002b020700b7ff37000200fa00000f78001c
:104cf40021e2a90021a2a9002182a90001118000ba
:104d0400f0cf2f00008060000011880020e2a9008d
:104d140020c2a90020a2a9002082a8002062a90024
:104d24000111800090ff2f000080600000118800b6
:104d34002002a90023a2a90023e2a90023c2a800fb
:104d44002342a90011118000f0f32f0000806000bd
:104d54001011880022a2a9001e0078008000eb0038
:104d64000001be0000d82100c142200029ef070045
:104d74004c09dd004400de0000007100c488de0040
:104d840000007800401188002422ef002622ef0062
:104d940011c0b3000000eb001a0007000080fa0005
:104da400000006000200fa00000f78000080fa00fc
:104db400000006000400fa00000f780011079800b4
:104dc4001e0078000000e00003003a001e0090007e
:104dd400c5ff0700050037001e007800e10f5000f2
:104de40005003a001e009000eeff07001e00780048
:104df4000001070001003700000000000080fa00f5
:104e0400000006000400fa00000f78002147980013
:104e14001e0078000000e00009003a002e409000d7
:104e24000004e0000300320021e2a8002342a800ad
:104e34000b00370021e2a9002342a9000800370033
:104e44002e4090000004e0000300320031e2a8008c
:104e54003342a8000200370031e2a9003342a9001e
:104e64000080fa00000006000200fa00004f7800fb
:104e74001e80fb002011880000000000111180003a
:104e840000102000008060000000e000fbff320002
:104e94000080fa00000006000200fa0010118000f1
:104ea400640060000000e000040032003011800063
:104eb400004f78000040eb00110037001011800013
:104ec400620060000000e0000b0032008040eb0054
:104ed4000000eb00cbff0700c02b200001002000e6
:104ee400ab01070011c0b3000000eb00c5ff0700d1
:104ef4000040eb00020037003011800000407800d1
:104f04000080fa00000006000200fa00004f78005a
:104f14001e407800d4ff07000080fa00000006005d
:020000040000fa
:104f240000100000040000008000000004100000d5
:104f3400020000008000000006100000880000004d
:104f44008200000001000000002c10002d102c0035
:104f5400102c10002c102c00101c1000000000005d
:104f6400000000000000000000000000000000003d
:104f740000000000000000000002080001015400cd
:104f840010551000541054001054100054104400d4
:104f940010000000000000000000000000000000fd
:104fa40000000000000000000000000000000200fb
:104fb400080202007c107d00107c10007c107c0034
:104fc400107c10006c1000000000000000000000c5
:104fd40000000000000000000000000000000000cd
:104fe4000000000006102e00105610000000000003
:104ff400000000000000000000000000e6100000b7
:105004001a00000082000000686a6c00747a4c0088
:10501400000001000002000004000800001000006d
:10502400000020002b2d2300300000008e10000013
:1050340058000000820000006e616e00004e4100c6
:105044004e0069006e660000494e460000000000f4
:1050540000000000002440000000000000000000e8
:1050640059400000000000000088c3004000000018
:1050740000008400d79741000080e0003779c30026
:10508400414317006e05b500b5b8930046f5f90025
:105094003fe903004f384d00321d3000f9487700d6
:1050a400825a3c00bf737f00dd4f1500750000007d
:1050b400081100000200000082000000300000001f
:1050c4000a1100000200000080000000001100002e
:1050d4000400000082000000060000000000000040
:1050e4000411000004000000800000000c11000006
:1050f4000200000082000000010000000e11000008
:0c5104000200000080000000000000001d
:020000040000fa
:105110000200fa00000f78001e007800e10f500036
:1051200002003a0010eea900040037001e007800cb
:105130000000e00004003a0010eea800112ea800c4
:10514000110ea90001003700000000000080fa00e5
:10515000000006000200fa00000f78000080fa004c
:10516000000006000000fa0010aea80010cea90052
:105170002136800000f82f0080806000500220005f
:1051800001007000203688002134800000fc2f00d0
:10519000008060000000a000203488000080fa0039
:1051a000000006000000fa000080fa00000006007f
:1051b0000400fa00000f7800110798001e00780024
:1051c0000000e00003003a001e009000d0ff07003e
:1051d000070037001e007800e10f500003003a007e
:1051e0001e009000dbff07000100370000000000f8
:1051f0000080fa00000006000200fa00000f7800ac
:105200001e0078000000e00002003a00d5ff070011
:10521000060037001e007800e10f500002003a003f
:10522000e0ff070001003700000000000080fa00e6
:10523000000006000000fa00108ea8000135800072
:10524000f00f280080806000004022000100700004
:10525000003588000080fa00000006000000fa0017
:10526000c028ef00c428ef00c628ef00c1e8a9005d
:105270000080fa00000006000200fa00004f7800eb
:105280001e4078000004e000070032001102800098
:10529000f0f12f0000806000100288004460a90037
:1052a000c3e8a8000500370011028000000e2000ae
:1052b0000100700010028800c3e8a9000080fa0015
:1052c000000006000200fa00004f78001e4078003f
:1052d0000004e000090032000168a90021428000ba
:1052e000f0ff2800808060000000250001007000b1
:1052f000204288002168a800010037002168a90029
:105300000080fa00000006000200fa00004f78005a
:105310001e4078000004e000080032000288a90066
:105320005142800080ff2f00008060006000b300c9
:10533000504288002288a800010037002288a90076
:105340000080fa0000000600809fbe000000fa0006
:105350000140800000802000008060000000e0002c
:10536000010032000168a9000080fa004f00be0071
:1053700000400600801f78000000fa001040800006
:10538000700060000000e0000300320010c0b300b5
:1053900002f0b7000288a9000080fa004f007800f0
:1053a000004006000200fa00000f780041e2a90068
:1053b00041a2a90040c2a90042a2a8004342a900fc
:1053c0004382a9004362a9004322a9004302a90025
:1053d00042e2a90042c2a8001112800030fe2f0054
:1053e000008060008001b30010128800111280005c
:1053f000c0ff2f00008060001012880045e2a90065
:105400004402a9004822ef0041e2a8000080fa000f
:10541000000006000200fa00000f78000080fa0089
:10542000000006000400fa00000f78001107980041
:105430009e0090001e0078005dff07001e007800af
:105440000000e00003003a001e009000d5ff0700b6
:10545000070037001e007800e10f500003003a00fb
:105460001e009000ebff0700010037000000000065
:105470000080fa00000006000200fa00004f7800e9
:105480001e80fb0040128800000000000012800017
:10549000610060000000e000fcff3200401280006c
:1054a000004078000080fa00000006000000fa00ca
:1054b00040a7a900113a8000f08f2f000080600003
:1054c0000080a000103a880042e7a90042c7a90066
:1054d0004207a80000000000113a800000002700e9
:1054e0008080600000002100808f5000faff3a00a9
:1054f0004fe7a8004f87a900713a8000f00f2f00f6
:1055000000806000703a88000080fa000000060009
:105510000000fa0045e7a9004587a90045a7a900b2
:1055200045c7a9004567a9004507a9004527a90067
:105530004547a90044c7a90044e7a9004407a900ba
:105540004427a9004447a9004467a9004487a9004b
:10555000313a800000e02f0080806000a00420002d
:1055600001007000303a88000080fa000000060058
:105570000000fa00002eef000e2eef00022eef00ca
:10558000102eef001e2eef00122eef000080fa000a
:045590000000060011
:020000040000fa
:10559400f03fb1000180b10006003500ee030900c0
:1055a40000000000403fb1000180b100fbff3d005e
:1055b4001000b000203fb000020035000080090058
:0855c4000000000000000600d9
:020000040000fa
:1055cc000400fa00000f7800110798009e0090006c
:1055dc001e007800bbed07000000e00002003a005e
:1055ec0010c0b300010037000040eb000080fa004f
:0455fc0000000600a5
:020000040000fa
:04afe000cfff00009f
:020000040000fa
:04afe400ffff00006b
:020000040000fa
:04afe8007fff0000e7
:020000040000fa
:04afec007bff0000e7
:020000040000fa
:04aff000f9ff000065
:020000040000fa
:04aff400ffff00005b
:00000001FF
