:040000005AEF00F0C3
:0E0008005182FACF01F0FBCF02F045ED0BF074
:100018005180D8CF2FF0E8CF30F0E0CF31F0FACFD1
:1000280032F0FBCF33F0E9CF34F0EACF35F0E1CF4F
:1000380036F0E2CF37F0D9CF38F0DACF39F0F3CF56
:100048003AF0F4CF3BF0F6CF3CF0F7CF3DF0F8CFE5
:100058003EF0F5CF3FF09EAA05D0EFEC0DF04AEC4C
:1000680004F09E9A3FC0F5FF3EC0F8FF3DC0F7FF81
:100078003CC0F6FF3BC0F4FF3AC0F3FF39C0DAFFDB
:1000880038C0D9FF37C0E2FF36C0E1FF35C0EAFF0C
:1000980034C0E9FF33C0FBFF32C0FAFF31C0E0FFD4
:1000A80030C0E8FF2FC0D8FF5190100086EF0BF04A
:100800000001000A006400E8031027010010000046
:10081000010010446964206E6F7420756E64657207
:100820007374616E64207468617420636F6D6D61B0
:100830006E640030313233343536373839616263B3
:1008400064656600496E697469616C697A65640003
:1008500050616E6461004F6F7073005B415D005BBF
:10086000425D005B4D5D003A256400464100434413
:10087000004845004F4B00444C00474E00494E0095
:100880004F4E0041520025780043004F00240026BF
:10089000003A00002E6E4AD1260E2E18D8A41AD087
:1008A000000EE8CF70F1000EE8CF71F1000E476E38
:1008B000000EE8CFA4F1000E486E000E0101326F69
:1008C000000E0101656F000E0001E16F010EE8CF1F
:1008D000A2F51200000EE8CFA2F512003A0E2E1873
:1008E000D8A410D0020EE8CFA2F570C12CF02C5085
:1008F000010D660EF324D96E010EF420DA6E000E9F
:10090000DF6E120070C12CF02C50010D660EF32426
:10091000D96E010EF420DA6E2EC0DFFF70C1E8FF41
:10092000010FE8CF70F121EE70F00A0EDF641200C3
:10093000000EE8CF70F112003A0E2E18D8A410D095
:10094000030EE8CFA2F5A4C12CF02C50010D720EBD
:10095000F324D96E010EF420DA6E000EDF6E120061
:10096000A4C12CF02C50010D720EF324D96E010E8F
:10097000F420DA6E2EC0DFFFA4C1E8FF010FE8CF3C
:10098000A4F121EEA4F0320EDF641200000EE8CFD5
:10099000A4F112003A0E2E18D8A410D0040EE8CFFD
:1009A000A2F5A4C12CF02C50010D720EF324D96EC7
:1009B000010EF420DA6E000EDF6E12002EC02CF055
:1009C000D00E2C262CC071F12E50D00F476E120085
:1009D0003A0E2E18D8A40FD0050EE8CFA2F50101CB
:1009E0003251010D000EF324D96E010EF420DA6E9F
:1009F000000EDF6E120001013251010D000EF324D2
:100A0000D96E010EF420DA6E2EC0DFFF0101322B09
:100A1000320E010132651200000E0101326F120028
:100A20003A0E2E18D8A455D001016551010D330E90
:100A3000F324D96E010EF420DA6E000EDF6E21EE83
:100A400000F04850660DA50EF324E16E010EF4206F
:100A5000E26E650EDBCFE3FFE806FCE2000E2D6ED2
:100A6000000E2D6E0BD02D50010D000EF324D96E0B
:100A7000010EF420DA6E000EDF6E2D2A01013251D4
:100A80002D5CD8A0F0D7000E2D6E0BD02D50010D8F
:100A9000330EF324D96E010EF420DA6E000EDF6EF1
:100AA0002D2A010165512D5CD8A0F0D7000E01015F
:100AB000326F000E0101656F4706482A4750D8A4DF
:100AC00004D0060EE8CFA2F51200040EE8CFA2F57E
:100AD000120001016551010D330EF324D96E010E90
:100AE000F420DA6E2EC0DFFF0101652B320E01010A
:100AF00065651200000E0101656F1200240E2E18AC
:100B0000D8A409D075EC0CF0000EE8CFA2F5010EC8
:100B10000001E16F12002EC02CF0D00E2C262CC04C
:100B2000A1F51200000EE8CFA2F5120025EEA2F00A
:100B3000DF50000AD8B4B0D6010AD8B4CFD6030A21
:100B4000D8B4FAD6010AD8B425D7070AD8B440D702
:100B5000010AD8B465D7030AD8B4D0D7E3D76F0E4B
:100B60000001756F000E0001766F15D1250E000192
:100B70007B19D8B405D000017B51B6EC0EF00BD137
:100B8000000E0001786F08D00001788F28D0000196
:100B90007B51B6EC0EF0FFD06CC071F06DC072F0FE
:100BA0006EC073F000016C2B000E6D236E2371C0BC
:100BB000F6FF72C0F7FF73C0F8FF0800F5CF7BF0B7
:100BC00000017B51000AD8B41200640AD8B407D0DF
:100BD0000D0AD8B404D0110AD8B4D6D7D8D700019A
:100BE00078BF19D075C0D9FF76C0DAFFDECF79F0B3
:100BF000DDCF7AF0020E00017527000E762300018A
:100C00007AAF53D0030E000178130001796D7A1F7B
:100C1000D8B07A2B4AD075C0D9FF76C0DAFFDECFC4
:100C200079F0DDCF7AF0020E00017527000E7623F1
:100C30003CD0010E00017B6F050E00017B19D8B47A
:100C40003DD000017B51020D010EF324F66E080E1B
:100C5000F420F76E0900F5500001795D0900F550A8
:100C600000017A59D8A02AD000017B2BE5D7010ECC
:100C700000017B6F040E00017B19D8B41FD0000166
:100C80007B51020D0B0EF324F66E080EF420F76E66
:100C90000900F5500001795D0900F55000017A590D
:100CA000D8A00CD000017B2BE5D700017851800B38
:100CB000000AD8B4BED7800AD8B4D9D778C071F0AA
:100CC000030E00017117D8B403D02D0EB6EC0EF050
:100CD0007BC077F05AD000017751020D010EF3244A
:100CE000F66E080EF420F76E0900F5CF62F00A00E8
:100CF000F5CF63F079C060F07AC061F0C5EC0BF01D
:100D000060C067F061C068F0000E00016A6F0A0EF3
:100D1000696FA7EC0CF000016751300F00017B6F89
:100D200030D079C060F07AC061F000017751020DD7
:100D30000B0EF324F66E080EF420F76E0900F5CFC3
:100D400062F00A00F5CF63F0C5EC0BF000016051D2
:100D50000F0B0001746F00017451010D330EF32469
:100D6000F66E080EF420F76E0800F5CF7BF009D080
:100D700000017851800B000AD8B4ADD7800AD8B4EE
:100D8000D0D700017B51B6EC0EF0000177070001CF
:100D90007729D8A4EDD76CC071F06DC072F06EC029
:100DA00073F000016C2B000E6D236E2371C0F6FFF3
:100DB00072C0F7FF73C0F8FF0800F5CF7BF00001A9
:100DC0007B51D8B41200D2D61E0E246E000E256EB2
:100DD000EED0250E2A18D8B404D02A50C4EC0EF058
:100DE000E6D0000E276E06D0278E25D02A50C4EC00
:100DF0000EF0DDD01BC020F01CC021F01DC022F081
:100E00001B2A000E1C221D2220C0F6FF21C0F7FF66
:100E100022C0F8FF0800F5CF2AF02A50000AD8B403
:100E20001200640AD8B407D00D0AD8B404D0110A4D
:100E3000D8B4DAD7DBD727BE15D024C0D9FF25C058
:100E4000DAFFDECF28F0DDCF29F0020E2426000ED7
:100E5000252229AE44D0030E2712286C291ED8B0B3
:100E6000292A3DD024C0D9FF25C0DAFFDECF28F0E3
:100E7000DDCF29F0020E2426000E252230D0010EEF
:100E80002A6E050E2A18D8B432D02A50020D010E4F
:100E9000F324F66E080EF420F76E0900F550285C76
:100EA0000900F5502958D8A022D02A2AEAD7010EE5
:100EB0002A6E040E2A18D8B41AD02A50020D0B0E2E
:100EC000F324F66E080EF420F76E0900F550285C46
:100ED0000900F5502958D8A00AD02A2AEAD7275065
:100EE000800B000AD8B4CBD7800AD8B4E0D727C08B
:100EF00020F0030E2016D8B403D02D0EC4EC0EF053
:100F00002AC026F050D02650020D010EF324F66EB2
:100F1000080EF420F76E0900F5CF11F00A00F5CFA6
:100F200012F028C00FF029C010F061EC0DF00FC0D6
:100F300016F010C017F0000E196E0A0E186EAFEC06
:100F40000DF01650300F2A6E2BD028C00FF029C09C
:100F500010F02650020D0B0EF324F66E080EF4204E
:100F6000F76E0900F5CF11F00A00F5CF12F061EC31
:100F70000DF00F500F0B236E2350010D330EF32491
:100F8000F66E080EF420F76E0800F5CF2AF008D0B0
:100F90002750800B000AD8B4B6D7800AD8B4D5D76A
:100FA0002A50C4EC0EF026062628D8A4F1D71BC080
:100FB00020F01CC021F01DC022F01B2A000E1C22B4
:100FC0001D2220C0F6FF21C0F7FF22C0F8FF080055
:100FD000F5CF2AF02A50D8B41200FBD6D0C060F06A
:100FE000D1C061F07D0E0001626F080E0001636FD9
:100FF00035EC0DF00001605100016111D8A416D04C
:101000003CEC0CF07D0E00017C6F080E00017D6F42
:10101000740E00017E6F080E00017F6F00017E518B
:101020007F11D8A4000E806FDEEC09F0D0C060F014
:10103000D1C061F0830E0001626F080E0001636F82
:1010400035EC0DF00001605100016111D8A413D0FE
:10105000D0EC0DF065C0DEF066C0DFF0830E00015D
:101060007C6F080E00017D6FDEC07EF0DFC07FF078
:101070006EEC09F01200D0C060F0D1C061F07A0EC1
:101080000001626F080E0001636F35EC0DF0000186
:10109000605100016111D8A411D07A0E00017C6F5B
:1010A000080E00017D6FBDEC0EF060C07EF061C0E7
:1010B0007FF062C080F0DEEC09F01200D0C060F07A
:1010C000D1C061F0710E0001626F080E0001636F04
:1010D00035EC0DF00001605100016111D8A416D06B
:1010E000D2C060F0D3C061F0800E0001626F080EC4
:1010F0000001636F35EC0DF00001605100016111DA
:10110000D8B402D08A8612008A961200D0C060F04D
:10111000D1C061F06B0E0001626F080E0001636FB9
:1011200035EC0DF00001605100016111D8A416D01A
:10113000D2C060F0D3C061F0800E0001626F080E73
:101140000001636F35EC0DF0000160510001611189
:10115000D8B402D08A8812008A981200D0C060F0F9
:10116000D1C061F06E0E0001626F080E0001636F66
:1011700035EC0DF00001605100016111D8A40CD0D4
:101180008A968A98000E20EC0EF0000E76EC0EF097
:10119000000E33EC0EF01200560E00017C6F080EAC
:1011A00000017D6F130E00017E6F080E00017F6F3E
:1011B00000017E517F11D8A4000E806FDEEC09F093
:1011C0001200000E0001696F000167AF0CD0000132
:1011D000671F661F651F646D000E65236623672306
:1011E000010E0001696F000163AF0CD00001631FA5
:1011F000621F611F606D000E612362236323010E75
:101200000001691B000E00016A6F000E6B6F000E7B
:101210006C6F000E6D6F00016451000165110001DB
:10122000661100016711D8B442D0010E0001686F49
:1012300008D00001D89064376537663767370001FA
:10124000682B000167AFF5D70001D8906A376B377C
:101250006C376D37000164510001605D000165511C
:101260000001615900016651000162590001675196
:1012700000016359D8A012D0000164510001605FE1
:10128000000165510001615B000166510001625B74
:10129000000167510001635B00016A810001D89081
:1012A00067336633653364330001682FCDD700019F
:1012B00069510001D8B409D000016D1F6C1F6B1F6C
:1012C0006A6D000E6B236C236D236AC060F06BC0E7
:1012D00061F06CC062F06DC063F012004DC06CF044
:1012E0004EC06DF000016C516D11D8A4000E6E6FF0
:1012F000AFEC05F0E8C06CF0E9C06DF000016C5196
:101300006D11D8A4000E6E6FAFEC05F0E5C06CF067
:10131000E6C06DF0E7C06EF0AFEC05F0910E000195
:101320006C6F080E00016D6F00016C516D11D8A437
:10133000000E6E6FAFEC05F07CC06CF07DC06DF000
:1013400000016C516D11D8A4000E6E6FAFEC05F06A
:10135000910E00016C6F080E00016D6F00016C5161
:101360006D11D8A4000E6E6FAFEC05F0680E000191
:101370006C6F080E00016D6F00016C516D11D8A4E7
:10138000000E6E6F7EC06FF07FC070F0AFEC05F0A6
:101390004FC06CF050C06DF000016C516D11D8A4BD
:1013A000000E6E6FAFEC05F0060E0001806F300E80
:1013B000E82EFED7802FFCD700D012004DC06CF075
:1013C0004EC06DF000016C516D11D8A4000E6E6F0F
:1013D000AFEC05F0E8C06CF0E9C06DF000016C51B5
:1013E0006D11D8A4000E6E6FAFEC05F0E5C06CF087
:1013F000E6C06DF0E7C06EF0AFEC05F0910E0001B5
:101400006C6F080E00016D6F00016C516D11D8A456
:10141000000E6E6FAFEC05F07CC06CF07DC06DF01F
:1014200000016C516D11D8A4000E6E6FAFEC05F089
:10143000910E00016C6F080E00016D6F00016C5180
:101440006D11D8A4000E6E6FAFEC05F07EC06CF08D
:101450007FC06DF080C06EF0AFEC05F04FC06CF057
:1014600050C06DF000016C516D11D8A4000E6E6F6C
:10147000AFEC05F0060E0001816F300EE82EFED7AE
:10148000812FFCD700D01200000E20EC0EF0D58C7E
:10149000D59AD59621D0D590D592D59448D0D5500F
:1014A000F80B010913D0D550F80B02090FD0D55015
:1014B000F80B03090BD0D550F80B040907D0D55011
:1014C000F80B050903D0D550F80B0609D56E2FD0BF
:1014D000D580D582D5842BD061C063F062C064F022
:1014E00000016451000AD8B404D0010AD8B419D05C
:1014F000D2D700016351020AD8B4CDD7060AD8B4B6
:10150000CED70C0AD8B4CFD7180AD8B4D0D7300A5F
:10151000D8B4D1D7600AD8B4D2D7C00AD8B4D3D7F8
:10152000BAD700016351000AD8B4D2D7B4D7000E9D
:10153000D66E000ED76ED08EF28EF28CF29AF294A6
:10154000F1841200949C948E6EC0E5F06FC0E6F0BA
:101550000001E551E611D8A4000EE76F000E00016E
:10156000E16F000E33EC0EF0AC9CAC98AC94AB9CED
:10157000B88AB888B89670C064F071C065F0000190
:10158000666B676B000E0001606F240E616FF40ED6
:10159000626F000E636FE1EC08F060C073F061C031
:1015A00074F062C075F063C076F073C060F074C010
:1015B00061F075C062F076C063F0400E0001646FA8
:1015C000000E656F000E666F000E676FE1EC08F0AD
:1015D00000016005AF6E000172510001D8B4120025
:1015E000D08EF28EF28C9E9A9F9A9D8A12003CECCD
:1015F0000CF00001E051D8B407D0000E0001E06FFC
:1016000001EC0CF0AEEC0EF00001E151D8B4F1D7D2
:10161000000E0001E16FCDEC0EF00001D56F00016E
:10162000D505D8A410D08AEC0DF0E9CFD9FFEACFC8
:10163000DAFF00EECEF0050EDBCFEBFFE806FCE2B2
:10164000EEEC07F0D6D7010E0001D565D2D7000E1B
:101650000001D46F13D00001D45107EC0DF0E9CF95
:10166000D9FFEACFDAFF00EECEF0050EDBCFEBFFBD
:10167000E806FCE2EEEC07F00001D42B0001D551A6
:101680000001D45DD8B0B5D7E6D70600E9CF03F0A6
:10169000EACF04F0E1CF05F0E2CF06F0D9CF07F0B2
:1016A000DACF08F0F3CF09F0F4CF0AF0F6CF0BF061
:1016B000F7CF0CF0F8CF0DF0F5CF0EF0F2A408D074
:1016C000000ED66E000ED76EF294010E0001E06F90
:1016D0000EC0F5FF0DC0F8FF0CC0F7FF0BC0F6FF02
:1016E0000AC0F4FF09C0F3FF08C0DAFF07C0D9FF42
:1016F00006C0E2FF05C0E1FF04C0EAFF03C0E9FF46
:1017000002C0FBFF01C0FAFF51921100A20EF66E5B
:101710001D0EF76E000EF86E0900F5CFE8F0090017
:10172000F5CFE9F0920EF66E1D0EF76E000EF86E14
:1017300000EE49F010EE08F00900F5CFEEFFE5509D
:10174000E150FAE101EE66F014EE3DF0EE6AE5508C
:10175000E150FCE1E250FAE101EE00F0660EEE6AC3
:10176000E806FDE100EED6F00F0EEE6AE806FDE1B8
:1017700000EE40F0090EEE6AE806FDE1519051924C
:10178000000EF86E0001F7EF0AF0000E0001656F21
:10179000000E646F0001625100016311D8B42CD0B7
:1017A000010E0001666F06D00001D89062376337E2
:1017B0000001662B000163AFF7D70001D8906437B2
:1017C0006537000162510001605D00016351000155
:1017D0006159D8A00AD0000162510001605F000188
:1017E00063510001615B000164810001D8906333A3
:1017F00062330001662FE1D764C060F065C061F01C
:101800001200938E81BE1CD00001E251D8A414D0E6
:10181000770E00017C6F080E00017D6F8B0E0001BA
:101820007E6F080E00017F6F00017E517F11D8A4EA
:10183000000E806FDEEC09F0010E0001E26F120075
:101840000001E251D8B414D0770E00017C6F080E6D
:1018500000017D6F890E00017E6F080E00017F6F11
:1018600000017E517F11D8A4000E806FDEEC09F0DC
:10187000000E0001E26F120008EC0EF0500E0001A5
:101880006E6F080E00016F6F250E0001716F800EE4
:10189000706F010E0001726FA2EC0AF0010E33ECC2
:1018A0000EF046EC0EF0010E76EC0EF0010E00018B
:1018B000626F000E616F44EC0AF0010E20EC0EF036
:1018C0007D0E00017C6F080E00017D6F440E00014B
:1018D0007E6F080E00017F6F00017E517F11D8A43A
:1018E000000E806FDEEC09F012004DC01BF04EC000
:1018F0001CF01B501C10D8A4000E1D6EE4EC06F06A
:1019000049C01BF04AC01CF01B501C10D8A4000E8C
:101910001D6EE4EC06F0860E1B6E080E1C6E1B504E
:101920001C10D8A4000E1D6EA1C52BF02B501E6EEE
:101930001F6AE4EC06F04FC01BF050C01CF01B50B7
:101940001C10D8A4000E1D6EE4EC06F0120000017D
:10195000695100016A11D8B426D0010E00016B6FE5
:1019600006D00001D89069376A3700016B2B00015F
:101970006AAFF7D7000169510001675D00016A5144
:1019800000016859D8A008D0000169510001675FC3
:1019900000016A510001685B0001D8906A33693325
:1019A00000016B2FE7D767C067F068C068F01200CE
:1019B0000001646F000164511F0B0001646F00019E
:1019C0006051FE0B0001606F0001D8906031000192
:1019D000606F000164A105D0000160518009000121
:1019E000606F0001D89064310001646F00016451A0
:1019F0000001636F626B000160510001622500010C
:101A0000606F000E000163210001616F1200000190
:101A1000676F00016751660DA50EF324D96E010EA4
:101A2000F420DA6E10EE68F0650EDBCFE3FFE80617
:101A3000FCE2720E0001D66F010E0001D76F680E36
:101A40000001D86F000E0001D96F9B0E0001DA6F04
:101A5000000E0001DB6F20EED6F000EE60F0050E08
:101A6000DBCFEBFFE806FCE2120006D00001604B82
:101A7000612B0001624B632B60C0D9FF61C0DAFFAC
:101A8000DF500001646F62C0F6FF63C0F7FF08001B
:101A9000F5500008000164250001656F00016551E3
:101AA000D8A407D060C0D9FF61C0DAFFDF50D8A446
:101AB000DDD7000165510001606F616B60BF610798
:101AC0001200000E146E000E136E11501210D8B4D6
:101AD0001CD0010E156E04D0D89011361236152A7E
:101AE00012AEFAD7D8901336143611500F5C12503C
:101AF0001058D8A005D011500F5E1250105A138004
:101B0000D89012321132152EEDD713C00FF014C039
:101B100010F0120021EEA5F010EE66F0650EDBCF9E
:101B2000E3FFE806FCE2720E0001D66F010E000131
:101B3000D76F660E0001D86F000E0001D96F990EA5
:101B40000001DA6F000E0001DB6F20EED6F000EE30
:101B500060F0050EDBCFEBFFE806FCE21200185048
:101B60001910D8B418D0010E1A6E04D0D8901836B7
:101B700019361A2A19AEFAD71850165C1950175888
:101B8000D8A004D01850165E1950175AD8901932A0
:101B900018321A2EF1D716C016F017C017F012001F
:101BA000819400D000D0000E9CEC0EF00001E46F98
:101BB000000E9CEC0EF00001E36F00D000D0818499
:101BC000E3C060F00001E451D8EC0CF060C0DCF040
:101BD00061C0DDF0DCC065F0DDC066F01200ABA4D2
:101BE00005D0AECF10F08A8A000E1200ABA20DD045
:101BF000000E66EC0EF00D0EE82EFED700F0010E82
:101C000066EC0EF08A8A000E12008A9AAE5012001C
:101C1000000E926E000E806E000E936E000E816EAE
:101C2000000E946E000E826E0F0EC16E93968A9611
:101C300093988A98939A8A9A939C8A9C938E12007E
:101C40000001606F000160510001D8B406D0D58E4C
:101C5000F28A000E0001E06F1200D59EF29A000E8B
:101C60000001E06F12000001606F0001605100018F
:101C7000D8B406D0949C948EAC8AAB88AB8E1200FC
:101C8000949C949EAC9AAB98AB9E120093948184E2
:101C9000000E0001E46F000E0001E36F000E000172
:101CA000DD6F000EDC6F56EC0EF012009392938005
:101CB000000EC96E000E85EC0EF0C79EC79CC6884C
:101CC000C650F00B0209C66E9E9612000F6E0F50A2
:101CD000D8B406D0949C948EAC8AAB88AB8E12009C
:101CE000949C949EAC9AAB98AB9E12000001616FDD
:101CF000000161510001D8B404D0010E85EC0EF052
:101D00001200000E85EC0EF012000001606F000161
:101D100060510001D8B404D093929380C68A120017
:101D2000C69A12000001616F010E33EC0EF0ACA2F6
:101D3000FED761C0ADFF12000001606F60C0C9FF37
:101D40009EA6FED79E96C9501200106E010E66EC3C
:101D50000EF0ACA2FED710C0ADFF12000001E251A0
:101D6000D8B402D08A8C12008A9C12000001626FE3
:101D70000001625192EC0EF01200E5C060F0E6C086
:101D800061F0E7C062F01200116E1150A5EC0EF088
:101D900012005B085F088F088D0821EE71F0DF509C
:041DA00012006308C2
:020000040020DA
:08000000FFFFFFFFFFFFFFFF00
:020000040030CA
:0E000000040C1F1EFF8080FF0FC00FE00F409A
:00000001FF
