:0400000082EF3EF05D
:107CFA00E9EC3EF0A5EC3EF01200000EF86E000131
:107D0A0019EF3FF0016E01C0C9FF9EA6FED79E96ED
:107D1A00C9501200036E03C004F00150070B056E30
:107D2A0004C001F005C002F01200016E0150D8B47F
:107D3A0005D09392949E9380C68A1200C69A120026
:107D4A0093948184050E026E000EC6EC3FF0010E7C
:107D5A009AEC3EF01200046E000E056E04D00A0E74
:107D6A00D8EC3EF0052A0450055CD8B01200F7D7CB
:107D7A00066E000E076E04D00A0EB0EC3EF0072A1B
:107D8A000650075CD8B01200F7D7046E04C005F09D
:107D9A0001C006F002C007F005C001F006C002F0FB
:107DAA0007C003F01200026E000E036E08D0340EF4
:107DBA00016EF20EE82EFED7012EFCD7032A0250DE
:107DCA00035CD8B01200F3D7000E926E000E806EDC
:107DDA00000E936E000E816E000E946E000E826E7F
:107DEA000F0EC16E93968A9693988A98939A8A9A56
:107DFA00939C8A9C12000C6E09C001F00AC002F022
:107E0A000850CAEC3EF001C00DF002C00EF003C0EB
:107E1A000FF00CC010F00DC008F00EC009F00FC032
:107E2A000AF010C00BF012007DEC3EF0020EBDEC21
:107E3A003EF0160E126E090E70EC3FF0090E9AEC27
:107E4A003FF01A6E000E126E0E0E70EC3FF0020E2C
:107E5A00126E0F0E70EC3FF0FFD7000E116E819478
:107E6A000B5087EC3EF00C5087EC3EF00DC001F051
:107E7A000EC002F00FC003F04CEC3FF087EC3EF06E
:107E8A00105087EC3EF0116E8184115012000140AF
:107E9A00800B800B086E0238E846E00B600B096E17
:107EAA0003500F0B0A6E085009240A24076E03C0F8
:107EBA0004F00F0E041602C005F0050E066ED890E7
:107ECA000536062EFCD7600E05160140800B800B86
:107EDA00052404241200136E13380F0B070B016ECE
:107EEA00100E8FEC3EF001C014F002C015F0000E27
:107EFA00086E000E096E13500F0B0A6E125000EC3A
:107F0A003FF008C016F009C017F00AC018F00BC0FD
:107F1A0019F020EE14F000EE0BF0050EDBCFEBFFAC
:107F2A00E806FCE232EC3FF01200136E000E126E0D
:107F3A0013380F0B070B016E100E8FEC3EF001C0C9
:107F4A0014F002C015F0010E086E000E096E1350EF
:107F5A000F0B0A6E125000EC3FF008C016F009C071
:107F6A0017F00AC018F00BC019F020EE14F000EE5A
:107F7A000BF0050EDBCFEBFFE806FCE232EC3FF03C
:107F8A001200036E03B002D0939201D09382949EA2
:107F9A009380000EC96E000E9AEC3EF011D0C79E77
:107FAA00C78C02D0C78EC79CC69818D0C79EC78CEC
:107FBA0002D0C78E03D0C68811D0C79EC79CFBD7F4
:107FCA000250000AD8B4EBD7010AD8B4EBD7030A97
:107FDA00D8B4ECD7010AD8B4ECD7EFD70350D8B449
:107FEA0004D0C650F00B0A0903D0C650F00B0209A0
:067FFA00C66E9E96120007
:020000040020DA
:08000000FFFFFFFFFFFFFFFF00
:020000040030CA
:0E000000040C1F1EFF8080FF0FC00FE00F409A
:00000001FF
